{
	"github/bnb-chain/canonical-upgradeable-bep20/contracts/BEP20TokenImplementation.sol": {
		"BEP20TokenImplementation": {
			"abi": [
				{
					"inputs": [],
					"stateMutability": "nonpayable",
					"type": "constructor"
				},
				{
					"anonymous": false,
					"inputs": [
						{
							"indexed": true,
							"internalType": "address",
							"name": "owner",
							"type": "address"
						},
						{
							"indexed": true,
							"internalType": "address",
							"name": "spender",
							"type": "address"
						},
						{
							"indexed": false,
							"internalType": "uint256",
							"name": "value",
							"type": "uint256"
						}
					],
					"name": "Approval",
					"type": "event"
				},
				{
					"anonymous": false,
					"inputs": [
						{
							"indexed": true,
							"internalType": "address",
							"name": "previousOwner",
							"type": "address"
						},
						{
							"indexed": true,
							"internalType": "address",
							"name": "newOwner",
							"type": "address"
						}
					],
					"name": "OwnershipTransferred",
					"type": "event"
				},
				{
					"anonymous": false,
					"inputs": [
						{
							"indexed": true,
							"internalType": "address",
							"name": "from",
							"type": "address"
						},
						{
							"indexed": true,
							"internalType": "address",
							"name": "to",
							"type": "address"
						},
						{
							"indexed": false,
							"internalType": "uint256",
							"name": "value",
							"type": "uint256"
						}
					],
					"name": "Transfer",
					"type": "event"
				},
				{
					"inputs": [
						{
							"internalType": "address",
							"name": "owner",
							"type": "address"
						},
						{
							"internalType": "address",
							"name": "spender",
							"type": "address"
						}
					],
					"name": "allowance",
					"outputs": [
						{
							"internalType": "uint256",
							"name": "",
							"type": "uint256"
						}
					],
					"stateMutability": "view",
					"type": "function"
				},
				{
					"inputs": [
						{
							"internalType": "address",
							"name": "spender",
							"type": "address"
						},
						{
							"internalType": "uint256",
							"name": "amount",
							"type": "uint256"
						}
					],
					"name": "approve",
					"outputs": [
						{
							"internalType": "bool",
							"name": "",
							"type": "bool"
						}
					],
					"stateMutability": "nonpayable",
					"type": "function"
				},
				{
					"inputs": [
						{
							"internalType": "address",
							"name": "account",
							"type": "address"
						}
					],
					"name": "balanceOf",
					"outputs": [
						{
							"internalType": "uint256",
							"name": "",
							"type": "uint256"
						}
					],
					"stateMutability": "view",
					"type": "function"
				},
				{
					"inputs": [
						{
							"internalType": "address",
							"name": "_user",
							"type": "address"
						}
					],
					"name": "blackList",
					"outputs": [],
					"stateMutability": "nonpayable",
					"type": "function"
				},
				{
					"inputs": [
						{
							"internalType": "uint256",
							"name": "amount",
							"type": "uint256"
						}
					],
					"name": "burn",
					"outputs": [
						{
							"internalType": "bool",
							"name": "",
							"type": "bool"
						}
					],
					"stateMutability": "nonpayable",
					"type": "function"
				},
				{
					"inputs": [],
					"name": "decimals",
					"outputs": [
						{
							"internalType": "uint8",
							"name": "",
							"type": "uint8"
						}
					],
					"stateMutability": "view",
					"type": "function"
				},
				{
					"inputs": [
						{
							"internalType": "address",
							"name": "spender",
							"type": "address"
						},
						{
							"internalType": "uint256",
							"name": "subtractedValue",
							"type": "uint256"
						}
					],
					"name": "decreaseAllowance",
					"outputs": [
						{
							"internalType": "bool",
							"name": "",
							"type": "bool"
						}
					],
					"stateMutability": "nonpayable",
					"type": "function"
				},
				{
					"inputs": [],
					"name": "getOwner",
					"outputs": [
						{
							"internalType": "address",
							"name": "",
							"type": "address"
						}
					],
					"stateMutability": "view",
					"type": "function"
				},
				{
					"inputs": [
						{
							"internalType": "address",
							"name": "spender",
							"type": "address"
						},
						{
							"internalType": "uint256",
							"name": "addedValue",
							"type": "uint256"
						}
					],
					"name": "increaseAllowance",
					"outputs": [
						{
							"internalType": "bool",
							"name": "",
							"type": "bool"
						}
					],
					"stateMutability": "nonpayable",
					"type": "function"
				},
				{
					"inputs": [
						{
							"internalType": "string",
							"name": "name",
							"type": "string"
						},
						{
							"internalType": "string",
							"name": "symbol",
							"type": "string"
						},
						{
							"internalType": "uint8",
							"name": "decimals",
							"type": "uint8"
						},
						{
							"internalType": "uint256",
							"name": "amount",
							"type": "uint256"
						},
						{
							"internalType": "bool",
							"name": "mintable",
							"type": "bool"
						},
						{
							"internalType": "address",
							"name": "owner",
							"type": "address"
						}
					],
					"name": "initialize",
					"outputs": [],
					"stateMutability": "nonpayable",
					"type": "function"
				},
				{
					"inputs": [
						{
							"internalType": "uint256",
							"name": "amount",
							"type": "uint256"
						}
					],
					"name": "mint",
					"outputs": [
						{
							"internalType": "bool",
							"name": "",
							"type": "bool"
						}
					],
					"stateMutability": "nonpayable",
					"type": "function"
				},
				{
					"inputs": [],
					"name": "mintable",
					"outputs": [
						{
							"internalType": "bool",
							"name": "",
							"type": "bool"
						}
					],
					"stateMutability": "view",
					"type": "function"
				},
				{
					"inputs": [],
					"name": "name",
					"outputs": [
						{
							"internalType": "string",
							"name": "",
							"type": "string"
						}
					],
					"stateMutability": "view",
					"type": "function"
				},
				{
					"inputs": [],
					"name": "pause",
					"outputs": [],
					"stateMutability": "nonpayable",
					"type": "function"
				},
				{
					"inputs": [
						{
							"internalType": "address",
							"name": "_user",
							"type": "address"
						}
					],
					"name": "removeFromBlacklist",
					"outputs": [],
					"stateMutability": "nonpayable",
					"type": "function"
				},
				{
					"inputs": [],
					"name": "renounceOwnership",
					"outputs": [],
					"stateMutability": "nonpayable",
					"type": "function"
				},
				{
					"inputs": [],
					"name": "symbol",
					"outputs": [
						{
							"internalType": "string",
							"name": "",
							"type": "string"
						}
					],
					"stateMutability": "view",
					"type": "function"
				},
				{
					"inputs": [],
					"name": "totalSupply",
					"outputs": [
						{
							"internalType": "uint256",
							"name": "",
							"type": "uint256"
						}
					],
					"stateMutability": "view",
					"type": "function"
				},
				{
					"inputs": [
						{
							"internalType": "address",
							"name": "recipient",
							"type": "address"
						},
						{
							"internalType": "uint256",
							"name": "amount",
							"type": "uint256"
						}
					],
					"name": "transfer",
					"outputs": [
						{
							"internalType": "bool",
							"name": "",
							"type": "bool"
						}
					],
					"stateMutability": "nonpayable",
					"type": "function"
				},
				{
					"inputs": [
						{
							"internalType": "address",
							"name": "sender",
							"type": "address"
						},
						{
							"internalType": "address",
							"name": "recipient",
							"type": "address"
						},
						{
							"internalType": "uint256",
							"name": "amount",
							"type": "uint256"
						}
					],
					"name": "transferFrom",
					"outputs": [
						{
							"internalType": "bool",
							"name": "",
							"type": "bool"
						}
					],
					"stateMutability": "nonpayable",
					"type": "function"
				},
				{
					"inputs": [
						{
							"internalType": "address",
							"name": "newOwner",
							"type": "address"
						}
					],
					"name": "transferOwnership",
					"outputs": [],
					"stateMutability": "nonpayable",
					"type": "function"
				},
				{
					"inputs": [],
					"name": "unpause",
					"outputs": [],
					"stateMutability": "nonpayable",
					"type": "function"
				}
			],
			"devdoc": {
				"methods": {
					"allowance(address,address)": {
						"details": "See {BEP20-allowance}."
					},
					"approve(address,uint256)": {
						"details": "See {BEP20-approve}.     * Requirements:     * - `spender` cannot be the zero address."
					},
					"balanceOf(address)": {
						"details": "See {BEP20-balanceOf}."
					},
					"burn(uint256)": {
						"details": "Burn `amount` tokens and decreasing the total supply."
					},
					"decimals()": {
						"details": "Returns the token decimals."
					},
					"decreaseAllowance(address,uint256)": {
						"details": "Atomically decreases the allowance granted to `spender` by the caller.     * This is an alternative to {approve} that can be used as a mitigation for problems described in {BEP20-approve}.     * Emits an {Approval} event indicating the updated allowance.     * Requirements:     * - `spender` cannot be the zero address. - `spender` must have allowance for the caller of at least `subtractedValue`."
					},
					"getOwner()": {
						"details": "Returns the bep token owner."
					},
					"increaseAllowance(address,uint256)": {
						"details": "Atomically increases the allowance granted to `spender` by the caller.     * This is an alternative to {approve} that can be used as a mitigation for problems described in {BEP20-approve}.     * Emits an {Approval} event indicating the updated allowance.     * Requirements:     * - `spender` cannot be the zero address."
					},
					"initialize(string,string,uint8,uint256,bool,address)": {
						"details": "sets initials supply and the owner"
					},
					"mint(uint256)": {
						"details": "Creates `amount` tokens and assigns them to `msg.sender`, increasing the total supply.     * Requirements     * - `msg.sender` must be the token owner - `_mintable` must be true"
					},
					"mintable()": {
						"details": "Returns if the token is mintable or not"
					},
					"name()": {
						"details": "Returns the token name."
					},
					"renounceOwnership()": {
						"details": "Leaves the contract without owner. It will not be possible to call `onlyOwner` functions anymore. Can only be called by the current owner.    * NOTE: Renouncing ownership will leave the contract without an owner, thereby removing any functionality that is only available to the owner."
					},
					"symbol()": {
						"details": "Returns the token symbol."
					},
					"totalSupply()": {
						"details": "See {BEP20-totalSupply}."
					},
					"transfer(address,uint256)": {
						"details": "See {BEP20-transfer}.     * Requirements:     * - `recipient` cannot be the zero address. - the caller must have a balance of at least `amount`."
					},
					"transferFrom(address,address,uint256)": {
						"details": "See {BEP20-transferFrom}.     * Emits an {Approval} event indicating the updated allowance. This is not required by the EIP. See the note at the beginning of {BEP20};     * Requirements: - `sender` and `recipient` cannot be the zero address. - `sender` must have a balance of at least `amount`. - the caller must have allowance for `sender`'s tokens of at least `amount`."
					},
					"transferOwnership(address)": {
						"details": "Transfers ownership of the contract to a new account (`newOwner`). Can only be called by the current owner."
					}
				}
			},
			"evm": {
				"assembly": "    /* \"github/bnb-chain/canonical-upgradeable-bep20/contracts/BEP20TokenImplementation.sol\":233:11262  contract BEP20TokenImplementation is Context, IBEP20, Initializable {... */\n  mstore(0x40, 0x80)\n    /* \"github/bnb-chain/canonical-upgradeable-bep20/contracts/BEP20TokenImplementation.sol\":759:787  constructor() public {... */\n  callvalue\n    /* \"--CODEGEN--\":5:14   */\n  dup1\n    /* \"--CODEGEN--\":2:4   */\n  iszero\n  tag_1\n  jumpi\n    /* \"--CODEGEN--\":27:28   */\n  0x00\n    /* \"--CODEGEN--\":24:25   */\n  dup1\n    /* \"--CODEGEN--\":17:29   */\n  revert\n    /* \"--CODEGEN--\":2:4   */\ntag_1:\n    /* \"github/bnb-chain/canonical-upgradeable-bep20/contracts/BEP20TokenImplementation.sol\":759:787  constructor() public {... */\n  pop\n    /* \"github/bnb-chain/canonical-upgradeable-bep20/contracts/BEP20TokenImplementation.sol\":233:11262  contract BEP20TokenImplementation is Context, IBEP20, Initializable {... */\n  dataSize(sub_0)\n  dup1\n  dataOffset(sub_0)\n  0x00\n  codecopy\n  0x00\n  return\nstop\n\nsub_0: assembly {\n        /* \"github/bnb-chain/canonical-upgradeable-bep20/contracts/BEP20TokenImplementation.sol\":233:11262  contract BEP20TokenImplementation is Context, IBEP20, Initializable {... */\n      mstore(0x40, 0x80)\n      callvalue\n        /* \"--CODEGEN--\":5:14   */\n      dup1\n        /* \"--CODEGEN--\":2:4   */\n      iszero\n      tag_1\n      jumpi\n        /* \"--CODEGEN--\":27:28   */\n      0x00\n        /* \"--CODEGEN--\":24:25   */\n      dup1\n        /* \"--CODEGEN--\":17:29   */\n      revert\n        /* \"--CODEGEN--\":2:4   */\n    tag_1:\n        /* \"github/bnb-chain/canonical-upgradeable-bep20/contracts/BEP20TokenImplementation.sol\":233:11262  contract BEP20TokenImplementation is Context, IBEP20, Initializable {... */\n      pop\n      jumpi(tag_2, lt(calldatasize, 0x04))\n      shr(0xe0, calldataload(0x00))\n      dup1\n      0x70a08231\n      gt\n      tag_25\n      jumpi\n      dup1\n      0xa0712d68\n      gt\n      tag_26\n      jumpi\n      dup1\n      0xa0712d68\n      eq\n      tag_19\n      jumpi\n      dup1\n      0xa457c2d7\n      eq\n      tag_20\n      jumpi\n      dup1\n      0xa9059cbb\n      eq\n      tag_21\n      jumpi\n      dup1\n      0xdd62ed3e\n      eq\n      tag_22\n      jumpi\n      dup1\n      0xef3ebcb8\n      eq\n      tag_23\n      jumpi\n      dup1\n      0xf2fde38b\n      eq\n      tag_24\n      jumpi\n      jump(tag_2)\n    tag_26:\n      dup1\n      0x70a08231\n      eq\n      tag_14\n      jumpi\n      dup1\n      0x715018a6\n      eq\n      tag_15\n      jumpi\n      dup1\n      0x8456cb59\n      eq\n      tag_16\n      jumpi\n      dup1\n      0x893d20e8\n      eq\n      tag_17\n      jumpi\n      dup1\n      0x95d89b41\n      eq\n      tag_18\n      jumpi\n      jump(tag_2)\n    tag_25:\n      dup1\n      0x39509351\n      gt\n      tag_27\n      jumpi\n      dup1\n      0x39509351\n      eq\n      tag_8\n      jumpi\n      dup1\n      0x3f4ba83a\n      eq\n      tag_9\n      jumpi\n      dup1\n      0x42966c68\n      eq\n      tag_10\n      jumpi\n      dup1\n      0x4838d165\n      eq\n      tag_11\n      jumpi\n      dup1\n      0x4bf365df\n      eq\n      tag_12\n      jumpi\n      dup1\n      0x537df3b6\n      eq\n      tag_13\n      jumpi\n      jump(tag_2)\n    tag_27:\n      dup1\n      0x06fdde03\n      eq\n      tag_3\n      jumpi\n      dup1\n      0x095ea7b3\n      eq\n      tag_4\n      jumpi\n      dup1\n      0x18160ddd\n      eq\n      tag_5\n      jumpi\n      dup1\n      0x23b872dd\n      eq\n      tag_6\n      jumpi\n      dup1\n      0x313ce567\n      eq\n      tag_7\n      jumpi\n    tag_2:\n        /* \"--CODEGEN--\":12:13   */\n      0x00\n        /* \"--CODEGEN--\":9:10   */\n      dup1\n        /* \"--CODEGEN--\":2:14   */\n      revert\n        /* \"github/bnb-chain/canonical-upgradeable-bep20/contracts/BEP20TokenImplementation.sol\":2945:3037  function name() external override view returns (string memory) {... */\n    tag_3:\n      tag_28\n      tag_29\n      jump\t// in\n    tag_28:\n      mload(0x40)\n      dup1\n      dup1\n      0x20\n      add\n      dup3\n      dup2\n      sub\n      dup3\n      mstore\n      dup4\n      dup2\n      dup2\n      mload\n      dup2\n      mstore\n      0x20\n      add\n      swap2\n      pop\n      dup1\n      mload\n      swap1\n      0x20\n      add\n      swap1\n      dup1\n      dup4\n      dup4\n        /* \"--CODEGEN--\":23:24   */\n      0x00\n        /* \"--CODEGEN--\":8:108   */\n    tag_30:\n        /* \"--CODEGEN--\":33:36   */\n      dup4\n        /* \"--CODEGEN--\":30:31   */\n      dup2\n        /* \"--CODEGEN--\":27:37   */\n      lt\n        /* \"--CODEGEN--\":8:108   */\n      iszero\n      tag_32\n      jumpi\n        /* \"--CODEGEN--\":99:100   */\n      dup1\n        /* \"--CODEGEN--\":94:97   */\n      dup3\n        /* \"--CODEGEN--\":90:101   */\n      add\n        /* \"--CODEGEN--\":84:102   */\n      mload\n        /* \"--CODEGEN--\":80:81   */\n      dup2\n        /* \"--CODEGEN--\":75:78   */\n      dup5\n        /* \"--CODEGEN--\":71:82   */\n      add\n        /* \"--CODEGEN--\":64:103   */\n      mstore\n        /* \"--CODEGEN--\":52:54   */\n      0x20\n        /* \"--CODEGEN--\":49:50   */\n      dup2\n        /* \"--CODEGEN--\":45:55   */\n      add\n        /* \"--CODEGEN--\":40:55   */\n      swap1\n      pop\n        /* \"--CODEGEN--\":8:108   */\n      jump(tag_30)\n    tag_32:\n        /* \"--CODEGEN--\":12:26   */\n      pop\n        /* \"github/bnb-chain/canonical-upgradeable-bep20/contracts/BEP20TokenImplementation.sol\":2945:3037  function name() external override view returns (string memory) {... */\n      pop\n      pop\n      pop\n      swap1\n      pop\n      swap1\n      dup2\n      add\n      swap1\n      0x1f\n      and\n      dup1\n      iszero\n      tag_33\n      jumpi\n      dup1\n      dup3\n      sub\n      dup1\n      mload\n      0x01\n      dup4\n      0x20\n      sub\n      0x0100\n      exp\n      sub\n      not\n      and\n      dup2\n      mstore\n      0x20\n      add\n      swap2\n      pop\n    tag_33:\n      pop\n      swap3\n      pop\n      pop\n      pop\n      mload(0x40)\n      dup1\n      swap2\n      sub\n      swap1\n      return\n        /* \"github/bnb-chain/canonical-upgradeable-bep20/contracts/BEP20TokenImplementation.sol\":4077:4237  function approve(address spender, uint256 amount) external override returns (bool) {... */\n    tag_4:\n      tag_34\n      0x04\n      dup1\n      calldatasize\n      sub\n        /* \"--CODEGEN--\":15:17   */\n      0x40\n        /* \"--CODEGEN--\":10:13   */\n      dup2\n        /* \"--CODEGEN--\":7:18   */\n      lt\n        /* \"--CODEGEN--\":4:6   */\n      iszero\n      tag_35\n      jumpi\n        /* \"--CODEGEN--\":31:32   */\n      0x00\n        /* \"--CODEGEN--\":28:29   */\n      dup1\n        /* \"--CODEGEN--\":21:33   */\n      revert\n        /* \"--CODEGEN--\":4:6   */\n    tag_35:\n        /* \"github/bnb-chain/canonical-upgradeable-bep20/contracts/BEP20TokenImplementation.sol\":4077:4237  function approve(address spender, uint256 amount) external override returns (bool) {... */\n      dup2\n      add\n      swap1\n      dup1\n      dup1\n      calldataload\n      0xffffffffffffffffffffffffffffffffffffffff\n      and\n      swap1\n      0x20\n      add\n      swap1\n      swap3\n      swap2\n      swap1\n      dup1\n      calldataload\n      swap1\n      0x20\n      add\n      swap1\n      swap3\n      swap2\n      swap1\n      pop\n      pop\n      pop\n      tag_36\n      jump\t// in\n    tag_34:\n      mload(0x40)\n      dup1\n      dup3\n      iszero\n      iszero\n      iszero\n      iszero\n      dup2\n      mstore\n      0x20\n      add\n      swap2\n      pop\n      pop\n      mload(0x40)\n      dup1\n      swap2\n      sub\n      swap1\n      return\n        /* \"github/bnb-chain/canonical-upgradeable-bep20/contracts/BEP20TokenImplementation.sol\":3096:3196  function totalSupply() external override view returns (uint256) {... */\n    tag_5:\n      tag_37\n      tag_38\n      jump\t// in\n    tag_37:\n      mload(0x40)\n      dup1\n      dup3\n      dup2\n      mstore\n      0x20\n      add\n      swap2\n      pop\n      pop\n      mload(0x40)\n      dup1\n      swap2\n      sub\n      swap1\n      return\n        /* \"github/bnb-chain/canonical-upgradeable-bep20/contracts/BEP20TokenImplementation.sol\":4694:5005  function transferFrom(address sender, address recipient, uint256 amount) external override returns (bool) {... */\n    tag_6:\n      tag_39\n      0x04\n      dup1\n      calldatasize\n      sub\n        /* \"--CODEGEN--\":15:17   */\n      0x60\n        /* \"--CODEGEN--\":10:13   */\n      dup2\n        /* \"--CODEGEN--\":7:18   */\n      lt\n        /* \"--CODEGEN--\":4:6   */\n      iszero\n      tag_40\n      jumpi\n        /* \"--CODEGEN--\":31:32   */\n      0x00\n        /* \"--CODEGEN--\":28:29   */\n      dup1\n        /* \"--CODEGEN--\":21:33   */\n      revert\n        /* \"--CODEGEN--\":4:6   */\n    tag_40:\n        /* \"github/bnb-chain/canonical-upgradeable-bep20/contracts/BEP20TokenImplementation.sol\":4694:5005  function transferFrom(address sender, address recipient, uint256 amount) external override returns (bool) {... */\n      dup2\n      add\n      swap1\n      dup1\n      dup1\n      calldataload\n      0xffffffffffffffffffffffffffffffffffffffff\n      and\n      swap1\n      0x20\n      add\n      swap1\n      swap3\n      swap2\n      swap1\n      dup1\n      calldataload\n      0xffffffffffffffffffffffffffffffffffffffff\n      and\n      swap1\n      0x20\n      add\n      swap1\n      swap3\n      swap2\n      swap1\n      dup1\n      calldataload\n      swap1\n      0x20\n      add\n      swap1\n      swap3\n      swap2\n      swap1\n      pop\n      pop\n      pop\n      tag_41\n      jump\t// in\n    tag_39:\n      mload(0x40)\n      dup1\n      dup3\n      iszero\n      iszero\n      iszero\n      iszero\n      dup2\n      mstore\n      0x20\n      add\n      swap2\n      pop\n      pop\n      mload(0x40)\n      dup1\n      swap2\n      sub\n      swap1\n      return\n        /* \"github/bnb-chain/canonical-upgradeable-bep20/contracts/BEP20TokenImplementation.sol\":2641:2733  function decimals() external override view returns (uint8) {... */\n    tag_7:\n      tag_42\n      tag_43\n      jump\t// in\n    tag_42:\n      mload(0x40)\n      dup1\n      dup3\n      0xff\n      and\n      0xff\n      and\n      dup2\n      mstore\n      0x20\n      add\n      swap2\n      pop\n      pop\n      mload(0x40)\n      dup1\n      swap2\n      sub\n      swap1\n      return\n        /* \"github/bnb-chain/canonical-upgradeable-bep20/contracts/BEP20TokenImplementation.sol\":5399:5606  function increaseAllowance(address spender, uint256 addedValue) public returns (bool) {... */\n    tag_8:\n      tag_44\n      0x04\n      dup1\n      calldatasize\n      sub\n        /* \"--CODEGEN--\":15:17   */\n      0x40\n        /* \"--CODEGEN--\":10:13   */\n      dup2\n        /* \"--CODEGEN--\":7:18   */\n      lt\n        /* \"--CODEGEN--\":4:6   */\n      iszero\n      tag_45\n      jumpi\n        /* \"--CODEGEN--\":31:32   */\n      0x00\n        /* \"--CODEGEN--\":28:29   */\n      dup1\n        /* \"--CODEGEN--\":21:33   */\n      revert\n        /* \"--CODEGEN--\":4:6   */\n    tag_45:\n        /* \"github/bnb-chain/canonical-upgradeable-bep20/contracts/BEP20TokenImplementation.sol\":5399:5606  function increaseAllowance(address spender, uint256 addedValue) public returns (bool) {... */\n      dup2\n      add\n      swap1\n      dup1\n      dup1\n      calldataload\n      0xffffffffffffffffffffffffffffffffffffffff\n      and\n      swap1\n      0x20\n      add\n      swap1\n      swap3\n      swap2\n      swap1\n      dup1\n      calldataload\n      swap1\n      0x20\n      add\n      swap1\n      swap3\n      swap2\n      swap1\n      pop\n      pop\n      pop\n      tag_46\n      jump\t// in\n    tag_44:\n      mload(0x40)\n      dup1\n      dup3\n      iszero\n      iszero\n      iszero\n      iszero\n      dup2\n      mstore\n      0x20\n      add\n      swap2\n      pop\n      pop\n      mload(0x40)\n      dup1\n      swap2\n      sub\n      swap1\n      return\n        /* \"github/bnb-chain/canonical-upgradeable-bep20/contracts/BEP20TokenImplementation.sol\":11106:11260  function unpause() public onlyOwner {... */\n    tag_9:\n      tag_47\n      tag_48\n      jump\t// in\n    tag_47:\n      stop\n        /* \"github/bnb-chain/canonical-upgradeable-bep20/contracts/BEP20TokenImplementation.sol\":6861:6978  function burn(uint256 amount) public returns (bool) {... */\n    tag_10:\n      tag_49\n      0x04\n      dup1\n      calldatasize\n      sub\n        /* \"--CODEGEN--\":15:17   */\n      0x20\n        /* \"--CODEGEN--\":10:13   */\n      dup2\n        /* \"--CODEGEN--\":7:18   */\n      lt\n        /* \"--CODEGEN--\":4:6   */\n      iszero\n      tag_50\n      jumpi\n        /* \"--CODEGEN--\":31:32   */\n      0x00\n        /* \"--CODEGEN--\":28:29   */\n      dup1\n        /* \"--CODEGEN--\":21:33   */\n      revert\n        /* \"--CODEGEN--\":4:6   */\n    tag_50:\n        /* \"github/bnb-chain/canonical-upgradeable-bep20/contracts/BEP20TokenImplementation.sol\":6861:6978  function burn(uint256 amount) public returns (bool) {... */\n      dup2\n      add\n      swap1\n      dup1\n      dup1\n      calldataload\n      swap1\n      0x20\n      add\n      swap1\n      swap3\n      swap2\n      swap1\n      pop\n      pop\n      pop\n      tag_51\n      jump\t// in\n    tag_49:\n      mload(0x40)\n      dup1\n      dup3\n      iszero\n      iszero\n      iszero\n      iszero\n      dup2\n      mstore\n      0x20\n      add\n      swap2\n      pop\n      pop\n      mload(0x40)\n      dup1\n      swap2\n      sub\n      swap1\n      return\n        /* \"github/bnb-chain/canonical-upgradeable-bep20/contracts/BEP20TokenImplementation.sol\":10534:10728  function blackList(address _user) public onlyOwner {... */\n    tag_11:\n      tag_52\n      0x04\n      dup1\n      calldatasize\n      sub\n        /* \"--CODEGEN--\":15:17   */\n      0x20\n        /* \"--CODEGEN--\":10:13   */\n      dup2\n        /* \"--CODEGEN--\":7:18   */\n      lt\n        /* \"--CODEGEN--\":4:6   */\n      iszero\n      tag_53\n      jumpi\n        /* \"--CODEGEN--\":31:32   */\n      0x00\n        /* \"--CODEGEN--\":28:29   */\n      dup1\n        /* \"--CODEGEN--\":21:33   */\n      revert\n        /* \"--CODEGEN--\":4:6   */\n    tag_53:\n        /* \"github/bnb-chain/canonical-upgradeable-bep20/contracts/BEP20TokenImplementation.sol\":10534:10728  function blackList(address _user) public onlyOwner {... */\n      dup2\n      add\n      swap1\n      dup1\n      dup1\n      calldataload\n      0xffffffffffffffffffffffffffffffffffffffff\n      and\n      swap1\n      0x20\n      add\n      swap1\n      swap3\n      swap2\n      swap1\n      pop\n      pop\n      pop\n      tag_54\n      jump\t// in\n    tag_52:\n      stop\n        /* \"github/bnb-chain/canonical-upgradeable-bep20/contracts/BEP20TokenImplementation.sol\":2343:2425  function mintable() external view returns (bool) {... */\n    tag_12:\n      tag_55\n      tag_56\n      jump\t// in\n    tag_55:\n      mload(0x40)\n      dup1\n      dup3\n      iszero\n      iszero\n      iszero\n      iszero\n      dup2\n      mstore\n      0x20\n      add\n      swap2\n      pop\n      pop\n      mload(0x40)\n      dup1\n      swap2\n      sub\n      swap1\n      return\n        /* \"github/bnb-chain/canonical-upgradeable-bep20/contracts/BEP20TokenImplementation.sol\":10738:10942  function removeFromBlacklist(address _user) public onlyOwner {... */\n    tag_13:\n      tag_57\n      0x04\n      dup1\n      calldatasize\n      sub\n        /* \"--CODEGEN--\":15:17   */\n      0x20\n        /* \"--CODEGEN--\":10:13   */\n      dup2\n        /* \"--CODEGEN--\":7:18   */\n      lt\n        /* \"--CODEGEN--\":4:6   */\n      iszero\n      tag_58\n      jumpi\n        /* \"--CODEGEN--\":31:32   */\n      0x00\n        /* \"--CODEGEN--\":28:29   */\n      dup1\n        /* \"--CODEGEN--\":21:33   */\n      revert\n        /* \"--CODEGEN--\":4:6   */\n    tag_58:\n        /* \"github/bnb-chain/canonical-upgradeable-bep20/contracts/BEP20TokenImplementation.sol\":10738:10942  function removeFromBlacklist(address _user) public onlyOwner {... */\n      dup2\n      add\n      swap1\n      dup1\n      dup1\n      calldataload\n      0xffffffffffffffffffffffffffffffffffffffff\n      and\n      swap1\n      0x20\n      add\n      swap1\n      swap3\n      swap2\n      swap1\n      pop\n      pop\n      pop\n      tag_59\n      jump\t// in\n    tag_57:\n      stop\n        /* \"github/bnb-chain/canonical-upgradeable-bep20/contracts/BEP20TokenImplementation.sol\":3253:3372  function balanceOf(address account) external override view returns (uint256) {... */\n    tag_14:\n      tag_60\n      0x04\n      dup1\n      calldatasize\n      sub\n        /* \"--CODEGEN--\":15:17   */\n      0x20\n        /* \"--CODEGEN--\":10:13   */\n      dup2\n        /* \"--CODEGEN--\":7:18   */\n      lt\n        /* \"--CODEGEN--\":4:6   */\n      iszero\n      tag_61\n      jumpi\n        /* \"--CODEGEN--\":31:32   */\n      0x00\n        /* \"--CODEGEN--\":28:29   */\n      dup1\n        /* \"--CODEGEN--\":21:33   */\n      revert\n        /* \"--CODEGEN--\":4:6   */\n    tag_61:\n        /* \"github/bnb-chain/canonical-upgradeable-bep20/contracts/BEP20TokenImplementation.sol\":3253:3372  function balanceOf(address account) external override view returns (uint256) {... */\n      dup2\n      add\n      swap1\n      dup1\n      dup1\n      calldataload\n      0xffffffffffffffffffffffffffffffffffffffff\n      and\n      swap1\n      0x20\n      add\n      swap1\n      swap3\n      swap2\n      swap1\n      pop\n      pop\n      pop\n      tag_62\n      jump\t// in\n    tag_60:\n      mload(0x40)\n      dup1\n      dup3\n      dup2\n      mstore\n      0x20\n      add\n      swap2\n      pop\n      pop\n      mload(0x40)\n      dup1\n      swap2\n      sub\n      swap1\n      return\n        /* \"github/bnb-chain/canonical-upgradeable-bep20/contracts/BEP20TokenImplementation.sol\":1751:1888  function renounceOwnership() public onlyOwner {... */\n    tag_15:\n      tag_63\n      tag_64\n      jump\t// in\n    tag_63:\n      stop\n        /* \"github/bnb-chain/canonical-upgradeable-bep20/contracts/BEP20TokenImplementation.sol\":10948:11100  function pause() public onlyOwner {... */\n    tag_16:\n      tag_65\n      tag_66\n      jump\t// in\n    tag_65:\n      stop\n        /* \"github/bnb-chain/canonical-upgradeable-bep20/contracts/BEP20TokenImplementation.sol\":2488:2579  function getOwner() external override view returns (address) {... */\n    tag_17:\n      tag_67\n      tag_68\n      jump\t// in\n    tag_67:\n      mload(0x40)\n      dup1\n      dup3\n      0xffffffffffffffffffffffffffffffffffffffff\n      and\n      0xffffffffffffffffffffffffffffffffffffffff\n      and\n      dup2\n      mstore\n      0x20\n      add\n      swap2\n      pop\n      pop\n      mload(0x40)\n      dup1\n      swap2\n      sub\n      swap1\n      return\n        /* \"github/bnb-chain/canonical-upgradeable-bep20/contracts/BEP20TokenImplementation.sol\":2793:2889  function symbol() external override view returns (string memory) {... */\n    tag_18:\n      tag_69\n      tag_70\n      jump\t// in\n    tag_69:\n      mload(0x40)\n      dup1\n      dup1\n      0x20\n      add\n      dup3\n      dup2\n      sub\n      dup3\n      mstore\n      dup4\n      dup2\n      dup2\n      mload\n      dup2\n      mstore\n      0x20\n      add\n      swap2\n      pop\n      dup1\n      mload\n      swap1\n      0x20\n      add\n      swap1\n      dup1\n      dup4\n      dup4\n        /* \"--CODEGEN--\":23:24   */\n      0x00\n        /* \"--CODEGEN--\":8:108   */\n    tag_71:\n        /* \"--CODEGEN--\":33:36   */\n      dup4\n        /* \"--CODEGEN--\":30:31   */\n      dup2\n        /* \"--CODEGEN--\":27:37   */\n      lt\n        /* \"--CODEGEN--\":8:108   */\n      iszero\n      tag_73\n      jumpi\n        /* \"--CODEGEN--\":99:100   */\n      dup1\n        /* \"--CODEGEN--\":94:97   */\n      dup3\n        /* \"--CODEGEN--\":90:101   */\n      add\n        /* \"--CODEGEN--\":84:102   */\n      mload\n        /* \"--CODEGEN--\":80:81   */\n      dup2\n        /* \"--CODEGEN--\":75:78   */\n      dup5\n        /* \"--CODEGEN--\":71:82   */\n      add\n        /* \"--CODEGEN--\":64:103   */\n      mstore\n        /* \"--CODEGEN--\":52:54   */\n      0x20\n        /* \"--CODEGEN--\":49:50   */\n      dup2\n        /* \"--CODEGEN--\":45:55   */\n      add\n        /* \"--CODEGEN--\":40:55   */\n      swap1\n      pop\n        /* \"--CODEGEN--\":8:108   */\n      jump(tag_71)\n    tag_73:\n        /* \"--CODEGEN--\":12:26   */\n      pop\n        /* \"github/bnb-chain/canonical-upgradeable-bep20/contracts/BEP20TokenImplementation.sol\":2793:2889  function symbol() external override view returns (string memory) {... */\n      pop\n      pop\n      pop\n      swap1\n      pop\n      swap1\n      dup2\n      add\n      swap1\n      0x1f\n      and\n      dup1\n      iszero\n      tag_74\n      jumpi\n      dup1\n      dup3\n      sub\n      dup1\n      mload\n      0x01\n      dup4\n      0x20\n      sub\n      0x0100\n      exp\n      sub\n      not\n      and\n      dup2\n      mstore\n      0x20\n      add\n      swap2\n      pop\n    tag_74:\n      pop\n      swap3\n      pop\n      pop\n      pop\n      mload(0x40)\n      dup1\n      swap2\n      sub\n      swap1\n      return\n        /* \"github/bnb-chain/canonical-upgradeable-bep20/contracts/BEP20TokenImplementation.sol\":6592:6777  function mint(uint256 amount) public onlyOwner returns (bool) {... */\n    tag_19:\n      tag_75\n      0x04\n      dup1\n      calldatasize\n      sub\n        /* \"--CODEGEN--\":15:17   */\n      0x20\n        /* \"--CODEGEN--\":10:13   */\n      dup2\n        /* \"--CODEGEN--\":7:18   */\n      lt\n        /* \"--CODEGEN--\":4:6   */\n      iszero\n      tag_76\n      jumpi\n        /* \"--CODEGEN--\":31:32   */\n      0x00\n        /* \"--CODEGEN--\":28:29   */\n      dup1\n        /* \"--CODEGEN--\":21:33   */\n      revert\n        /* \"--CODEGEN--\":4:6   */\n    tag_76:\n        /* \"github/bnb-chain/canonical-upgradeable-bep20/contracts/BEP20TokenImplementation.sol\":6592:6777  function mint(uint256 amount) public onlyOwner returns (bool) {... */\n      dup2\n      add\n      swap1\n      dup1\n      dup1\n      calldataload\n      swap1\n      0x20\n      add\n      swap1\n      swap3\n      swap2\n      swap1\n      pop\n      pop\n      pop\n      tag_77\n      jump\t// in\n    tag_75:\n      mload(0x40)\n      dup1\n      dup3\n      iszero\n      iszero\n      iszero\n      iszero\n      dup2\n      mstore\n      0x20\n      add\n      swap2\n      pop\n      pop\n      mload(0x40)\n      dup1\n      swap2\n      sub\n      swap1\n      return\n        /* \"github/bnb-chain/canonical-upgradeable-bep20/contracts/BEP20TokenImplementation.sol\":6092:6350  function decreaseAllowance(address spender, uint256 subtractedValue) public returns (bool) {... */\n    tag_20:\n      tag_78\n      0x04\n      dup1\n      calldatasize\n      sub\n        /* \"--CODEGEN--\":15:17   */\n      0x40\n        /* \"--CODEGEN--\":10:13   */\n      dup2\n        /* \"--CODEGEN--\":7:18   */\n      lt\n        /* \"--CODEGEN--\":4:6   */\n      iszero\n      tag_79\n      jumpi\n        /* \"--CODEGEN--\":31:32   */\n      0x00\n        /* \"--CODEGEN--\":28:29   */\n      dup1\n        /* \"--CODEGEN--\":21:33   */\n      revert\n        /* \"--CODEGEN--\":4:6   */\n    tag_79:\n        /* \"github/bnb-chain/canonical-upgradeable-bep20/contracts/BEP20TokenImplementation.sol\":6092:6350  function decreaseAllowance(address spender, uint256 subtractedValue) public returns (bool) {... */\n      dup2\n      add\n      swap1\n      dup1\n      dup1\n      calldataload\n      0xffffffffffffffffffffffffffffffffffffffff\n      and\n      swap1\n      0x20\n      add\n      swap1\n      swap3\n      swap2\n      swap1\n      dup1\n      calldataload\n      swap1\n      0x20\n      add\n      swap1\n      swap3\n      swap2\n      swap1\n      pop\n      pop\n      pop\n      tag_80\n      jump\t// in\n    tag_78:\n      mload(0x40)\n      dup1\n      dup3\n      iszero\n      iszero\n      iszero\n      iszero\n      dup2\n      mstore\n      0x20\n      add\n      swap2\n      pop\n      pop\n      mload(0x40)\n      dup1\n      swap2\n      sub\n      swap1\n      return\n        /* \"github/bnb-chain/canonical-upgradeable-bep20/contracts/BEP20TokenImplementation.sol\":3574:3740  function transfer(address recipient, uint256 amount) external override returns (bool) {... */\n    tag_21:\n      tag_81\n      0x04\n      dup1\n      calldatasize\n      sub\n        /* \"--CODEGEN--\":15:17   */\n      0x40\n        /* \"--CODEGEN--\":10:13   */\n      dup2\n        /* \"--CODEGEN--\":7:18   */\n      lt\n        /* \"--CODEGEN--\":4:6   */\n      iszero\n      tag_82\n      jumpi\n        /* \"--CODEGEN--\":31:32   */\n      0x00\n        /* \"--CODEGEN--\":28:29   */\n      dup1\n        /* \"--CODEGEN--\":21:33   */\n      revert\n        /* \"--CODEGEN--\":4:6   */\n    tag_82:\n        /* \"github/bnb-chain/canonical-upgradeable-bep20/contracts/BEP20TokenImplementation.sol\":3574:3740  function transfer(address recipient, uint256 amount) external override returns (bool) {... */\n      dup2\n      add\n      swap1\n      dup1\n      dup1\n      calldataload\n      0xffffffffffffffffffffffffffffffffffffffff\n      and\n      swap1\n      0x20\n      add\n      swap1\n      swap3\n      swap2\n      swap1\n      dup1\n      calldataload\n      swap1\n      0x20\n      add\n      swap1\n      swap3\n      swap2\n      swap1\n      pop\n      pop\n      pop\n      tag_83\n      jump\t// in\n    tag_81:\n      mload(0x40)\n      dup1\n      dup3\n      iszero\n      iszero\n      iszero\n      iszero\n      dup2\n      mstore\n      0x20\n      add\n      swap2\n      pop\n      pop\n      mload(0x40)\n      dup1\n      swap2\n      sub\n      swap1\n      return\n        /* \"github/bnb-chain/canonical-upgradeable-bep20/contracts/BEP20TokenImplementation.sol\":3797:3940  function allowance(address owner, address spender) external override view returns (uint256) {... */\n    tag_22:\n      tag_84\n      0x04\n      dup1\n      calldatasize\n      sub\n        /* \"--CODEGEN--\":15:17   */\n      0x40\n        /* \"--CODEGEN--\":10:13   */\n      dup2\n        /* \"--CODEGEN--\":7:18   */\n      lt\n        /* \"--CODEGEN--\":4:6   */\n      iszero\n      tag_85\n      jumpi\n        /* \"--CODEGEN--\":31:32   */\n      0x00\n        /* \"--CODEGEN--\":28:29   */\n      dup1\n        /* \"--CODEGEN--\":21:33   */\n      revert\n        /* \"--CODEGEN--\":4:6   */\n    tag_85:\n        /* \"github/bnb-chain/canonical-upgradeable-bep20/contracts/BEP20TokenImplementation.sol\":3797:3940  function allowance(address owner, address spender) external override view returns (uint256) {... */\n      dup2\n      add\n      swap1\n      dup1\n      dup1\n      calldataload\n      0xffffffffffffffffffffffffffffffffffffffff\n      and\n      swap1\n      0x20\n      add\n      swap1\n      swap3\n      swap2\n      swap1\n      dup1\n      calldataload\n      0xffffffffffffffffffffffffffffffffffffffff\n      and\n      swap1\n      0x20\n      add\n      swap1\n      swap3\n      swap2\n      swap1\n      pop\n      pop\n      pop\n      tag_86\n      jump\t// in\n    tag_84:\n      mload(0x40)\n      dup1\n      dup3\n      dup2\n      mstore\n      0x20\n      add\n      swap2\n      pop\n      pop\n      mload(0x40)\n      dup1\n      swap2\n      sub\n      swap1\n      return\n        /* \"github/bnb-chain/canonical-upgradeable-bep20/contracts/BEP20TokenImplementation.sol\":1103:1415  function initialize(string memory name, string memory symbol, uint8 decimals, uint256 amount, bool mintable, address owner) public initializer {... */\n    tag_23:\n      tag_87\n      0x04\n      dup1\n      calldatasize\n      sub\n        /* \"--CODEGEN--\":15:18   */\n      0xc0\n        /* \"--CODEGEN--\":10:13   */\n      dup2\n        /* \"--CODEGEN--\":7:19   */\n      lt\n        /* \"--CODEGEN--\":4:6   */\n      iszero\n      tag_88\n      jumpi\n        /* \"--CODEGEN--\":32:33   */\n      0x00\n        /* \"--CODEGEN--\":29:30   */\n      dup1\n        /* \"--CODEGEN--\":22:34   */\n      revert\n        /* \"--CODEGEN--\":4:6   */\n    tag_88:\n        /* \"github/bnb-chain/canonical-upgradeable-bep20/contracts/BEP20TokenImplementation.sol\":1103:1415  function initialize(string memory name, string memory symbol, uint8 decimals, uint256 amount, bool mintable, address owner) public initializer {... */\n      dup2\n      add\n      swap1\n      dup1\n      dup1\n      calldataload\n      swap1\n      0x20\n      add\n      swap1\n        /* \"--CODEGEN--\":27:38   */\n      0x0100000000\n        /* \"--CODEGEN--\":14:25   */\n      dup2\n        /* \"--CODEGEN--\":11:39   */\n      gt\n        /* \"--CODEGEN--\":8:10   */\n      iszero\n      tag_89\n      jumpi\n        /* \"--CODEGEN--\":52:53   */\n      0x00\n        /* \"--CODEGEN--\":49:50   */\n      dup1\n        /* \"--CODEGEN--\":42:54   */\n      revert\n        /* \"--CODEGEN--\":8:10   */\n    tag_89:\n        /* \"github/bnb-chain/canonical-upgradeable-bep20/contracts/BEP20TokenImplementation.sol\":1103:1415  function initialize(string memory name, string memory symbol, uint8 decimals, uint256 amount, bool mintable, address owner) public initializer {... */\n      dup3\n      add\n        /* \"--CODEGEN--\":41:50   */\n      dup4\n        /* \"--CODEGEN--\":34:38   */\n      0x20\n        /* \"--CODEGEN--\":18:32   */\n      dup3\n        /* \"--CODEGEN--\":14:39   */\n      add\n        /* \"--CODEGEN--\":11:51   */\n      gt\n        /* \"--CODEGEN--\":8:10   */\n      iszero\n      tag_90\n      jumpi\n        /* \"--CODEGEN--\":64:65   */\n      0x00\n        /* \"--CODEGEN--\":61:62   */\n      dup1\n        /* \"--CODEGEN--\":54:66   */\n      revert\n        /* \"--CODEGEN--\":8:10   */\n    tag_90:\n        /* \"github/bnb-chain/canonical-upgradeable-bep20/contracts/BEP20TokenImplementation.sol\":1103:1415  function initialize(string memory name, string memory symbol, uint8 decimals, uint256 amount, bool mintable, address owner) public initializer {... */\n      dup1\n      calldataload\n      swap1\n      0x20\n      add\n      swap2\n        /* \"--CODEGEN--\":100:109   */\n      dup5\n        /* \"--CODEGEN--\":95:96   */\n      0x01\n        /* \"--CODEGEN--\":81:93   */\n      dup4\n        /* \"--CODEGEN--\":77:97   */\n      mul\n        /* \"--CODEGEN--\":67:75   */\n      dup5\n        /* \"--CODEGEN--\":63:98   */\n      add\n        /* \"--CODEGEN--\":60:110   */\n      gt\n        /* \"--CODEGEN--\":39:50   */\n      0x0100000000\n        /* \"--CODEGEN--\":25:37   */\n      dup4\n        /* \"--CODEGEN--\":22:51   */\n      gt\n        /* \"--CODEGEN--\":11:118   */\n      or\n        /* \"--CODEGEN--\":8:10   */\n      iszero\n      tag_91\n      jumpi\n        /* \"--CODEGEN--\":131:132   */\n      0x00\n        /* \"--CODEGEN--\":128:129   */\n      dup1\n        /* \"--CODEGEN--\":121:133   */\n      revert\n        /* \"--CODEGEN--\":8:10   */\n    tag_91:\n        /* \"github/bnb-chain/canonical-upgradeable-bep20/contracts/BEP20TokenImplementation.sol\":1103:1415  function initialize(string memory name, string memory symbol, uint8 decimals, uint256 amount, bool mintable, address owner) public initializer {... */\n      swap2\n      swap1\n      dup1\n      dup1\n      0x1f\n      add\n      0x20\n      dup1\n      swap2\n      div\n      mul\n      0x20\n      add\n      mload(0x40)\n      swap1\n      dup2\n      add\n      0x40\n      mstore\n      dup1\n      swap4\n      swap3\n      swap2\n      swap1\n      dup2\n      dup2\n      mstore\n      0x20\n      add\n      dup4\n      dup4\n        /* \"--CODEGEN--\":30:33   */\n      dup1\n        /* \"--CODEGEN--\":22:28   */\n      dup3\n        /* \"--CODEGEN--\":14:20   */\n      dup5\n        /* \"--CODEGEN--\":1:34   */\n      calldatacopy\n        /* \"--CODEGEN--\":99:100   */\n      0x00\n        /* \"--CODEGEN--\":93:96   */\n      dup2\n        /* \"--CODEGEN--\":85:91   */\n      dup5\n        /* \"--CODEGEN--\":81:97   */\n      add\n        /* \"--CODEGEN--\":74:101   */\n      mstore\n        /* \"--CODEGEN--\":137:141   */\n      0x1f\n        /* \"--CODEGEN--\":133:142   */\n      not\n        /* \"--CODEGEN--\":126:130   */\n      0x1f\n        /* \"--CODEGEN--\":121:124   */\n      dup3\n        /* \"--CODEGEN--\":117:131   */\n      add\n        /* \"--CODEGEN--\":113:143   */\n      and\n        /* \"--CODEGEN--\":106:143   */\n      swap1\n      pop\n        /* \"--CODEGEN--\":169:172   */\n      dup1\n        /* \"--CODEGEN--\":161:167   */\n      dup4\n        /* \"--CODEGEN--\":157:173   */\n      add\n        /* \"--CODEGEN--\":147:173   */\n      swap3\n      pop\n        /* \"github/bnb-chain/canonical-upgradeable-bep20/contracts/BEP20TokenImplementation.sol\":1103:1415  function initialize(string memory name, string memory symbol, uint8 decimals, uint256 amount, bool mintable, address owner) public initializer {... */\n      pop\n      pop\n      pop\n      pop\n      pop\n      pop\n      swap2\n      swap3\n      swap2\n      swap3\n      swap1\n      dup1\n      calldataload\n      swap1\n      0x20\n      add\n      swap1\n        /* \"--CODEGEN--\":27:38   */\n      0x0100000000\n        /* \"--CODEGEN--\":14:25   */\n      dup2\n        /* \"--CODEGEN--\":11:39   */\n      gt\n        /* \"--CODEGEN--\":8:10   */\n      iszero\n      tag_92\n      jumpi\n        /* \"--CODEGEN--\":52:53   */\n      0x00\n        /* \"--CODEGEN--\":49:50   */\n      dup1\n        /* \"--CODEGEN--\":42:54   */\n      revert\n        /* \"--CODEGEN--\":8:10   */\n    tag_92:\n        /* \"github/bnb-chain/canonical-upgradeable-bep20/contracts/BEP20TokenImplementation.sol\":1103:1415  function initialize(string memory name, string memory symbol, uint8 decimals, uint256 amount, bool mintable, address owner) public initializer {... */\n      dup3\n      add\n        /* \"--CODEGEN--\":41:50   */\n      dup4\n        /* \"--CODEGEN--\":34:38   */\n      0x20\n        /* \"--CODEGEN--\":18:32   */\n      dup3\n        /* \"--CODEGEN--\":14:39   */\n      add\n        /* \"--CODEGEN--\":11:51   */\n      gt\n        /* \"--CODEGEN--\":8:10   */\n      iszero\n      tag_93\n      jumpi\n        /* \"--CODEGEN--\":64:65   */\n      0x00\n        /* \"--CODEGEN--\":61:62   */\n      dup1\n        /* \"--CODEGEN--\":54:66   */\n      revert\n        /* \"--CODEGEN--\":8:10   */\n    tag_93:\n        /* \"github/bnb-chain/canonical-upgradeable-bep20/contracts/BEP20TokenImplementation.sol\":1103:1415  function initialize(string memory name, string memory symbol, uint8 decimals, uint256 amount, bool mintable, address owner) public initializer {... */\n      dup1\n      calldataload\n      swap1\n      0x20\n      add\n      swap2\n        /* \"--CODEGEN--\":100:109   */\n      dup5\n        /* \"--CODEGEN--\":95:96   */\n      0x01\n        /* \"--CODEGEN--\":81:93   */\n      dup4\n        /* \"--CODEGEN--\":77:97   */\n      mul\n        /* \"--CODEGEN--\":67:75   */\n      dup5\n        /* \"--CODEGEN--\":63:98   */\n      add\n        /* \"--CODEGEN--\":60:110   */\n      gt\n        /* \"--CODEGEN--\":39:50   */\n      0x0100000000\n        /* \"--CODEGEN--\":25:37   */\n      dup4\n        /* \"--CODEGEN--\":22:51   */\n      gt\n        /* \"--CODEGEN--\":11:118   */\n      or\n        /* \"--CODEGEN--\":8:10   */\n      iszero\n      tag_94\n      jumpi\n        /* \"--CODEGEN--\":131:132   */\n      0x00\n        /* \"--CODEGEN--\":128:129   */\n      dup1\n        /* \"--CODEGEN--\":121:133   */\n      revert\n        /* \"--CODEGEN--\":8:10   */\n    tag_94:\n        /* \"github/bnb-chain/canonical-upgradeable-bep20/contracts/BEP20TokenImplementation.sol\":1103:1415  function initialize(string memory name, string memory symbol, uint8 decimals, uint256 amount, bool mintable, address owner) public initializer {... */\n      swap2\n      swap1\n      dup1\n      dup1\n      0x1f\n      add\n      0x20\n      dup1\n      swap2\n      div\n      mul\n      0x20\n      add\n      mload(0x40)\n      swap1\n      dup2\n      add\n      0x40\n      mstore\n      dup1\n      swap4\n      swap3\n      swap2\n      swap1\n      dup2\n      dup2\n      mstore\n      0x20\n      add\n      dup4\n      dup4\n        /* \"--CODEGEN--\":30:33   */\n      dup1\n        /* \"--CODEGEN--\":22:28   */\n      dup3\n        /* \"--CODEGEN--\":14:20   */\n      dup5\n        /* \"--CODEGEN--\":1:34   */\n      calldatacopy\n        /* \"--CODEGEN--\":99:100   */\n      0x00\n        /* \"--CODEGEN--\":93:96   */\n      dup2\n        /* \"--CODEGEN--\":85:91   */\n      dup5\n        /* \"--CODEGEN--\":81:97   */\n      add\n        /* \"--CODEGEN--\":74:101   */\n      mstore\n        /* \"--CODEGEN--\":137:141   */\n      0x1f\n        /* \"--CODEGEN--\":133:142   */\n      not\n        /* \"--CODEGEN--\":126:130   */\n      0x1f\n        /* \"--CODEGEN--\":121:124   */\n      dup3\n        /* \"--CODEGEN--\":117:131   */\n      add\n        /* \"--CODEGEN--\":113:143   */\n      and\n        /* \"--CODEGEN--\":106:143   */\n      swap1\n      pop\n        /* \"--CODEGEN--\":169:172   */\n      dup1\n        /* \"--CODEGEN--\":161:167   */\n      dup4\n        /* \"--CODEGEN--\":157:173   */\n      add\n        /* \"--CODEGEN--\":147:173   */\n      swap3\n      pop\n        /* \"github/bnb-chain/canonical-upgradeable-bep20/contracts/BEP20TokenImplementation.sol\":1103:1415  function initialize(string memory name, string memory symbol, uint8 decimals, uint256 amount, bool mintable, address owner) public initializer {... */\n      pop\n      pop\n      pop\n      pop\n      pop\n      pop\n      swap2\n      swap3\n      swap2\n      swap3\n      swap1\n      dup1\n      calldataload\n      0xff\n      and\n      swap1\n      0x20\n      add\n      swap1\n      swap3\n      swap2\n      swap1\n      dup1\n      calldataload\n      swap1\n      0x20\n      add\n      swap1\n      swap3\n      swap2\n      swap1\n      dup1\n      calldataload\n      iszero\n      iszero\n      swap1\n      0x20\n      add\n      swap1\n      swap3\n      swap2\n      swap1\n      dup1\n      calldataload\n      0xffffffffffffffffffffffffffffffffffffffff\n      and\n      swap1\n      0x20\n      add\n      swap1\n      swap3\n      swap2\n      swap1\n      pop\n      pop\n      pop\n      tag_95\n      jump\t// in\n    tag_87:\n      stop\n        /* \"github/bnb-chain/canonical-upgradeable-bep20/contracts/BEP20TokenImplementation.sol\":2037:2269  function transferOwnership(address newOwner) public onlyOwner {... */\n    tag_24:\n      tag_96\n      0x04\n      dup1\n      calldatasize\n      sub\n        /* \"--CODEGEN--\":15:17   */\n      0x20\n        /* \"--CODEGEN--\":10:13   */\n      dup2\n        /* \"--CODEGEN--\":7:18   */\n      lt\n        /* \"--CODEGEN--\":4:6   */\n      iszero\n      tag_97\n      jumpi\n        /* \"--CODEGEN--\":31:32   */\n      0x00\n        /* \"--CODEGEN--\":28:29   */\n      dup1\n        /* \"--CODEGEN--\":21:33   */\n      revert\n        /* \"--CODEGEN--\":4:6   */\n    tag_97:\n        /* \"github/bnb-chain/canonical-upgradeable-bep20/contracts/BEP20TokenImplementation.sol\":2037:2269  function transferOwnership(address newOwner) public onlyOwner {... */\n      dup2\n      add\n      swap1\n      dup1\n      dup1\n      calldataload\n      0xffffffffffffffffffffffffffffffffffffffff\n      and\n      swap1\n      0x20\n      add\n      swap1\n      swap3\n      swap2\n      swap1\n      pop\n      pop\n      pop\n      tag_98\n      jump\t// in\n    tag_96:\n      stop\n        /* \"github/bnb-chain/canonical-upgradeable-bep20/contracts/BEP20TokenImplementation.sol\":2945:3037  function name() external override view returns (string memory) {... */\n    tag_29:\n        /* \"github/bnb-chain/canonical-upgradeable-bep20/contracts/BEP20TokenImplementation.sol\":2993:3006  string memory */\n      0x60\n        /* \"github/bnb-chain/canonical-upgradeable-bep20/contracts/BEP20TokenImplementation.sol\":3025:3030  _name */\n      0x04\n        /* \"github/bnb-chain/canonical-upgradeable-bep20/contracts/BEP20TokenImplementation.sol\":3018:3030  return _name */\n      dup1\n      sload\n      0x01\n      dup2\n      0x01\n      and\n      iszero\n      0x0100\n      mul\n      sub\n      and\n      0x02\n      swap1\n      div\n      dup1\n      0x1f\n      add\n      0x20\n      dup1\n      swap2\n      div\n      mul\n      0x20\n      add\n      mload(0x40)\n      swap1\n      dup2\n      add\n      0x40\n      mstore\n      dup1\n      swap3\n      swap2\n      swap1\n      dup2\n      dup2\n      mstore\n      0x20\n      add\n      dup3\n      dup1\n      sload\n      0x01\n      dup2\n      0x01\n      and\n      iszero\n      0x0100\n      mul\n      sub\n      and\n      0x02\n      swap1\n      div\n      dup1\n      iszero\n      tag_100\n      jumpi\n      dup1\n      0x1f\n      lt\n      tag_101\n      jumpi\n      0x0100\n      dup1\n      dup4\n      sload\n      div\n      mul\n      dup4\n      mstore\n      swap2\n      0x20\n      add\n      swap2\n      jump(tag_100)\n    tag_101:\n      dup3\n      add\n      swap2\n      swap1\n      0x00\n      mstore\n      keccak256(0x00, 0x20)\n      swap1\n    tag_102:\n      dup2\n      sload\n      dup2\n      mstore\n      swap1\n      0x01\n      add\n      swap1\n      0x20\n      add\n      dup1\n      dup4\n      gt\n      tag_102\n      jumpi\n      dup3\n      swap1\n      sub\n      0x1f\n      and\n      dup3\n      add\n      swap2\n    tag_100:\n      pop\n      pop\n      pop\n      pop\n      pop\n      swap1\n      pop\n        /* \"github/bnb-chain/canonical-upgradeable-bep20/contracts/BEP20TokenImplementation.sol\":2945:3037  function name() external override view returns (string memory) {... */\n      swap1\n      jump\t// out\n        /* \"github/bnb-chain/canonical-upgradeable-bep20/contracts/BEP20TokenImplementation.sol\":4077:4237  function approve(address spender, uint256 amount) external override returns (bool) {... */\n    tag_36:\n        /* \"github/bnb-chain/canonical-upgradeable-bep20/contracts/BEP20TokenImplementation.sol\":4154:4158  bool */\n      0x00\n        /* \"github/bnb-chain/canonical-upgradeable-bep20/contracts/BEP20TokenImplementation.sol\":4170:4209  _approve(_msgSender(), spender, amount) */\n      tag_104\n        /* \"github/bnb-chain/canonical-upgradeable-bep20/contracts/BEP20TokenImplementation.sol\":4179:4191  _msgSender() */\n      tag_105\n        /* \"github/bnb-chain/canonical-upgradeable-bep20/contracts/BEP20TokenImplementation.sol\":4179:4189  _msgSender */\n      tag_106\n        /* \"github/bnb-chain/canonical-upgradeable-bep20/contracts/BEP20TokenImplementation.sol\":4179:4191  _msgSender() */\n      jump\t// in\n    tag_105:\n        /* \"github/bnb-chain/canonical-upgradeable-bep20/contracts/BEP20TokenImplementation.sol\":4193:4200  spender */\n      dup5\n        /* \"github/bnb-chain/canonical-upgradeable-bep20/contracts/BEP20TokenImplementation.sol\":4202:4208  amount */\n      dup5\n        /* \"github/bnb-chain/canonical-upgradeable-bep20/contracts/BEP20TokenImplementation.sol\":4170:4178  _approve */\n      tag_107\n        /* \"github/bnb-chain/canonical-upgradeable-bep20/contracts/BEP20TokenImplementation.sol\":4170:4209  _approve(_msgSender(), spender, amount) */\n      jump\t// in\n    tag_104:\n        /* \"github/bnb-chain/canonical-upgradeable-bep20/contracts/BEP20TokenImplementation.sol\":4226:4230  true */\n      0x01\n        /* \"github/bnb-chain/canonical-upgradeable-bep20/contracts/BEP20TokenImplementation.sol\":4219:4230  return true */\n      swap1\n      pop\n        /* \"github/bnb-chain/canonical-upgradeable-bep20/contracts/BEP20TokenImplementation.sol\":4077:4237  function approve(address spender, uint256 amount) external override returns (bool) {... */\n      swap3\n      swap2\n      pop\n      pop\n      jump\t// out\n        /* \"github/bnb-chain/canonical-upgradeable-bep20/contracts/BEP20TokenImplementation.sol\":3096:3196  function totalSupply() external override view returns (uint256) {... */\n    tag_38:\n        /* \"github/bnb-chain/canonical-upgradeable-bep20/contracts/BEP20TokenImplementation.sol\":3151:3158  uint256 */\n      0x00\n        /* \"github/bnb-chain/canonical-upgradeable-bep20/contracts/BEP20TokenImplementation.sol\":3177:3189  _totalSupply */\n      sload(0x03)\n        /* \"github/bnb-chain/canonical-upgradeable-bep20/contracts/BEP20TokenImplementation.sol\":3170:3189  return _totalSupply */\n      swap1\n      pop\n        /* \"github/bnb-chain/canonical-upgradeable-bep20/contracts/BEP20TokenImplementation.sol\":3096:3196  function totalSupply() external override view returns (uint256) {... */\n      swap1\n      jump\t// out\n        /* \"github/bnb-chain/canonical-upgradeable-bep20/contracts/BEP20TokenImplementation.sol\":4694:5005  function transferFrom(address sender, address recipient, uint256 amount) external override returns (bool) {... */\n    tag_41:\n        /* \"github/bnb-chain/canonical-upgradeable-bep20/contracts/BEP20TokenImplementation.sol\":4794:4798  bool */\n      0x00\n        /* \"github/bnb-chain/canonical-upgradeable-bep20/contracts/BEP20TokenImplementation.sol\":4810:4846  _transfer(sender, recipient, amount) */\n      tag_110\n        /* \"github/bnb-chain/canonical-upgradeable-bep20/contracts/BEP20TokenImplementation.sol\":4820:4826  sender */\n      dup5\n        /* \"github/bnb-chain/canonical-upgradeable-bep20/contracts/BEP20TokenImplementation.sol\":4828:4837  recipient */\n      dup5\n        /* \"github/bnb-chain/canonical-upgradeable-bep20/contracts/BEP20TokenImplementation.sol\":4839:4845  amount */\n      dup5\n        /* \"github/bnb-chain/canonical-upgradeable-bep20/contracts/BEP20TokenImplementation.sol\":4810:4819  _transfer */\n      tag_111\n        /* \"github/bnb-chain/canonical-upgradeable-bep20/contracts/BEP20TokenImplementation.sol\":4810:4846  _transfer(sender, recipient, amount) */\n      jump\t// in\n    tag_110:\n        /* \"github/bnb-chain/canonical-upgradeable-bep20/contracts/BEP20TokenImplementation.sol\":4856:4977  _approve(sender, _msgSender(), _allowances[sender][_msgSender()].sub(amount, \"BEP20: transfer amount exceeds allowance\")) */\n      tag_112\n        /* \"github/bnb-chain/canonical-upgradeable-bep20/contracts/BEP20TokenImplementation.sol\":4865:4871  sender */\n      dup5\n        /* \"github/bnb-chain/canonical-upgradeable-bep20/contracts/BEP20TokenImplementation.sol\":4873:4885  _msgSender() */\n      tag_113\n        /* \"github/bnb-chain/canonical-upgradeable-bep20/contracts/BEP20TokenImplementation.sol\":4873:4883  _msgSender */\n      tag_106\n        /* \"github/bnb-chain/canonical-upgradeable-bep20/contracts/BEP20TokenImplementation.sol\":4873:4885  _msgSender() */\n      jump\t// in\n    tag_113:\n        /* \"github/bnb-chain/canonical-upgradeable-bep20/contracts/BEP20TokenImplementation.sol\":4887:4976  _allowances[sender][_msgSender()].sub(amount, \"BEP20: transfer amount exceeds allowance\") */\n      tag_114\n        /* \"github/bnb-chain/canonical-upgradeable-bep20/contracts/BEP20TokenImplementation.sol\":4925:4931  amount */\n      dup6\n        /* \"github/bnb-chain/canonical-upgradeable-bep20/contracts/BEP20TokenImplementation.sol\":4887:4976  _allowances[sender][_msgSender()].sub(amount, \"BEP20: transfer amount exceeds allowance\") */\n      mload(0x40)\n      dup1\n      0x60\n      add\n      0x40\n      mstore\n      dup1\n      0x28\n      dup2\n      mstore\n      0x20\n      add\n      data_4f3506f4ba71c79c3cbd442a3afeb30e9b27af2d84e116a4385b34e267d2287e\n      0x28\n      swap2\n      codecopy\n        /* \"github/bnb-chain/canonical-upgradeable-bep20/contracts/BEP20TokenImplementation.sol\":4887:4898  _allowances */\n      0x02\n        /* \"github/bnb-chain/canonical-upgradeable-bep20/contracts/BEP20TokenImplementation.sol\":4887:4906  _allowances[sender] */\n      0x00\n        /* \"github/bnb-chain/canonical-upgradeable-bep20/contracts/BEP20TokenImplementation.sol\":4899:4905  sender */\n      dup12\n        /* \"github/bnb-chain/canonical-upgradeable-bep20/contracts/BEP20TokenImplementation.sol\":4887:4906  _allowances[sender] */\n      0xffffffffffffffffffffffffffffffffffffffff\n      and\n      0xffffffffffffffffffffffffffffffffffffffff\n      and\n      dup2\n      mstore\n      0x20\n      add\n      swap1\n      dup2\n      mstore\n      0x20\n      add\n      0x00\n      keccak256\n        /* \"github/bnb-chain/canonical-upgradeable-bep20/contracts/BEP20TokenImplementation.sol\":4887:4920  _allowances[sender][_msgSender()] */\n      0x00\n        /* \"github/bnb-chain/canonical-upgradeable-bep20/contracts/BEP20TokenImplementation.sol\":4907:4919  _msgSender() */\n      tag_115\n        /* \"github/bnb-chain/canonical-upgradeable-bep20/contracts/BEP20TokenImplementation.sol\":4907:4917  _msgSender */\n      tag_106\n        /* \"github/bnb-chain/canonical-upgradeable-bep20/contracts/BEP20TokenImplementation.sol\":4907:4919  _msgSender() */\n      jump\t// in\n    tag_115:\n        /* \"github/bnb-chain/canonical-upgradeable-bep20/contracts/BEP20TokenImplementation.sol\":4887:4920  _allowances[sender][_msgSender()] */\n      0xffffffffffffffffffffffffffffffffffffffff\n      and\n      0xffffffffffffffffffffffffffffffffffffffff\n      and\n      dup2\n      mstore\n      0x20\n      add\n      swap1\n      dup2\n      mstore\n      0x20\n      add\n      0x00\n      keccak256\n      sload\n        /* \"github/bnb-chain/canonical-upgradeable-bep20/contracts/BEP20TokenImplementation.sol\":4887:4924  _allowances[sender][_msgSender()].sub */\n      tag_116\n      swap1\n        /* \"github/bnb-chain/canonical-upgradeable-bep20/contracts/BEP20TokenImplementation.sol\":4887:4976  _allowances[sender][_msgSender()].sub(amount, \"BEP20: transfer amount exceeds allowance\") */\n      swap3\n      swap2\n      swap1\n      0xffffffff\n      and\n      jump\t// in\n    tag_114:\n        /* \"github/bnb-chain/canonical-upgradeable-bep20/contracts/BEP20TokenImplementation.sol\":4856:4864  _approve */\n      tag_107\n        /* \"github/bnb-chain/canonical-upgradeable-bep20/contracts/BEP20TokenImplementation.sol\":4856:4977  _approve(sender, _msgSender(), _allowances[sender][_msgSender()].sub(amount, \"BEP20: transfer amount exceeds allowance\")) */\n      jump\t// in\n    tag_112:\n        /* \"github/bnb-chain/canonical-upgradeable-bep20/contracts/BEP20TokenImplementation.sol\":4994:4998  true */\n      0x01\n        /* \"github/bnb-chain/canonical-upgradeable-bep20/contracts/BEP20TokenImplementation.sol\":4987:4998  return true */\n      swap1\n      pop\n        /* \"github/bnb-chain/canonical-upgradeable-bep20/contracts/BEP20TokenImplementation.sol\":4694:5005  function transferFrom(address sender, address recipient, uint256 amount) external override returns (bool) {... */\n      swap4\n      swap3\n      pop\n      pop\n      pop\n      jump\t// out\n        /* \"github/bnb-chain/canonical-upgradeable-bep20/contracts/BEP20TokenImplementation.sol\":2641:2733  function decimals() external override view returns (uint8) {... */\n    tag_43:\n        /* \"github/bnb-chain/canonical-upgradeable-bep20/contracts/BEP20TokenImplementation.sol\":2693:2698  uint8 */\n      0x00\n        /* \"github/bnb-chain/canonical-upgradeable-bep20/contracts/BEP20TokenImplementation.sol\":2717:2726  _decimals */\n      0x06\n      0x00\n      swap1\n      sload\n      swap1\n      0x0100\n      exp\n      swap1\n      div\n      0xff\n      and\n        /* \"github/bnb-chain/canonical-upgradeable-bep20/contracts/BEP20TokenImplementation.sol\":2710:2726  return _decimals */\n      swap1\n      pop\n        /* \"github/bnb-chain/canonical-upgradeable-bep20/contracts/BEP20TokenImplementation.sol\":2641:2733  function decimals() external override view returns (uint8) {... */\n      swap1\n      jump\t// out\n        /* \"github/bnb-chain/canonical-upgradeable-bep20/contracts/BEP20TokenImplementation.sol\":5399:5606  function increaseAllowance(address spender, uint256 addedValue) public returns (bool) {... */\n    tag_46:\n        /* \"github/bnb-chain/canonical-upgradeable-bep20/contracts/BEP20TokenImplementation.sol\":5479:5483  bool */\n      0x00\n        /* \"github/bnb-chain/canonical-upgradeable-bep20/contracts/BEP20TokenImplementation.sol\":5495:5578  _approve(_msgSender(), spender, _allowances[_msgSender()][spender].add(addedValue)) */\n      tag_119\n        /* \"github/bnb-chain/canonical-upgradeable-bep20/contracts/BEP20TokenImplementation.sol\":5504:5516  _msgSender() */\n      tag_120\n        /* \"github/bnb-chain/canonical-upgradeable-bep20/contracts/BEP20TokenImplementation.sol\":5504:5514  _msgSender */\n      tag_106\n        /* \"github/bnb-chain/canonical-upgradeable-bep20/contracts/BEP20TokenImplementation.sol\":5504:5516  _msgSender() */\n      jump\t// in\n    tag_120:\n        /* \"github/bnb-chain/canonical-upgradeable-bep20/contracts/BEP20TokenImplementation.sol\":5518:5525  spender */\n      dup5\n        /* \"github/bnb-chain/canonical-upgradeable-bep20/contracts/BEP20TokenImplementation.sol\":5527:5577  _allowances[_msgSender()][spender].add(addedValue) */\n      tag_121\n        /* \"github/bnb-chain/canonical-upgradeable-bep20/contracts/BEP20TokenImplementation.sol\":5566:5576  addedValue */\n      dup6\n        /* \"github/bnb-chain/canonical-upgradeable-bep20/contracts/BEP20TokenImplementation.sol\":5527:5538  _allowances */\n      0x02\n        /* \"github/bnb-chain/canonical-upgradeable-bep20/contracts/BEP20TokenImplementation.sol\":5527:5552  _allowances[_msgSender()] */\n      0x00\n        /* \"github/bnb-chain/canonical-upgradeable-bep20/contracts/BEP20TokenImplementation.sol\":5539:5551  _msgSender() */\n      tag_122\n        /* \"github/bnb-chain/canonical-upgradeable-bep20/contracts/BEP20TokenImplementation.sol\":5539:5549  _msgSender */\n      tag_106\n        /* \"github/bnb-chain/canonical-upgradeable-bep20/contracts/BEP20TokenImplementation.sol\":5539:5551  _msgSender() */\n      jump\t// in\n    tag_122:\n        /* \"github/bnb-chain/canonical-upgradeable-bep20/contracts/BEP20TokenImplementation.sol\":5527:5552  _allowances[_msgSender()] */\n      0xffffffffffffffffffffffffffffffffffffffff\n      and\n      0xffffffffffffffffffffffffffffffffffffffff\n      and\n      dup2\n      mstore\n      0x20\n      add\n      swap1\n      dup2\n      mstore\n      0x20\n      add\n      0x00\n      keccak256\n        /* \"github/bnb-chain/canonical-upgradeable-bep20/contracts/BEP20TokenImplementation.sol\":5527:5561  _allowances[_msgSender()][spender] */\n      0x00\n        /* \"github/bnb-chain/canonical-upgradeable-bep20/contracts/BEP20TokenImplementation.sol\":5553:5560  spender */\n      dup10\n        /* \"github/bnb-chain/canonical-upgradeable-bep20/contracts/BEP20TokenImplementation.sol\":5527:5561  _allowances[_msgSender()][spender] */\n      0xffffffffffffffffffffffffffffffffffffffff\n      and\n      0xffffffffffffffffffffffffffffffffffffffff\n      and\n      dup2\n      mstore\n      0x20\n      add\n      swap1\n      dup2\n      mstore\n      0x20\n      add\n      0x00\n      keccak256\n      sload\n        /* \"github/bnb-chain/canonical-upgradeable-bep20/contracts/BEP20TokenImplementation.sol\":5527:5565  _allowances[_msgSender()][spender].add */\n      tag_123\n      swap1\n        /* \"github/bnb-chain/canonical-upgradeable-bep20/contracts/BEP20TokenImplementation.sol\":5527:5577  _allowances[_msgSender()][spender].add(addedValue) */\n      swap2\n      swap1\n      0xffffffff\n      and\n      jump\t// in\n    tag_121:\n        /* \"github/bnb-chain/canonical-upgradeable-bep20/contracts/BEP20TokenImplementation.sol\":5495:5503  _approve */\n      tag_107\n        /* \"github/bnb-chain/canonical-upgradeable-bep20/contracts/BEP20TokenImplementation.sol\":5495:5578  _approve(_msgSender(), spender, _allowances[_msgSender()][spender].add(addedValue)) */\n      jump\t// in\n    tag_119:\n        /* \"github/bnb-chain/canonical-upgradeable-bep20/contracts/BEP20TokenImplementation.sol\":5595:5599  true */\n      0x01\n        /* \"github/bnb-chain/canonical-upgradeable-bep20/contracts/BEP20TokenImplementation.sol\":5588:5599  return true */\n      swap1\n      pop\n        /* \"github/bnb-chain/canonical-upgradeable-bep20/contracts/BEP20TokenImplementation.sol\":5399:5606  function increaseAllowance(address spender, uint256 addedValue) public returns (bool) {... */\n      swap3\n      swap2\n      pop\n      pop\n      jump\t// out\n        /* \"github/bnb-chain/canonical-upgradeable-bep20/contracts/BEP20TokenImplementation.sol\":11106:11260  function unpause() public onlyOwner {... */\n    tag_48:\n        /* \"github/bnb-chain/canonical-upgradeable-bep20/contracts/BEP20TokenImplementation.sol\":967:979  _msgSender() */\n      tag_125\n        /* \"github/bnb-chain/canonical-upgradeable-bep20/contracts/BEP20TokenImplementation.sol\":967:977  _msgSender */\n      tag_106\n        /* \"github/bnb-chain/canonical-upgradeable-bep20/contracts/BEP20TokenImplementation.sol\":967:979  _msgSender() */\n      jump\t// in\n    tag_125:\n        /* \"github/bnb-chain/canonical-upgradeable-bep20/contracts/BEP20TokenImplementation.sol\":957:979  _owner == _msgSender() */\n      0xffffffffffffffffffffffffffffffffffffffff\n      and\n        /* \"github/bnb-chain/canonical-upgradeable-bep20/contracts/BEP20TokenImplementation.sol\":957:963  _owner */\n      0x06\n      0x01\n      swap1\n      sload\n      swap1\n      0x0100\n      exp\n      swap1\n      div\n      0xffffffffffffffffffffffffffffffffffffffff\n      and\n        /* \"github/bnb-chain/canonical-upgradeable-bep20/contracts/BEP20TokenImplementation.sol\":957:979  _owner == _msgSender() */\n      0xffffffffffffffffffffffffffffffffffffffff\n      and\n      eq\n        /* \"github/bnb-chain/canonical-upgradeable-bep20/contracts/BEP20TokenImplementation.sol\":949:1016  require(_owner == _msgSender(), \"Ownable: caller is not the owner\") */\n      tag_126\n      jumpi\n      mload(0x40)\n      0x08c379a000000000000000000000000000000000000000000000000000000000\n      dup2\n      mstore\n      0x04\n      add\n      dup1\n      dup1\n      0x20\n      add\n      dup3\n      dup2\n      sub\n      dup3\n      mstore\n      0x20\n      dup2\n      mstore\n      0x20\n      add\n      dup1\n      0x4f776e61626c653a2063616c6c6572206973206e6f7420746865206f776e6572\n      dup2\n      mstore\n      pop\n      0x20\n      add\n      swap2\n      pop\n      pop\n      mload(0x40)\n      dup1\n      swap2\n      sub\n      swap1\n      revert\n    tag_126:\n        /* \"github/bnb-chain/canonical-upgradeable-bep20/contracts/BEP20TokenImplementation.sol\":11160:11168  isPaused */\n      0x06\n      0x16\n      swap1\n      sload\n      swap1\n      0x0100\n      exp\n      swap1\n      div\n      0xff\n      and\n        /* \"github/bnb-chain/canonical-upgradeable-bep20/contracts/BEP20TokenImplementation.sol\":11152:11196  require(isPaused, \"contract already paused\") */\n      tag_128\n      jumpi\n      mload(0x40)\n      0x08c379a000000000000000000000000000000000000000000000000000000000\n      dup2\n      mstore\n      0x04\n      add\n      dup1\n      dup1\n      0x20\n      add\n      dup3\n      dup2\n      sub\n      dup3\n      mstore\n      0x17\n      dup2\n      mstore\n      0x20\n      add\n      dup1\n      0x636f6e747261637420616c726561647920706175736564000000000000000000\n      dup2\n      mstore\n      pop\n      0x20\n      add\n      swap2\n      pop\n      pop\n      mload(0x40)\n      dup1\n      swap2\n      sub\n      swap1\n      revert\n    tag_128:\n        /* \"github/bnb-chain/canonical-upgradeable-bep20/contracts/BEP20TokenImplementation.sol\":11217:11222  false */\n      0x00\n        /* \"github/bnb-chain/canonical-upgradeable-bep20/contracts/BEP20TokenImplementation.sol\":11206:11214  isPaused */\n      0x06\n      0x16\n        /* \"github/bnb-chain/canonical-upgradeable-bep20/contracts/BEP20TokenImplementation.sol\":11206:11222  isPaused = false */\n      0x0100\n      exp\n      dup2\n      sload\n      dup2\n      0xff\n      mul\n      not\n      and\n      swap1\n      dup4\n      iszero\n      iszero\n      mul\n      or\n      swap1\n      sstore\n      pop\n        /* \"github/bnb-chain/canonical-upgradeable-bep20/contracts/BEP20TokenImplementation.sol\":11106:11260  function unpause() public onlyOwner {... */\n      jump\t// out\n        /* \"github/bnb-chain/canonical-upgradeable-bep20/contracts/BEP20TokenImplementation.sol\":6861:6978  function burn(uint256 amount) public returns (bool) {... */\n    tag_51:\n        /* \"github/bnb-chain/canonical-upgradeable-bep20/contracts/BEP20TokenImplementation.sol\":6907:6911  bool */\n      0x00\n        /* \"github/bnb-chain/canonical-upgradeable-bep20/contracts/BEP20TokenImplementation.sol\":6923:6950  _burn(_msgSender(), amount) */\n      tag_130\n        /* \"github/bnb-chain/canonical-upgradeable-bep20/contracts/BEP20TokenImplementation.sol\":6929:6941  _msgSender() */\n      tag_131\n        /* \"github/bnb-chain/canonical-upgradeable-bep20/contracts/BEP20TokenImplementation.sol\":6929:6939  _msgSender */\n      tag_106\n        /* \"github/bnb-chain/canonical-upgradeable-bep20/contracts/BEP20TokenImplementation.sol\":6929:6941  _msgSender() */\n      jump\t// in\n    tag_131:\n        /* \"github/bnb-chain/canonical-upgradeable-bep20/contracts/BEP20TokenImplementation.sol\":6943:6949  amount */\n      dup4\n        /* \"github/bnb-chain/canonical-upgradeable-bep20/contracts/BEP20TokenImplementation.sol\":6923:6928  _burn */\n      tag_132\n        /* \"github/bnb-chain/canonical-upgradeable-bep20/contracts/BEP20TokenImplementation.sol\":6923:6950  _burn(_msgSender(), amount) */\n      jump\t// in\n    tag_130:\n        /* \"github/bnb-chain/canonical-upgradeable-bep20/contracts/BEP20TokenImplementation.sol\":6967:6971  true */\n      0x01\n        /* \"github/bnb-chain/canonical-upgradeable-bep20/contracts/BEP20TokenImplementation.sol\":6960:6971  return true */\n      swap1\n      pop\n        /* \"github/bnb-chain/canonical-upgradeable-bep20/contracts/BEP20TokenImplementation.sol\":6861:6978  function burn(uint256 amount) public returns (bool) {... */\n      swap2\n      swap1\n      pop\n      jump\t// out\n        /* \"github/bnb-chain/canonical-upgradeable-bep20/contracts/BEP20TokenImplementation.sol\":10534:10728  function blackList(address _user) public onlyOwner {... */\n    tag_54:\n        /* \"github/bnb-chain/canonical-upgradeable-bep20/contracts/BEP20TokenImplementation.sol\":967:979  _msgSender() */\n      tag_134\n        /* \"github/bnb-chain/canonical-upgradeable-bep20/contracts/BEP20TokenImplementation.sol\":967:977  _msgSender */\n      tag_106\n        /* \"github/bnb-chain/canonical-upgradeable-bep20/contracts/BEP20TokenImplementation.sol\":967:979  _msgSender() */\n      jump\t// in\n    tag_134:\n        /* \"github/bnb-chain/canonical-upgradeable-bep20/contracts/BEP20TokenImplementation.sol\":957:979  _owner == _msgSender() */\n      0xffffffffffffffffffffffffffffffffffffffff\n      and\n        /* \"github/bnb-chain/canonical-upgradeable-bep20/contracts/BEP20TokenImplementation.sol\":957:963  _owner */\n      0x06\n      0x01\n      swap1\n      sload\n      swap1\n      0x0100\n      exp\n      swap1\n      div\n      0xffffffffffffffffffffffffffffffffffffffff\n      and\n        /* \"github/bnb-chain/canonical-upgradeable-bep20/contracts/BEP20TokenImplementation.sol\":957:979  _owner == _msgSender() */\n      0xffffffffffffffffffffffffffffffffffffffff\n      and\n      eq\n        /* \"github/bnb-chain/canonical-upgradeable-bep20/contracts/BEP20TokenImplementation.sol\":949:1016  require(_owner == _msgSender(), \"Ownable: caller is not the owner\") */\n      tag_135\n      jumpi\n      mload(0x40)\n      0x08c379a000000000000000000000000000000000000000000000000000000000\n      dup2\n      mstore\n      0x04\n      add\n      dup1\n      dup1\n      0x20\n      add\n      dup3\n      dup2\n      sub\n      dup3\n      mstore\n      0x20\n      dup2\n      mstore\n      0x20\n      add\n      dup1\n      0x4f776e61626c653a2063616c6c6572206973206e6f7420746865206f776e6572\n      dup2\n      mstore\n      pop\n      0x20\n      add\n      swap2\n      pop\n      pop\n      mload(0x40)\n      dup1\n      swap2\n      sub\n      swap1\n      revert\n    tag_135:\n        /* \"github/bnb-chain/canonical-upgradeable-bep20/contracts/BEP20TokenImplementation.sol\":10604:10617  isBlacklisted */\n      0x07\n        /* \"github/bnb-chain/canonical-upgradeable-bep20/contracts/BEP20TokenImplementation.sol\":10604:10624  isBlacklisted[_user] */\n      0x00\n        /* \"github/bnb-chain/canonical-upgradeable-bep20/contracts/BEP20TokenImplementation.sol\":10618:10623  _user */\n      dup3\n        /* \"github/bnb-chain/canonical-upgradeable-bep20/contracts/BEP20TokenImplementation.sol\":10604:10624  isBlacklisted[_user] */\n      0xffffffffffffffffffffffffffffffffffffffff\n      and\n      0xffffffffffffffffffffffffffffffffffffffff\n      and\n      dup2\n      mstore\n      0x20\n      add\n      swap1\n      dup2\n      mstore\n      0x20\n      add\n      0x00\n      keccak256\n      0x00\n      swap1\n      sload\n      swap1\n      0x0100\n      exp\n      swap1\n      div\n      0xff\n      and\n        /* \"github/bnb-chain/canonical-upgradeable-bep20/contracts/BEP20TokenImplementation.sol\":10603:10624  !isBlacklisted[_user] */\n      iszero\n        /* \"github/bnb-chain/canonical-upgradeable-bep20/contracts/BEP20TokenImplementation.sol\":10595:10653  require(!isBlacklisted[_user], \"user already blacklisted\") */\n      tag_137\n      jumpi\n      mload(0x40)\n      0x08c379a000000000000000000000000000000000000000000000000000000000\n      dup2\n      mstore\n      0x04\n      add\n      dup1\n      dup1\n      0x20\n      add\n      dup3\n      dup2\n      sub\n      dup3\n      mstore\n      0x18\n      dup2\n      mstore\n      0x20\n      add\n      dup1\n      0x7573657220616c726561647920626c61636b6c69737465640000000000000000\n      dup2\n      mstore\n      pop\n      0x20\n      add\n      swap2\n      pop\n      pop\n      mload(0x40)\n      dup1\n      swap2\n      sub\n      swap1\n      revert\n    tag_137:\n        /* \"github/bnb-chain/canonical-upgradeable-bep20/contracts/BEP20TokenImplementation.sol\":10686:10690  true */\n      0x01\n        /* \"github/bnb-chain/canonical-upgradeable-bep20/contracts/BEP20TokenImplementation.sol\":10663:10676  isBlacklisted */\n      0x07\n        /* \"github/bnb-chain/canonical-upgradeable-bep20/contracts/BEP20TokenImplementation.sol\":10663:10683  isBlacklisted[_user] */\n      0x00\n        /* \"github/bnb-chain/canonical-upgradeable-bep20/contracts/BEP20TokenImplementation.sol\":10677:10682  _user */\n      dup4\n        /* \"github/bnb-chain/canonical-upgradeable-bep20/contracts/BEP20TokenImplementation.sol\":10663:10683  isBlacklisted[_user] */\n      0xffffffffffffffffffffffffffffffffffffffff\n      and\n      0xffffffffffffffffffffffffffffffffffffffff\n      and\n      dup2\n      mstore\n      0x20\n      add\n      swap1\n      dup2\n      mstore\n      0x20\n      add\n      0x00\n      keccak256\n      0x00\n        /* \"github/bnb-chain/canonical-upgradeable-bep20/contracts/BEP20TokenImplementation.sol\":10663:10690  isBlacklisted[_user] = true */\n      0x0100\n      exp\n      dup2\n      sload\n      dup2\n      0xff\n      mul\n      not\n      and\n      swap1\n      dup4\n      iszero\n      iszero\n      mul\n      or\n      swap1\n      sstore\n      pop\n        /* \"github/bnb-chain/canonical-upgradeable-bep20/contracts/BEP20TokenImplementation.sol\":10534:10728  function blackList(address _user) public onlyOwner {... */\n      pop\n      jump\t// out\n        /* \"github/bnb-chain/canonical-upgradeable-bep20/contracts/BEP20TokenImplementation.sol\":2343:2425  function mintable() external view returns (bool) {... */\n    tag_56:\n        /* \"github/bnb-chain/canonical-upgradeable-bep20/contracts/BEP20TokenImplementation.sol\":2386:2390  bool */\n      0x00\n        /* \"github/bnb-chain/canonical-upgradeable-bep20/contracts/BEP20TokenImplementation.sol\":2409:2418  _mintable */\n      0x06\n      0x15\n      swap1\n      sload\n      swap1\n      0x0100\n      exp\n      swap1\n      div\n      0xff\n      and\n        /* \"github/bnb-chain/canonical-upgradeable-bep20/contracts/BEP20TokenImplementation.sol\":2402:2418  return _mintable */\n      swap1\n      pop\n        /* \"github/bnb-chain/canonical-upgradeable-bep20/contracts/BEP20TokenImplementation.sol\":2343:2425  function mintable() external view returns (bool) {... */\n      swap1\n      jump\t// out\n        /* \"github/bnb-chain/canonical-upgradeable-bep20/contracts/BEP20TokenImplementation.sol\":10738:10942  function removeFromBlacklist(address _user) public onlyOwner {... */\n    tag_59:\n        /* \"github/bnb-chain/canonical-upgradeable-bep20/contracts/BEP20TokenImplementation.sol\":967:979  _msgSender() */\n      tag_140\n        /* \"github/bnb-chain/canonical-upgradeable-bep20/contracts/BEP20TokenImplementation.sol\":967:977  _msgSender */\n      tag_106\n        /* \"github/bnb-chain/canonical-upgradeable-bep20/contracts/BEP20TokenImplementation.sol\":967:979  _msgSender() */\n      jump\t// in\n    tag_140:\n        /* \"github/bnb-chain/canonical-upgradeable-bep20/contracts/BEP20TokenImplementation.sol\":957:979  _owner == _msgSender() */\n      0xffffffffffffffffffffffffffffffffffffffff\n      and\n        /* \"github/bnb-chain/canonical-upgradeable-bep20/contracts/BEP20TokenImplementation.sol\":957:963  _owner */\n      0x06\n      0x01\n      swap1\n      sload\n      swap1\n      0x0100\n      exp\n      swap1\n      div\n      0xffffffffffffffffffffffffffffffffffffffff\n      and\n        /* \"github/bnb-chain/canonical-upgradeable-bep20/contracts/BEP20TokenImplementation.sol\":957:979  _owner == _msgSender() */\n      0xffffffffffffffffffffffffffffffffffffffff\n      and\n      eq\n        /* \"github/bnb-chain/canonical-upgradeable-bep20/contracts/BEP20TokenImplementation.sol\":949:1016  require(_owner == _msgSender(), \"Ownable: caller is not the owner\") */\n      tag_141\n      jumpi\n      mload(0x40)\n      0x08c379a000000000000000000000000000000000000000000000000000000000\n      dup2\n      mstore\n      0x04\n      add\n      dup1\n      dup1\n      0x20\n      add\n      dup3\n      dup2\n      sub\n      dup3\n      mstore\n      0x20\n      dup2\n      mstore\n      0x20\n      add\n      dup1\n      0x4f776e61626c653a2063616c6c6572206973206e6f7420746865206f776e6572\n      dup2\n      mstore\n      pop\n      0x20\n      add\n      swap2\n      pop\n      pop\n      mload(0x40)\n      dup1\n      swap2\n      sub\n      swap1\n      revert\n    tag_141:\n        /* \"github/bnb-chain/canonical-upgradeable-bep20/contracts/BEP20TokenImplementation.sol\":10817:10830  isBlacklisted */\n      0x07\n        /* \"github/bnb-chain/canonical-upgradeable-bep20/contracts/BEP20TokenImplementation.sol\":10817:10837  isBlacklisted[_user] */\n      0x00\n        /* \"github/bnb-chain/canonical-upgradeable-bep20/contracts/BEP20TokenImplementation.sol\":10831:10836  _user */\n      dup3\n        /* \"github/bnb-chain/canonical-upgradeable-bep20/contracts/BEP20TokenImplementation.sol\":10817:10837  isBlacklisted[_user] */\n      0xffffffffffffffffffffffffffffffffffffffff\n      and\n      0xffffffffffffffffffffffffffffffffffffffff\n      and\n      dup2\n      mstore\n      0x20\n      add\n      swap1\n      dup2\n      mstore\n      0x20\n      add\n      0x00\n      keccak256\n      0x00\n      swap1\n      sload\n      swap1\n      0x0100\n      exp\n      swap1\n      div\n      0xff\n      and\n        /* \"github/bnb-chain/canonical-upgradeable-bep20/contracts/BEP20TokenImplementation.sol\":10809:10866  require(isBlacklisted[_user], \"user already whitelisted\") */\n      tag_143\n      jumpi\n      mload(0x40)\n      0x08c379a000000000000000000000000000000000000000000000000000000000\n      dup2\n      mstore\n      0x04\n      add\n      dup1\n      dup1\n      0x20\n      add\n      dup3\n      dup2\n      sub\n      dup3\n      mstore\n      0x18\n      dup2\n      mstore\n      0x20\n      add\n      dup1\n      0x7573657220616c72656164792077686974656c69737465640000000000000000\n      dup2\n      mstore\n      pop\n      0x20\n      add\n      swap2\n      pop\n      pop\n      mload(0x40)\n      dup1\n      swap2\n      sub\n      swap1\n      revert\n    tag_143:\n        /* \"github/bnb-chain/canonical-upgradeable-bep20/contracts/BEP20TokenImplementation.sol\":10899:10904  false */\n      0x00\n        /* \"github/bnb-chain/canonical-upgradeable-bep20/contracts/BEP20TokenImplementation.sol\":10876:10889  isBlacklisted */\n      0x07\n        /* \"github/bnb-chain/canonical-upgradeable-bep20/contracts/BEP20TokenImplementation.sol\":10876:10896  isBlacklisted[_user] */\n      0x00\n        /* \"github/bnb-chain/canonical-upgradeable-bep20/contracts/BEP20TokenImplementation.sol\":10890:10895  _user */\n      dup4\n        /* \"github/bnb-chain/canonical-upgradeable-bep20/contracts/BEP20TokenImplementation.sol\":10876:10896  isBlacklisted[_user] */\n      0xffffffffffffffffffffffffffffffffffffffff\n      and\n      0xffffffffffffffffffffffffffffffffffffffff\n      and\n      dup2\n      mstore\n      0x20\n      add\n      swap1\n      dup2\n      mstore\n      0x20\n      add\n      0x00\n      keccak256\n      0x00\n        /* \"github/bnb-chain/canonical-upgradeable-bep20/contracts/BEP20TokenImplementation.sol\":10876:10904  isBlacklisted[_user] = false */\n      0x0100\n      exp\n      dup2\n      sload\n      dup2\n      0xff\n      mul\n      not\n      and\n      swap1\n      dup4\n      iszero\n      iszero\n      mul\n      or\n      swap1\n      sstore\n      pop\n        /* \"github/bnb-chain/canonical-upgradeable-bep20/contracts/BEP20TokenImplementation.sol\":10738:10942  function removeFromBlacklist(address _user) public onlyOwner {... */\n      pop\n      jump\t// out\n        /* \"github/bnb-chain/canonical-upgradeable-bep20/contracts/BEP20TokenImplementation.sol\":3253:3372  function balanceOf(address account) external override view returns (uint256) {... */\n    tag_62:\n        /* \"github/bnb-chain/canonical-upgradeable-bep20/contracts/BEP20TokenImplementation.sol\":3321:3328  uint256 */\n      0x00\n        /* \"github/bnb-chain/canonical-upgradeable-bep20/contracts/BEP20TokenImplementation.sol\":3347:3356  _balances */\n      0x01\n        /* \"github/bnb-chain/canonical-upgradeable-bep20/contracts/BEP20TokenImplementation.sol\":3347:3365  _balances[account] */\n      0x00\n        /* \"github/bnb-chain/canonical-upgradeable-bep20/contracts/BEP20TokenImplementation.sol\":3357:3364  account */\n      dup4\n        /* \"github/bnb-chain/canonical-upgradeable-bep20/contracts/BEP20TokenImplementation.sol\":3347:3365  _balances[account] */\n      0xffffffffffffffffffffffffffffffffffffffff\n      and\n      0xffffffffffffffffffffffffffffffffffffffff\n      and\n      dup2\n      mstore\n      0x20\n      add\n      swap1\n      dup2\n      mstore\n      0x20\n      add\n      0x00\n      keccak256\n      sload\n        /* \"github/bnb-chain/canonical-upgradeable-bep20/contracts/BEP20TokenImplementation.sol\":3340:3365  return _balances[account] */\n      swap1\n      pop\n        /* \"github/bnb-chain/canonical-upgradeable-bep20/contracts/BEP20TokenImplementation.sol\":3253:3372  function balanceOf(address account) external override view returns (uint256) {... */\n      swap2\n      swap1\n      pop\n      jump\t// out\n        /* \"github/bnb-chain/canonical-upgradeable-bep20/contracts/BEP20TokenImplementation.sol\":1751:1888  function renounceOwnership() public onlyOwner {... */\n    tag_64:\n        /* \"github/bnb-chain/canonical-upgradeable-bep20/contracts/BEP20TokenImplementation.sol\":967:979  _msgSender() */\n      tag_146\n        /* \"github/bnb-chain/canonical-upgradeable-bep20/contracts/BEP20TokenImplementation.sol\":967:977  _msgSender */\n      tag_106\n        /* \"github/bnb-chain/canonical-upgradeable-bep20/contracts/BEP20TokenImplementation.sol\":967:979  _msgSender() */\n      jump\t// in\n    tag_146:\n        /* \"github/bnb-chain/canonical-upgradeable-bep20/contracts/BEP20TokenImplementation.sol\":957:979  _owner == _msgSender() */\n      0xffffffffffffffffffffffffffffffffffffffff\n      and\n        /* \"github/bnb-chain/canonical-upgradeable-bep20/contracts/BEP20TokenImplementation.sol\":957:963  _owner */\n      0x06\n      0x01\n      swap1\n      sload\n      swap1\n      0x0100\n      exp\n      swap1\n      div\n      0xffffffffffffffffffffffffffffffffffffffff\n      and\n        /* \"github/bnb-chain/canonical-upgradeable-bep20/contracts/BEP20TokenImplementation.sol\":957:979  _owner == _msgSender() */\n      0xffffffffffffffffffffffffffffffffffffffff\n      and\n      eq\n        /* \"github/bnb-chain/canonical-upgradeable-bep20/contracts/BEP20TokenImplementation.sol\":949:1016  require(_owner == _msgSender(), \"Ownable: caller is not the owner\") */\n      tag_147\n      jumpi\n      mload(0x40)\n      0x08c379a000000000000000000000000000000000000000000000000000000000\n      dup2\n      mstore\n      0x04\n      add\n      dup1\n      dup1\n      0x20\n      add\n      dup3\n      dup2\n      sub\n      dup3\n      mstore\n      0x20\n      dup2\n      mstore\n      0x20\n      add\n      dup1\n      0x4f776e61626c653a2063616c6c6572206973206e6f7420746865206f776e6572\n      dup2\n      mstore\n      pop\n      0x20\n      add\n      swap2\n      pop\n      pop\n      mload(0x40)\n      dup1\n      swap2\n      sub\n      swap1\n      revert\n    tag_147:\n        /* \"github/bnb-chain/canonical-upgradeable-bep20/contracts/BEP20TokenImplementation.sol\":1849:1850  0 */\n      0x00\n        /* \"github/bnb-chain/canonical-upgradeable-bep20/contracts/BEP20TokenImplementation.sol\":1812:1852  OwnershipTransferred(_owner, address(0)) */\n      0xffffffffffffffffffffffffffffffffffffffff\n      and\n        /* \"github/bnb-chain/canonical-upgradeable-bep20/contracts/BEP20TokenImplementation.sol\":1833:1839  _owner */\n      0x06\n      0x01\n      swap1\n      sload\n      swap1\n      0x0100\n      exp\n      swap1\n      div\n      0xffffffffffffffffffffffffffffffffffffffff\n      and\n        /* \"github/bnb-chain/canonical-upgradeable-bep20/contracts/BEP20TokenImplementation.sol\":1812:1852  OwnershipTransferred(_owner, address(0)) */\n      0xffffffffffffffffffffffffffffffffffffffff\n      and\n      0x8be0079c531659141344cd1fd0a4f28419497f9722a3daafe3b4186f6b6457e0\n      mload(0x40)\n      mload(0x40)\n      dup1\n      swap2\n      sub\n      swap1\n      log3\n        /* \"github/bnb-chain/canonical-upgradeable-bep20/contracts/BEP20TokenImplementation.sol\":1879:1880  0 */\n      0x00\n        /* \"github/bnb-chain/canonical-upgradeable-bep20/contracts/BEP20TokenImplementation.sol\":1862:1868  _owner */\n      0x06\n      0x01\n        /* \"github/bnb-chain/canonical-upgradeable-bep20/contracts/BEP20TokenImplementation.sol\":1862:1881  _owner = address(0) */\n      0x0100\n      exp\n      dup2\n      sload\n      dup2\n      0xffffffffffffffffffffffffffffffffffffffff\n      mul\n      not\n      and\n      swap1\n      dup4\n      0xffffffffffffffffffffffffffffffffffffffff\n      and\n      mul\n      or\n      swap1\n      sstore\n      pop\n        /* \"github/bnb-chain/canonical-upgradeable-bep20/contracts/BEP20TokenImplementation.sol\":1751:1888  function renounceOwnership() public onlyOwner {... */\n      jump\t// out\n        /* \"github/bnb-chain/canonical-upgradeable-bep20/contracts/BEP20TokenImplementation.sol\":10948:11100  function pause() public onlyOwner {... */\n    tag_66:\n        /* \"github/bnb-chain/canonical-upgradeable-bep20/contracts/BEP20TokenImplementation.sol\":967:979  _msgSender() */\n      tag_150\n        /* \"github/bnb-chain/canonical-upgradeable-bep20/contracts/BEP20TokenImplementation.sol\":967:977  _msgSender */\n      tag_106\n        /* \"github/bnb-chain/canonical-upgradeable-bep20/contracts/BEP20TokenImplementation.sol\":967:979  _msgSender() */\n      jump\t// in\n    tag_150:\n        /* \"github/bnb-chain/canonical-upgradeable-bep20/contracts/BEP20TokenImplementation.sol\":957:979  _owner == _msgSender() */\n      0xffffffffffffffffffffffffffffffffffffffff\n      and\n        /* \"github/bnb-chain/canonical-upgradeable-bep20/contracts/BEP20TokenImplementation.sol\":957:963  _owner */\n      0x06\n      0x01\n      swap1\n      sload\n      swap1\n      0x0100\n      exp\n      swap1\n      div\n      0xffffffffffffffffffffffffffffffffffffffff\n      and\n        /* \"github/bnb-chain/canonical-upgradeable-bep20/contracts/BEP20TokenImplementation.sol\":957:979  _owner == _msgSender() */\n      0xffffffffffffffffffffffffffffffffffffffff\n      and\n      eq\n        /* \"github/bnb-chain/canonical-upgradeable-bep20/contracts/BEP20TokenImplementation.sol\":949:1016  require(_owner == _msgSender(), \"Ownable: caller is not the owner\") */\n      tag_151\n      jumpi\n      mload(0x40)\n      0x08c379a000000000000000000000000000000000000000000000000000000000\n      dup2\n      mstore\n      0x04\n      add\n      dup1\n      dup1\n      0x20\n      add\n      dup3\n      dup2\n      sub\n      dup3\n      mstore\n      0x20\n      dup2\n      mstore\n      0x20\n      add\n      dup1\n      0x4f776e61626c653a2063616c6c6572206973206e6f7420746865206f776e6572\n      dup2\n      mstore\n      pop\n      0x20\n      add\n      swap2\n      pop\n      pop\n      mload(0x40)\n      dup1\n      swap2\n      sub\n      swap1\n      revert\n    tag_151:\n        /* \"github/bnb-chain/canonical-upgradeable-bep20/contracts/BEP20TokenImplementation.sol\":11001:11009  isPaused */\n      0x06\n      0x16\n      swap1\n      sload\n      swap1\n      0x0100\n      exp\n      swap1\n      div\n      0xff\n      and\n        /* \"github/bnb-chain/canonical-upgradeable-bep20/contracts/BEP20TokenImplementation.sol\":11000:11009  !isPaused */\n      iszero\n        /* \"github/bnb-chain/canonical-upgradeable-bep20/contracts/BEP20TokenImplementation.sol\":10992:11037  require(!isPaused, \"contract already paused\") */\n      tag_153\n      jumpi\n      mload(0x40)\n      0x08c379a000000000000000000000000000000000000000000000000000000000\n      dup2\n      mstore\n      0x04\n      add\n      dup1\n      dup1\n      0x20\n      add\n      dup3\n      dup2\n      sub\n      dup3\n      mstore\n      0x17\n      dup2\n      mstore\n      0x20\n      add\n      dup1\n      0x636f6e747261637420616c726561647920706175736564000000000000000000\n      dup2\n      mstore\n      pop\n      0x20\n      add\n      swap2\n      pop\n      pop\n      mload(0x40)\n      dup1\n      swap2\n      sub\n      swap1\n      revert\n    tag_153:\n        /* \"github/bnb-chain/canonical-upgradeable-bep20/contracts/BEP20TokenImplementation.sol\":11058:11062  true */\n      0x01\n        /* \"github/bnb-chain/canonical-upgradeable-bep20/contracts/BEP20TokenImplementation.sol\":11047:11055  isPaused */\n      0x06\n      0x16\n        /* \"github/bnb-chain/canonical-upgradeable-bep20/contracts/BEP20TokenImplementation.sol\":11047:11062  isPaused = true */\n      0x0100\n      exp\n      dup2\n      sload\n      dup2\n      0xff\n      mul\n      not\n      and\n      swap1\n      dup4\n      iszero\n      iszero\n      mul\n      or\n      swap1\n      sstore\n      pop\n        /* \"github/bnb-chain/canonical-upgradeable-bep20/contracts/BEP20TokenImplementation.sol\":10948:11100  function pause() public onlyOwner {... */\n      jump\t// out\n        /* \"github/bnb-chain/canonical-upgradeable-bep20/contracts/BEP20TokenImplementation.sol\":2488:2579  function getOwner() external override view returns (address) {... */\n    tag_68:\n        /* \"github/bnb-chain/canonical-upgradeable-bep20/contracts/BEP20TokenImplementation.sol\":2540:2547  address */\n      0x00\n        /* \"github/bnb-chain/canonical-upgradeable-bep20/contracts/BEP20TokenImplementation.sol\":2566:2572  _owner */\n      0x06\n      0x01\n      swap1\n      sload\n      swap1\n      0x0100\n      exp\n      swap1\n      div\n      0xffffffffffffffffffffffffffffffffffffffff\n      and\n        /* \"github/bnb-chain/canonical-upgradeable-bep20/contracts/BEP20TokenImplementation.sol\":2559:2572  return _owner */\n      swap1\n      pop\n        /* \"github/bnb-chain/canonical-upgradeable-bep20/contracts/BEP20TokenImplementation.sol\":2488:2579  function getOwner() external override view returns (address) {... */\n      swap1\n      jump\t// out\n        /* \"github/bnb-chain/canonical-upgradeable-bep20/contracts/BEP20TokenImplementation.sol\":2793:2889  function symbol() external override view returns (string memory) {... */\n    tag_70:\n        /* \"github/bnb-chain/canonical-upgradeable-bep20/contracts/BEP20TokenImplementation.sol\":2843:2856  string memory */\n      0x60\n        /* \"github/bnb-chain/canonical-upgradeable-bep20/contracts/BEP20TokenImplementation.sol\":2875:2882  _symbol */\n      0x05\n        /* \"github/bnb-chain/canonical-upgradeable-bep20/contracts/BEP20TokenImplementation.sol\":2868:2882  return _symbol */\n      dup1\n      sload\n      0x01\n      dup2\n      0x01\n      and\n      iszero\n      0x0100\n      mul\n      sub\n      and\n      0x02\n      swap1\n      div\n      dup1\n      0x1f\n      add\n      0x20\n      dup1\n      swap2\n      div\n      mul\n      0x20\n      add\n      mload(0x40)\n      swap1\n      dup2\n      add\n      0x40\n      mstore\n      dup1\n      swap3\n      swap2\n      swap1\n      dup2\n      dup2\n      mstore\n      0x20\n      add\n      dup3\n      dup1\n      sload\n      0x01\n      dup2\n      0x01\n      and\n      iszero\n      0x0100\n      mul\n      sub\n      and\n      0x02\n      swap1\n      div\n      dup1\n      iszero\n      tag_156\n      jumpi\n      dup1\n      0x1f\n      lt\n      tag_157\n      jumpi\n      0x0100\n      dup1\n      dup4\n      sload\n      div\n      mul\n      dup4\n      mstore\n      swap2\n      0x20\n      add\n      swap2\n      jump(tag_156)\n    tag_157:\n      dup3\n      add\n      swap2\n      swap1\n      0x00\n      mstore\n      keccak256(0x00, 0x20)\n      swap1\n    tag_158:\n      dup2\n      sload\n      dup2\n      mstore\n      swap1\n      0x01\n      add\n      swap1\n      0x20\n      add\n      dup1\n      dup4\n      gt\n      tag_158\n      jumpi\n      dup3\n      swap1\n      sub\n      0x1f\n      and\n      dup3\n      add\n      swap2\n    tag_156:\n      pop\n      pop\n      pop\n      pop\n      pop\n      swap1\n      pop\n        /* \"github/bnb-chain/canonical-upgradeable-bep20/contracts/BEP20TokenImplementation.sol\":2793:2889  function symbol() external override view returns (string memory) {... */\n      swap1\n      jump\t// out\n        /* \"github/bnb-chain/canonical-upgradeable-bep20/contracts/BEP20TokenImplementation.sol\":6592:6777  function mint(uint256 amount) public onlyOwner returns (bool) {... */\n    tag_77:\n        /* \"github/bnb-chain/canonical-upgradeable-bep20/contracts/BEP20TokenImplementation.sol\":6648:6652  bool */\n      0x00\n        /* \"github/bnb-chain/canonical-upgradeable-bep20/contracts/BEP20TokenImplementation.sol\":967:979  _msgSender() */\n      tag_160\n        /* \"github/bnb-chain/canonical-upgradeable-bep20/contracts/BEP20TokenImplementation.sol\":967:977  _msgSender */\n      tag_106\n        /* \"github/bnb-chain/canonical-upgradeable-bep20/contracts/BEP20TokenImplementation.sol\":967:979  _msgSender() */\n      jump\t// in\n    tag_160:\n        /* \"github/bnb-chain/canonical-upgradeable-bep20/contracts/BEP20TokenImplementation.sol\":957:979  _owner == _msgSender() */\n      0xffffffffffffffffffffffffffffffffffffffff\n      and\n        /* \"github/bnb-chain/canonical-upgradeable-bep20/contracts/BEP20TokenImplementation.sol\":957:963  _owner */\n      0x06\n      0x01\n      swap1\n      sload\n      swap1\n      0x0100\n      exp\n      swap1\n      div\n      0xffffffffffffffffffffffffffffffffffffffff\n      and\n        /* \"github/bnb-chain/canonical-upgradeable-bep20/contracts/BEP20TokenImplementation.sol\":957:979  _owner == _msgSender() */\n      0xffffffffffffffffffffffffffffffffffffffff\n      and\n      eq\n        /* \"github/bnb-chain/canonical-upgradeable-bep20/contracts/BEP20TokenImplementation.sol\":949:1016  require(_owner == _msgSender(), \"Ownable: caller is not the owner\") */\n      tag_161\n      jumpi\n      mload(0x40)\n      0x08c379a000000000000000000000000000000000000000000000000000000000\n      dup2\n      mstore\n      0x04\n      add\n      dup1\n      dup1\n      0x20\n      add\n      dup3\n      dup2\n      sub\n      dup3\n      mstore\n      0x20\n      dup2\n      mstore\n      0x20\n      add\n      dup1\n      0x4f776e61626c653a2063616c6c6572206973206e6f7420746865206f776e6572\n      dup2\n      mstore\n      pop\n      0x20\n      add\n      swap2\n      pop\n      pop\n      mload(0x40)\n      dup1\n      swap2\n      sub\n      swap1\n      revert\n    tag_161:\n        /* \"github/bnb-chain/canonical-upgradeable-bep20/contracts/BEP20TokenImplementation.sol\":6672:6681  _mintable */\n      0x06\n      0x15\n      swap1\n      sload\n      swap1\n      0x0100\n      exp\n      swap1\n      div\n      0xff\n      and\n        /* \"github/bnb-chain/canonical-upgradeable-bep20/contracts/BEP20TokenImplementation.sol\":6664:6712  require(_mintable, \"this token is not mintable\") */\n      tag_163\n      jumpi\n      mload(0x40)\n      0x08c379a000000000000000000000000000000000000000000000000000000000\n      dup2\n      mstore\n      0x04\n      add\n      dup1\n      dup1\n      0x20\n      add\n      dup3\n      dup2\n      sub\n      dup3\n      mstore\n      0x1a\n      dup2\n      mstore\n      0x20\n      add\n      dup1\n      0x7468697320746f6b656e206973206e6f74206d696e7461626c65000000000000\n      dup2\n      mstore\n      pop\n      0x20\n      add\n      swap2\n      pop\n      pop\n      mload(0x40)\n      dup1\n      swap2\n      sub\n      swap1\n      revert\n    tag_163:\n        /* \"github/bnb-chain/canonical-upgradeable-bep20/contracts/BEP20TokenImplementation.sol\":6722:6749  _mint(_msgSender(), amount) */\n      tag_164\n        /* \"github/bnb-chain/canonical-upgradeable-bep20/contracts/BEP20TokenImplementation.sol\":6728:6740  _msgSender() */\n      tag_165\n        /* \"github/bnb-chain/canonical-upgradeable-bep20/contracts/BEP20TokenImplementation.sol\":6728:6738  _msgSender */\n      tag_106\n        /* \"github/bnb-chain/canonical-upgradeable-bep20/contracts/BEP20TokenImplementation.sol\":6728:6740  _msgSender() */\n      jump\t// in\n    tag_165:\n        /* \"github/bnb-chain/canonical-upgradeable-bep20/contracts/BEP20TokenImplementation.sol\":6742:6748  amount */\n      dup4\n        /* \"github/bnb-chain/canonical-upgradeable-bep20/contracts/BEP20TokenImplementation.sol\":6722:6727  _mint */\n      tag_166\n        /* \"github/bnb-chain/canonical-upgradeable-bep20/contracts/BEP20TokenImplementation.sol\":6722:6749  _mint(_msgSender(), amount) */\n      jump\t// in\n    tag_164:\n        /* \"github/bnb-chain/canonical-upgradeable-bep20/contracts/BEP20TokenImplementation.sol\":6766:6770  true */\n      0x01\n        /* \"github/bnb-chain/canonical-upgradeable-bep20/contracts/BEP20TokenImplementation.sol\":6759:6770  return true */\n      swap1\n      pop\n        /* \"github/bnb-chain/canonical-upgradeable-bep20/contracts/BEP20TokenImplementation.sol\":6592:6777  function mint(uint256 amount) public onlyOwner returns (bool) {... */\n      swap2\n      swap1\n      pop\n      jump\t// out\n        /* \"github/bnb-chain/canonical-upgradeable-bep20/contracts/BEP20TokenImplementation.sol\":6092:6350  function decreaseAllowance(address spender, uint256 subtractedValue) public returns (bool) {... */\n    tag_80:\n        /* \"github/bnb-chain/canonical-upgradeable-bep20/contracts/BEP20TokenImplementation.sol\":6177:6181  bool */\n      0x00\n        /* \"github/bnb-chain/canonical-upgradeable-bep20/contracts/BEP20TokenImplementation.sol\":6193:6322  _approve(_msgSender(), spender, _allowances[_msgSender()][spender].sub(subtractedValue, \"BEP20: decreased allowance below zero\")) */\n      tag_168\n        /* \"github/bnb-chain/canonical-upgradeable-bep20/contracts/BEP20TokenImplementation.sol\":6202:6214  _msgSender() */\n      tag_169\n        /* \"github/bnb-chain/canonical-upgradeable-bep20/contracts/BEP20TokenImplementation.sol\":6202:6212  _msgSender */\n      tag_106\n        /* \"github/bnb-chain/canonical-upgradeable-bep20/contracts/BEP20TokenImplementation.sol\":6202:6214  _msgSender() */\n      jump\t// in\n    tag_169:\n        /* \"github/bnb-chain/canonical-upgradeable-bep20/contracts/BEP20TokenImplementation.sol\":6216:6223  spender */\n      dup5\n        /* \"github/bnb-chain/canonical-upgradeable-bep20/contracts/BEP20TokenImplementation.sol\":6225:6321  _allowances[_msgSender()][spender].sub(subtractedValue, \"BEP20: decreased allowance below zero\") */\n      tag_170\n        /* \"github/bnb-chain/canonical-upgradeable-bep20/contracts/BEP20TokenImplementation.sol\":6264:6279  subtractedValue */\n      dup6\n        /* \"github/bnb-chain/canonical-upgradeable-bep20/contracts/BEP20TokenImplementation.sol\":6225:6321  _allowances[_msgSender()][spender].sub(subtractedValue, \"BEP20: decreased allowance below zero\") */\n      mload(0x40)\n      dup1\n      0x60\n      add\n      0x40\n      mstore\n      dup1\n      0x25\n      dup2\n      mstore\n      0x20\n      add\n      data_b7060b3538dcd3ddc8a941c91636a8115a1aa46914747fd9809d543bbb46cd22\n      0x25\n      swap2\n      codecopy\n        /* \"github/bnb-chain/canonical-upgradeable-bep20/contracts/BEP20TokenImplementation.sol\":6225:6236  _allowances */\n      0x02\n        /* \"github/bnb-chain/canonical-upgradeable-bep20/contracts/BEP20TokenImplementation.sol\":6225:6250  _allowances[_msgSender()] */\n      0x00\n        /* \"github/bnb-chain/canonical-upgradeable-bep20/contracts/BEP20TokenImplementation.sol\":6237:6249  _msgSender() */\n      tag_171\n        /* \"github/bnb-chain/canonical-upgradeable-bep20/contracts/BEP20TokenImplementation.sol\":6237:6247  _msgSender */\n      tag_106\n        /* \"github/bnb-chain/canonical-upgradeable-bep20/contracts/BEP20TokenImplementation.sol\":6237:6249  _msgSender() */\n      jump\t// in\n    tag_171:\n        /* \"github/bnb-chain/canonical-upgradeable-bep20/contracts/BEP20TokenImplementation.sol\":6225:6250  _allowances[_msgSender()] */\n      0xffffffffffffffffffffffffffffffffffffffff\n      and\n      0xffffffffffffffffffffffffffffffffffffffff\n      and\n      dup2\n      mstore\n      0x20\n      add\n      swap1\n      dup2\n      mstore\n      0x20\n      add\n      0x00\n      keccak256\n        /* \"github/bnb-chain/canonical-upgradeable-bep20/contracts/BEP20TokenImplementation.sol\":6225:6259  _allowances[_msgSender()][spender] */\n      0x00\n        /* \"github/bnb-chain/canonical-upgradeable-bep20/contracts/BEP20TokenImplementation.sol\":6251:6258  spender */\n      dup11\n        /* \"github/bnb-chain/canonical-upgradeable-bep20/contracts/BEP20TokenImplementation.sol\":6225:6259  _allowances[_msgSender()][spender] */\n      0xffffffffffffffffffffffffffffffffffffffff\n      and\n      0xffffffffffffffffffffffffffffffffffffffff\n      and\n      dup2\n      mstore\n      0x20\n      add\n      swap1\n      dup2\n      mstore\n      0x20\n      add\n      0x00\n      keccak256\n      sload\n        /* \"github/bnb-chain/canonical-upgradeable-bep20/contracts/BEP20TokenImplementation.sol\":6225:6263  _allowances[_msgSender()][spender].sub */\n      tag_116\n      swap1\n        /* \"github/bnb-chain/canonical-upgradeable-bep20/contracts/BEP20TokenImplementation.sol\":6225:6321  _allowances[_msgSender()][spender].sub(subtractedValue, \"BEP20: decreased allowance below zero\") */\n      swap3\n      swap2\n      swap1\n      0xffffffff\n      and\n      jump\t// in\n    tag_170:\n        /* \"github/bnb-chain/canonical-upgradeable-bep20/contracts/BEP20TokenImplementation.sol\":6193:6201  _approve */\n      tag_107\n        /* \"github/bnb-chain/canonical-upgradeable-bep20/contracts/BEP20TokenImplementation.sol\":6193:6322  _approve(_msgSender(), spender, _allowances[_msgSender()][spender].sub(subtractedValue, \"BEP20: decreased allowance below zero\")) */\n      jump\t// in\n    tag_168:\n        /* \"github/bnb-chain/canonical-upgradeable-bep20/contracts/BEP20TokenImplementation.sol\":6339:6343  true */\n      0x01\n        /* \"github/bnb-chain/canonical-upgradeable-bep20/contracts/BEP20TokenImplementation.sol\":6332:6343  return true */\n      swap1\n      pop\n        /* \"github/bnb-chain/canonical-upgradeable-bep20/contracts/BEP20TokenImplementation.sol\":6092:6350  function decreaseAllowance(address spender, uint256 subtractedValue) public returns (bool) {... */\n      swap3\n      swap2\n      pop\n      pop\n      jump\t// out\n        /* \"github/bnb-chain/canonical-upgradeable-bep20/contracts/BEP20TokenImplementation.sol\":3574:3740  function transfer(address recipient, uint256 amount) external override returns (bool) {... */\n    tag_83:\n        /* \"github/bnb-chain/canonical-upgradeable-bep20/contracts/BEP20TokenImplementation.sol\":3654:3658  bool */\n      0x00\n        /* \"github/bnb-chain/canonical-upgradeable-bep20/contracts/BEP20TokenImplementation.sol\":3670:3712  _transfer(_msgSender(), recipient, amount) */\n      tag_173\n        /* \"github/bnb-chain/canonical-upgradeable-bep20/contracts/BEP20TokenImplementation.sol\":3680:3692  _msgSender() */\n      tag_174\n        /* \"github/bnb-chain/canonical-upgradeable-bep20/contracts/BEP20TokenImplementation.sol\":3680:3690  _msgSender */\n      tag_106\n        /* \"github/bnb-chain/canonical-upgradeable-bep20/contracts/BEP20TokenImplementation.sol\":3680:3692  _msgSender() */\n      jump\t// in\n    tag_174:\n        /* \"github/bnb-chain/canonical-upgradeable-bep20/contracts/BEP20TokenImplementation.sol\":3694:3703  recipient */\n      dup5\n        /* \"github/bnb-chain/canonical-upgradeable-bep20/contracts/BEP20TokenImplementation.sol\":3705:3711  amount */\n      dup5\n        /* \"github/bnb-chain/canonical-upgradeable-bep20/contracts/BEP20TokenImplementation.sol\":3670:3679  _transfer */\n      tag_111\n        /* \"github/bnb-chain/canonical-upgradeable-bep20/contracts/BEP20TokenImplementation.sol\":3670:3712  _transfer(_msgSender(), recipient, amount) */\n      jump\t// in\n    tag_173:\n        /* \"github/bnb-chain/canonical-upgradeable-bep20/contracts/BEP20TokenImplementation.sol\":3729:3733  true */\n      0x01\n        /* \"github/bnb-chain/canonical-upgradeable-bep20/contracts/BEP20TokenImplementation.sol\":3722:3733  return true */\n      swap1\n      pop\n        /* \"github/bnb-chain/canonical-upgradeable-bep20/contracts/BEP20TokenImplementation.sol\":3574:3740  function transfer(address recipient, uint256 amount) external override returns (bool) {... */\n      swap3\n      swap2\n      pop\n      pop\n      jump\t// out\n        /* \"github/bnb-chain/canonical-upgradeable-bep20/contracts/BEP20TokenImplementation.sol\":3797:3940  function allowance(address owner, address spender) external override view returns (uint256) {... */\n    tag_86:\n        /* \"github/bnb-chain/canonical-upgradeable-bep20/contracts/BEP20TokenImplementation.sol\":3880:3887  uint256 */\n      0x00\n        /* \"github/bnb-chain/canonical-upgradeable-bep20/contracts/BEP20TokenImplementation.sol\":3906:3917  _allowances */\n      0x02\n        /* \"github/bnb-chain/canonical-upgradeable-bep20/contracts/BEP20TokenImplementation.sol\":3906:3924  _allowances[owner] */\n      0x00\n        /* \"github/bnb-chain/canonical-upgradeable-bep20/contracts/BEP20TokenImplementation.sol\":3918:3923  owner */\n      dup5\n        /* \"github/bnb-chain/canonical-upgradeable-bep20/contracts/BEP20TokenImplementation.sol\":3906:3924  _allowances[owner] */\n      0xffffffffffffffffffffffffffffffffffffffff\n      and\n      0xffffffffffffffffffffffffffffffffffffffff\n      and\n      dup2\n      mstore\n      0x20\n      add\n      swap1\n      dup2\n      mstore\n      0x20\n      add\n      0x00\n      keccak256\n        /* \"github/bnb-chain/canonical-upgradeable-bep20/contracts/BEP20TokenImplementation.sol\":3906:3933  _allowances[owner][spender] */\n      0x00\n        /* \"github/bnb-chain/canonical-upgradeable-bep20/contracts/BEP20TokenImplementation.sol\":3925:3932  spender */\n      dup4\n        /* \"github/bnb-chain/canonical-upgradeable-bep20/contracts/BEP20TokenImplementation.sol\":3906:3933  _allowances[owner][spender] */\n      0xffffffffffffffffffffffffffffffffffffffff\n      and\n      0xffffffffffffffffffffffffffffffffffffffff\n      and\n      dup2\n      mstore\n      0x20\n      add\n      swap1\n      dup2\n      mstore\n      0x20\n      add\n      0x00\n      keccak256\n      sload\n        /* \"github/bnb-chain/canonical-upgradeable-bep20/contracts/BEP20TokenImplementation.sol\":3899:3933  return _allowances[owner][spender] */\n      swap1\n      pop\n        /* \"github/bnb-chain/canonical-upgradeable-bep20/contracts/BEP20TokenImplementation.sol\":3797:3940  function allowance(address owner, address spender) external override view returns (uint256) {... */\n      swap3\n      swap2\n      pop\n      pop\n      jump\t// out\n        /* \"github/bnb-chain/canonical-upgradeable-bep20/contracts/BEP20TokenImplementation.sol\":1103:1415  function initialize(string memory name, string memory symbol, uint8 decimals, uint256 amount, bool mintable, address owner) public initializer {... */\n    tag_95:\n        /* \"openzeppelin-solidity/contracts/proxy/Initializable.sol\":1501:1514  _initializing */\n      0x00\n      0x01\n      swap1\n      sload\n      swap1\n      0x0100\n      exp\n      swap1\n      div\n      0xff\n      and\n        /* \"openzeppelin-solidity/contracts/proxy/Initializable.sol\":1501:1534  _initializing || _isConstructor() */\n      dup1\n      tag_177\n      jumpi\n      pop\n        /* \"openzeppelin-solidity/contracts/proxy/Initializable.sol\":1518:1534  _isConstructor() */\n      tag_178\n        /* \"openzeppelin-solidity/contracts/proxy/Initializable.sol\":1518:1532  _isConstructor */\n      tag_179\n        /* \"openzeppelin-solidity/contracts/proxy/Initializable.sol\":1518:1534  _isConstructor() */\n      jump\t// in\n    tag_178:\n        /* \"openzeppelin-solidity/contracts/proxy/Initializable.sol\":1501:1534  _initializing || _isConstructor() */\n    tag_177:\n        /* \"openzeppelin-solidity/contracts/proxy/Initializable.sol\":1501:1551  _initializing || _isConstructor() || !_initialized */\n      dup1\n      tag_180\n      jumpi\n      pop\n        /* \"openzeppelin-solidity/contracts/proxy/Initializable.sol\":1539:1551  _initialized */\n      0x00\n      dup1\n      swap1\n      sload\n      swap1\n      0x0100\n      exp\n      swap1\n      div\n      0xff\n      and\n        /* \"openzeppelin-solidity/contracts/proxy/Initializable.sol\":1538:1551  !_initialized */\n      iszero\n        /* \"openzeppelin-solidity/contracts/proxy/Initializable.sol\":1501:1551  _initializing || _isConstructor() || !_initialized */\n    tag_180:\n        /* \"openzeppelin-solidity/contracts/proxy/Initializable.sol\":1493:1602  require(_initializing || _isConstructor() || !_initialized, \"Initializable: contract is already initialized\") */\n      tag_181\n      jumpi\n      mload(0x40)\n      0x08c379a000000000000000000000000000000000000000000000000000000000\n      dup2\n      mstore\n      0x04\n      add\n      dup1\n      dup1\n      0x20\n      add\n      dup3\n      dup2\n      sub\n      dup3\n      mstore\n      0x2e\n      dup2\n      mstore\n      0x20\n      add\n      dup1\n      data_7a2a4e26842155ea933fe6eb6e3137eb5a296dcdf55721c552be7b4c3cc23759\n      0x2e\n      swap2\n      codecopy\n      0x40\n      add\n      swap2\n      pop\n      pop\n      mload(0x40)\n      dup1\n      swap2\n      sub\n      swap1\n      revert\n    tag_181:\n        /* \"openzeppelin-solidity/contracts/proxy/Initializable.sol\":1613:1632  bool isTopLevelCall */\n      0x00\n        /* \"openzeppelin-solidity/contracts/proxy/Initializable.sol\":1636:1649  _initializing */\n      dup1\n      0x01\n      swap1\n      sload\n      swap1\n      0x0100\n      exp\n      swap1\n      div\n      0xff\n      and\n        /* \"openzeppelin-solidity/contracts/proxy/Initializable.sol\":1635:1649  !_initializing */\n      iszero\n        /* \"openzeppelin-solidity/contracts/proxy/Initializable.sol\":1613:1649  bool isTopLevelCall = !_initializing */\n      swap1\n      pop\n        /* \"openzeppelin-solidity/contracts/proxy/Initializable.sol\":1663:1677  isTopLevelCall */\n      dup1\n        /* \"openzeppelin-solidity/contracts/proxy/Initializable.sol\":1659:1757  if (isTopLevelCall) {... */\n      iszero\n      tag_182\n      jumpi\n        /* \"openzeppelin-solidity/contracts/proxy/Initializable.sol\":1709:1713  true */\n      0x01\n        /* \"openzeppelin-solidity/contracts/proxy/Initializable.sol\":1693:1706  _initializing */\n      0x00\n      0x01\n        /* \"openzeppelin-solidity/contracts/proxy/Initializable.sol\":1693:1713  _initializing = true */\n      0x0100\n      exp\n      dup2\n      sload\n      dup2\n      0xff\n      mul\n      not\n      and\n      swap1\n      dup4\n      iszero\n      iszero\n      mul\n      or\n      swap1\n      sstore\n      pop\n        /* \"openzeppelin-solidity/contracts/proxy/Initializable.sol\":1742:1746  true */\n      0x01\n        /* \"openzeppelin-solidity/contracts/proxy/Initializable.sol\":1727:1739  _initialized */\n      0x00\n      dup1\n        /* \"openzeppelin-solidity/contracts/proxy/Initializable.sol\":1727:1746  _initialized = true */\n      0x0100\n      exp\n      dup2\n      sload\n      dup2\n      0xff\n      mul\n      not\n      and\n      swap1\n      dup4\n      iszero\n      iszero\n      mul\n      or\n      swap1\n      sstore\n      pop\n        /* \"openzeppelin-solidity/contracts/proxy/Initializable.sol\":1659:1757  if (isTopLevelCall) {... */\n    tag_182:\n        /* \"github/bnb-chain/canonical-upgradeable-bep20/contracts/BEP20TokenImplementation.sol\":1265:1270  owner */\n      dup2\n        /* \"github/bnb-chain/canonical-upgradeable-bep20/contracts/BEP20TokenImplementation.sol\":1256:1262  _owner */\n      0x06\n      0x01\n        /* \"github/bnb-chain/canonical-upgradeable-bep20/contracts/BEP20TokenImplementation.sol\":1256:1270  _owner = owner */\n      0x0100\n      exp\n      dup2\n      sload\n      dup2\n      0xffffffffffffffffffffffffffffffffffffffff\n      mul\n      not\n      and\n      swap1\n      dup4\n      0xffffffffffffffffffffffffffffffffffffffff\n      and\n      mul\n      or\n      swap1\n      sstore\n      pop\n        /* \"github/bnb-chain/canonical-upgradeable-bep20/contracts/BEP20TokenImplementation.sol\":1288:1292  name */\n      dup7\n        /* \"github/bnb-chain/canonical-upgradeable-bep20/contracts/BEP20TokenImplementation.sol\":1280:1285  _name */\n      0x04\n        /* \"github/bnb-chain/canonical-upgradeable-bep20/contracts/BEP20TokenImplementation.sol\":1280:1292  _name = name */\n      swap1\n      dup1\n      mload\n      swap1\n      0x20\n      add\n      swap1\n      tag_184\n      swap3\n      swap2\n      swap1\n      tag_185\n      jump\t// in\n    tag_184:\n      pop\n        /* \"github/bnb-chain/canonical-upgradeable-bep20/contracts/BEP20TokenImplementation.sol\":1312:1318  symbol */\n      dup6\n        /* \"github/bnb-chain/canonical-upgradeable-bep20/contracts/BEP20TokenImplementation.sol\":1302:1309  _symbol */\n      0x05\n        /* \"github/bnb-chain/canonical-upgradeable-bep20/contracts/BEP20TokenImplementation.sol\":1302:1318  _symbol = symbol */\n      swap1\n      dup1\n      mload\n      swap1\n      0x20\n      add\n      swap1\n      tag_186\n      swap3\n      swap2\n      swap1\n      tag_185\n      jump\t// in\n    tag_186:\n      pop\n        /* \"github/bnb-chain/canonical-upgradeable-bep20/contracts/BEP20TokenImplementation.sol\":1340:1348  decimals */\n      dup5\n        /* \"github/bnb-chain/canonical-upgradeable-bep20/contracts/BEP20TokenImplementation.sol\":1328:1337  _decimals */\n      0x06\n      0x00\n        /* \"github/bnb-chain/canonical-upgradeable-bep20/contracts/BEP20TokenImplementation.sol\":1328:1348  _decimals = decimals */\n      0x0100\n      exp\n      dup2\n      sload\n      dup2\n      0xff\n      mul\n      not\n      and\n      swap1\n      dup4\n      0xff\n      and\n      mul\n      or\n      swap1\n      sstore\n      pop\n        /* \"github/bnb-chain/canonical-upgradeable-bep20/contracts/BEP20TokenImplementation.sol\":1370:1378  mintable */\n      dup3\n        /* \"github/bnb-chain/canonical-upgradeable-bep20/contracts/BEP20TokenImplementation.sol\":1358:1367  _mintable */\n      0x06\n      0x15\n        /* \"github/bnb-chain/canonical-upgradeable-bep20/contracts/BEP20TokenImplementation.sol\":1358:1378  _mintable = mintable */\n      0x0100\n      exp\n      dup2\n      sload\n      dup2\n      0xff\n      mul\n      not\n      and\n      swap1\n      dup4\n      iszero\n      iszero\n      mul\n      or\n      swap1\n      sstore\n      pop\n        /* \"github/bnb-chain/canonical-upgradeable-bep20/contracts/BEP20TokenImplementation.sol\":1388:1408  _mint(owner, amount) */\n      tag_187\n        /* \"github/bnb-chain/canonical-upgradeable-bep20/contracts/BEP20TokenImplementation.sol\":1394:1399  owner */\n      dup3\n        /* \"github/bnb-chain/canonical-upgradeable-bep20/contracts/BEP20TokenImplementation.sol\":1401:1407  amount */\n      dup6\n        /* \"github/bnb-chain/canonical-upgradeable-bep20/contracts/BEP20TokenImplementation.sol\":1388:1393  _mint */\n      tag_166\n        /* \"github/bnb-chain/canonical-upgradeable-bep20/contracts/BEP20TokenImplementation.sol\":1388:1408  _mint(owner, amount) */\n      jump\t// in\n    tag_187:\n        /* \"openzeppelin-solidity/contracts/proxy/Initializable.sol\":1783:1797  isTopLevelCall */\n      dup1\n        /* \"openzeppelin-solidity/contracts/proxy/Initializable.sol\":1779:1845  if (isTopLevelCall) {... */\n      iszero\n      tag_188\n      jumpi\n        /* \"openzeppelin-solidity/contracts/proxy/Initializable.sol\":1829:1834  false */\n      0x00\n        /* \"openzeppelin-solidity/contracts/proxy/Initializable.sol\":1813:1826  _initializing */\n      dup1\n      0x01\n        /* \"openzeppelin-solidity/contracts/proxy/Initializable.sol\":1813:1834  _initializing = false */\n      0x0100\n      exp\n      dup2\n      sload\n      dup2\n      0xff\n      mul\n      not\n      and\n      swap1\n      dup4\n      iszero\n      iszero\n      mul\n      or\n      swap1\n      sstore\n      pop\n        /* \"openzeppelin-solidity/contracts/proxy/Initializable.sol\":1779:1845  if (isTopLevelCall) {... */\n    tag_188:\n        /* \"github/bnb-chain/canonical-upgradeable-bep20/contracts/BEP20TokenImplementation.sol\":1103:1415  function initialize(string memory name, string memory symbol, uint8 decimals, uint256 amount, bool mintable, address owner) public initializer {... */\n      pop\n      pop\n      pop\n      pop\n      pop\n      pop\n      pop\n      jump\t// out\n        /* \"github/bnb-chain/canonical-upgradeable-bep20/contracts/BEP20TokenImplementation.sol\":2037:2269  function transferOwnership(address newOwner) public onlyOwner {... */\n    tag_98:\n        /* \"github/bnb-chain/canonical-upgradeable-bep20/contracts/BEP20TokenImplementation.sol\":967:979  _msgSender() */\n      tag_190\n        /* \"github/bnb-chain/canonical-upgradeable-bep20/contracts/BEP20TokenImplementation.sol\":967:977  _msgSender */\n      tag_106\n        /* \"github/bnb-chain/canonical-upgradeable-bep20/contracts/BEP20TokenImplementation.sol\":967:979  _msgSender() */\n      jump\t// in\n    tag_190:\n        /* \"github/bnb-chain/canonical-upgradeable-bep20/contracts/BEP20TokenImplementation.sol\":957:979  _owner == _msgSender() */\n      0xffffffffffffffffffffffffffffffffffffffff\n      and\n        /* \"github/bnb-chain/canonical-upgradeable-bep20/contracts/BEP20TokenImplementation.sol\":957:963  _owner */\n      0x06\n      0x01\n      swap1\n      sload\n      swap1\n      0x0100\n      exp\n      swap1\n      div\n      0xffffffffffffffffffffffffffffffffffffffff\n      and\n        /* \"github/bnb-chain/canonical-upgradeable-bep20/contracts/BEP20TokenImplementation.sol\":957:979  _owner == _msgSender() */\n      0xffffffffffffffffffffffffffffffffffffffff\n      and\n      eq\n        /* \"github/bnb-chain/canonical-upgradeable-bep20/contracts/BEP20TokenImplementation.sol\":949:1016  require(_owner == _msgSender(), \"Ownable: caller is not the owner\") */\n      tag_191\n      jumpi\n      mload(0x40)\n      0x08c379a000000000000000000000000000000000000000000000000000000000\n      dup2\n      mstore\n      0x04\n      add\n      dup1\n      dup1\n      0x20\n      add\n      dup3\n      dup2\n      sub\n      dup3\n      mstore\n      0x20\n      dup2\n      mstore\n      0x20\n      add\n      dup1\n      0x4f776e61626c653a2063616c6c6572206973206e6f7420746865206f776e6572\n      dup2\n      mstore\n      pop\n      0x20\n      add\n      swap2\n      pop\n      pop\n      mload(0x40)\n      dup1\n      swap2\n      sub\n      swap1\n      revert\n    tag_191:\n        /* \"github/bnb-chain/canonical-upgradeable-bep20/contracts/BEP20TokenImplementation.sol\":2137:2138  0 */\n      0x00\n        /* \"github/bnb-chain/canonical-upgradeable-bep20/contracts/BEP20TokenImplementation.sol\":2117:2139  newOwner != address(0) */\n      0xffffffffffffffffffffffffffffffffffffffff\n      and\n        /* \"github/bnb-chain/canonical-upgradeable-bep20/contracts/BEP20TokenImplementation.sol\":2117:2125  newOwner */\n      dup2\n        /* \"github/bnb-chain/canonical-upgradeable-bep20/contracts/BEP20TokenImplementation.sol\":2117:2139  newOwner != address(0) */\n      0xffffffffffffffffffffffffffffffffffffffff\n      and\n      eq\n      iszero\n        /* \"github/bnb-chain/canonical-upgradeable-bep20/contracts/BEP20TokenImplementation.sol\":2109:2182  require(newOwner != address(0), \"Ownable: new owner is the zero address\") */\n      tag_193\n      jumpi\n      mload(0x40)\n      0x08c379a000000000000000000000000000000000000000000000000000000000\n      dup2\n      mstore\n      0x04\n      add\n      dup1\n      dup1\n      0x20\n      add\n      dup3\n      dup2\n      sub\n      dup3\n      mstore\n      0x26\n      dup2\n      mstore\n      0x20\n      add\n      dup1\n      data_245f15ff17f551913a7a18385165551503906a406f905ac1c2437281a7cd0cfe\n      0x26\n      swap2\n      codecopy\n      0x40\n      add\n      swap2\n      pop\n      pop\n      mload(0x40)\n      dup1\n      swap2\n      sub\n      swap1\n      revert\n    tag_193:\n        /* \"github/bnb-chain/canonical-upgradeable-bep20/contracts/BEP20TokenImplementation.sol\":2226:2234  newOwner */\n      dup1\n        /* \"github/bnb-chain/canonical-upgradeable-bep20/contracts/BEP20TokenImplementation.sol\":2197:2235  OwnershipTransferred(_owner, newOwner) */\n      0xffffffffffffffffffffffffffffffffffffffff\n      and\n        /* \"github/bnb-chain/canonical-upgradeable-bep20/contracts/BEP20TokenImplementation.sol\":2218:2224  _owner */\n      0x06\n      0x01\n      swap1\n      sload\n      swap1\n      0x0100\n      exp\n      swap1\n      div\n      0xffffffffffffffffffffffffffffffffffffffff\n      and\n        /* \"github/bnb-chain/canonical-upgradeable-bep20/contracts/BEP20TokenImplementation.sol\":2197:2235  OwnershipTransferred(_owner, newOwner) */\n      0xffffffffffffffffffffffffffffffffffffffff\n      and\n      0x8be0079c531659141344cd1fd0a4f28419497f9722a3daafe3b4186f6b6457e0\n      mload(0x40)\n      mload(0x40)\n      dup1\n      swap2\n      sub\n      swap1\n      log3\n        /* \"github/bnb-chain/canonical-upgradeable-bep20/contracts/BEP20TokenImplementation.sol\":2254:2262  newOwner */\n      dup1\n        /* \"github/bnb-chain/canonical-upgradeable-bep20/contracts/BEP20TokenImplementation.sol\":2245:2251  _owner */\n      0x06\n      0x01\n        /* \"github/bnb-chain/canonical-upgradeable-bep20/contracts/BEP20TokenImplementation.sol\":2245:2262  _owner = newOwner */\n      0x0100\n      exp\n      dup2\n      sload\n      dup2\n      0xffffffffffffffffffffffffffffffffffffffff\n      mul\n      not\n      and\n      swap1\n      dup4\n      0xffffffffffffffffffffffffffffffffffffffff\n      and\n      mul\n      or\n      swap1\n      sstore\n      pop\n        /* \"github/bnb-chain/canonical-upgradeable-bep20/contracts/BEP20TokenImplementation.sol\":2037:2269  function transferOwnership(address newOwner) public onlyOwner {... */\n      pop\n      jump\t// out\n        /* \"openzeppelin-solidity/contracts/utils/Context.sol\":598:702  function _msgSender() internal view virtual returns (address payable) {... */\n    tag_106:\n        /* \"openzeppelin-solidity/contracts/utils/Context.sol\":651:666  address payable */\n      0x00\n        /* \"openzeppelin-solidity/contracts/utils/Context.sol\":685:695  msg.sender */\n      caller\n        /* \"openzeppelin-solidity/contracts/utils/Context.sol\":678:695  return msg.sender */\n      swap1\n      pop\n        /* \"openzeppelin-solidity/contracts/utils/Context.sol\":598:702  function _msgSender() internal view virtual returns (address payable) {... */\n      swap1\n      jump\t// out\n        /* \"github/bnb-chain/canonical-upgradeable-bep20/contracts/BEP20TokenImplementation.sol\":9789:10121  function _approve(address owner, address spender, uint256 amount) internal {... */\n    tag_107:\n        /* \"github/bnb-chain/canonical-upgradeable-bep20/contracts/BEP20TokenImplementation.sol\":9899:9900  0 */\n      0x00\n        /* \"github/bnb-chain/canonical-upgradeable-bep20/contracts/BEP20TokenImplementation.sol\":9882:9901  owner != address(0) */\n      0xffffffffffffffffffffffffffffffffffffffff\n      and\n        /* \"github/bnb-chain/canonical-upgradeable-bep20/contracts/BEP20TokenImplementation.sol\":9882:9887  owner */\n      dup4\n        /* \"github/bnb-chain/canonical-upgradeable-bep20/contracts/BEP20TokenImplementation.sol\":9882:9901  owner != address(0) */\n      0xffffffffffffffffffffffffffffffffffffffff\n      and\n      eq\n      iszero\n        /* \"github/bnb-chain/canonical-upgradeable-bep20/contracts/BEP20TokenImplementation.sol\":9874:9942  require(owner != address(0), \"BEP20: approve from the zero address\") */\n      tag_196\n      jumpi\n      mload(0x40)\n      0x08c379a000000000000000000000000000000000000000000000000000000000\n      dup2\n      mstore\n      0x04\n      add\n      dup1\n      dup1\n      0x20\n      add\n      dup3\n      dup2\n      sub\n      dup3\n      mstore\n      0x24\n      dup2\n      mstore\n      0x20\n      add\n      dup1\n      data_1441cfbef485de93bedecc35b3d10fa2992db382c4c9c583a6e423a140abe4a4\n      0x24\n      swap2\n      codecopy\n      0x40\n      add\n      swap2\n      pop\n      pop\n      mload(0x40)\n      dup1\n      swap2\n      sub\n      swap1\n      revert\n    tag_196:\n        /* \"github/bnb-chain/canonical-upgradeable-bep20/contracts/BEP20TokenImplementation.sol\":9979:9980  0 */\n      0x00\n        /* \"github/bnb-chain/canonical-upgradeable-bep20/contracts/BEP20TokenImplementation.sol\":9960:9981  spender != address(0) */\n      0xffffffffffffffffffffffffffffffffffffffff\n      and\n        /* \"github/bnb-chain/canonical-upgradeable-bep20/contracts/BEP20TokenImplementation.sol\":9960:9967  spender */\n      dup3\n        /* \"github/bnb-chain/canonical-upgradeable-bep20/contracts/BEP20TokenImplementation.sol\":9960:9981  spender != address(0) */\n      0xffffffffffffffffffffffffffffffffffffffff\n      and\n      eq\n      iszero\n        /* \"github/bnb-chain/canonical-upgradeable-bep20/contracts/BEP20TokenImplementation.sol\":9952:10020  require(spender != address(0), \"BEP20: approve to the zero address\") */\n      tag_197\n      jumpi\n      mload(0x40)\n      0x08c379a000000000000000000000000000000000000000000000000000000000\n      dup2\n      mstore\n      0x04\n      add\n      dup1\n      dup1\n      0x20\n      add\n      dup3\n      dup2\n      sub\n      dup3\n      mstore\n      0x22\n      dup2\n      mstore\n      0x20\n      add\n      dup1\n      data_f10e7571e18b354270dee950932fb6a745efc79414b2b2556185a4ed6a1af0d5\n      0x22\n      swap2\n      codecopy\n      0x40\n      add\n      swap2\n      pop\n      pop\n      mload(0x40)\n      dup1\n      swap2\n      sub\n      swap1\n      revert\n    tag_197:\n        /* \"github/bnb-chain/canonical-upgradeable-bep20/contracts/BEP20TokenImplementation.sol\":10061:10067  amount */\n      dup1\n        /* \"github/bnb-chain/canonical-upgradeable-bep20/contracts/BEP20TokenImplementation.sol\":10031:10042  _allowances */\n      0x02\n        /* \"github/bnb-chain/canonical-upgradeable-bep20/contracts/BEP20TokenImplementation.sol\":10031:10049  _allowances[owner] */\n      0x00\n        /* \"github/bnb-chain/canonical-upgradeable-bep20/contracts/BEP20TokenImplementation.sol\":10043:10048  owner */\n      dup6\n        /* \"github/bnb-chain/canonical-upgradeable-bep20/contracts/BEP20TokenImplementation.sol\":10031:10049  _allowances[owner] */\n      0xffffffffffffffffffffffffffffffffffffffff\n      and\n      0xffffffffffffffffffffffffffffffffffffffff\n      and\n      dup2\n      mstore\n      0x20\n      add\n      swap1\n      dup2\n      mstore\n      0x20\n      add\n      0x00\n      keccak256\n        /* \"github/bnb-chain/canonical-upgradeable-bep20/contracts/BEP20TokenImplementation.sol\":10031:10058  _allowances[owner][spender] */\n      0x00\n        /* \"github/bnb-chain/canonical-upgradeable-bep20/contracts/BEP20TokenImplementation.sol\":10050:10057  spender */\n      dup5\n        /* \"github/bnb-chain/canonical-upgradeable-bep20/contracts/BEP20TokenImplementation.sol\":10031:10058  _allowances[owner][spender] */\n      0xffffffffffffffffffffffffffffffffffffffff\n      and\n      0xffffffffffffffffffffffffffffffffffffffff\n      and\n      dup2\n      mstore\n      0x20\n      add\n      swap1\n      dup2\n      mstore\n      0x20\n      add\n      0x00\n      keccak256\n        /* \"github/bnb-chain/canonical-upgradeable-bep20/contracts/BEP20TokenImplementation.sol\":10031:10067  _allowances[owner][spender] = amount */\n      dup2\n      swap1\n      sstore\n      pop\n        /* \"github/bnb-chain/canonical-upgradeable-bep20/contracts/BEP20TokenImplementation.sol\":10098:10105  spender */\n      dup2\n        /* \"github/bnb-chain/canonical-upgradeable-bep20/contracts/BEP20TokenImplementation.sol\":10082:10114  Approval(owner, spender, amount) */\n      0xffffffffffffffffffffffffffffffffffffffff\n      and\n        /* \"github/bnb-chain/canonical-upgradeable-bep20/contracts/BEP20TokenImplementation.sol\":10091:10096  owner */\n      dup4\n        /* \"github/bnb-chain/canonical-upgradeable-bep20/contracts/BEP20TokenImplementation.sol\":10082:10114  Approval(owner, spender, amount) */\n      0xffffffffffffffffffffffffffffffffffffffff\n      and\n      0x8c5be1e5ebec7d5bd14f71427d1e84f3dd0314c0f7b2291e5b200ac8c7c3b925\n        /* \"github/bnb-chain/canonical-upgradeable-bep20/contracts/BEP20TokenImplementation.sol\":10107:10113  amount */\n      dup4\n        /* \"github/bnb-chain/canonical-upgradeable-bep20/contracts/BEP20TokenImplementation.sol\":10082:10114  Approval(owner, spender, amount) */\n      mload(0x40)\n      dup1\n      dup3\n      dup2\n      mstore\n      0x20\n      add\n      swap2\n      pop\n      pop\n      mload(0x40)\n      dup1\n      swap2\n      sub\n      swap1\n      log3\n        /* \"github/bnb-chain/canonical-upgradeable-bep20/contracts/BEP20TokenImplementation.sol\":9789:10121  function _approve(address owner, address spender, uint256 amount) internal {... */\n      pop\n      pop\n      pop\n      jump\t// out\n        /* \"github/bnb-chain/canonical-upgradeable-bep20/contracts/BEP20TokenImplementation.sol\":7452:8131  function _transfer(address sender, address recipient, uint256 amount) internal {... */\n    tag_111:\n        /* \"github/bnb-chain/canonical-upgradeable-bep20/contracts/BEP20TokenImplementation.sol\":7550:7563  isBlacklisted */\n      0x07\n        /* \"github/bnb-chain/canonical-upgradeable-bep20/contracts/BEP20TokenImplementation.sol\":7550:7574  isBlacklisted[recipient] */\n      0x00\n        /* \"github/bnb-chain/canonical-upgradeable-bep20/contracts/BEP20TokenImplementation.sol\":7564:7573  recipient */\n      dup4\n        /* \"github/bnb-chain/canonical-upgradeable-bep20/contracts/BEP20TokenImplementation.sol\":7550:7574  isBlacklisted[recipient] */\n      0xffffffffffffffffffffffffffffffffffffffff\n      and\n      0xffffffffffffffffffffffffffffffffffffffff\n      and\n      dup2\n      mstore\n      0x20\n      add\n      swap1\n      dup2\n      mstore\n      0x20\n      add\n      0x00\n      keccak256\n      0x00\n      swap1\n      sload\n      swap1\n      0x0100\n      exp\n      swap1\n      div\n      0xff\n      and\n        /* \"github/bnb-chain/canonical-upgradeable-bep20/contracts/BEP20TokenImplementation.sol\":7549:7574  !isBlacklisted[recipient] */\n      iszero\n        /* \"github/bnb-chain/canonical-upgradeable-bep20/contracts/BEP20TokenImplementation.sol\":7541:7602  require(!isBlacklisted[recipient], \"recipient is backlisted\") */\n      tag_199\n      jumpi\n      mload(0x40)\n      0x08c379a000000000000000000000000000000000000000000000000000000000\n      dup2\n      mstore\n      0x04\n      add\n      dup1\n      dup1\n      0x20\n      add\n      dup3\n      dup2\n      sub\n      dup3\n      mstore\n      0x17\n      dup2\n      mstore\n      0x20\n      add\n      dup1\n      0x726563697069656e74206973206261636b6c6973746564000000000000000000\n      dup2\n      mstore\n      pop\n      0x20\n      add\n      swap2\n      pop\n      pop\n      mload(0x40)\n      dup1\n      swap2\n      sub\n      swap1\n      revert\n    tag_199:\n        /* \"github/bnb-chain/canonical-upgradeable-bep20/contracts/BEP20TokenImplementation.sol\":7621:7634  isBlacklisted */\n      0x07\n        /* \"github/bnb-chain/canonical-upgradeable-bep20/contracts/BEP20TokenImplementation.sol\":7621:7642  isBlacklisted[sender] */\n      0x00\n        /* \"github/bnb-chain/canonical-upgradeable-bep20/contracts/BEP20TokenImplementation.sol\":7635:7641  sender */\n      dup5\n        /* \"github/bnb-chain/canonical-upgradeable-bep20/contracts/BEP20TokenImplementation.sol\":7621:7642  isBlacklisted[sender] */\n      0xffffffffffffffffffffffffffffffffffffffff\n      and\n      0xffffffffffffffffffffffffffffffffffffffff\n      and\n      dup2\n      mstore\n      0x20\n      add\n      swap1\n      dup2\n      mstore\n      0x20\n      add\n      0x00\n      keccak256\n      0x00\n      swap1\n      sload\n      swap1\n      0x0100\n      exp\n      swap1\n      div\n      0xff\n      and\n        /* \"github/bnb-chain/canonical-upgradeable-bep20/contracts/BEP20TokenImplementation.sol\":7620:7642  !isBlacklisted[sender] */\n      iszero\n        /* \"github/bnb-chain/canonical-upgradeable-bep20/contracts/BEP20TokenImplementation.sol\":7612:7667  require(!isBlacklisted[sender], \"sender is backlisted\") */\n      tag_200\n      jumpi\n      mload(0x40)\n      0x08c379a000000000000000000000000000000000000000000000000000000000\n      dup2\n      mstore\n      0x04\n      add\n      dup1\n      dup1\n      0x20\n      add\n      dup3\n      dup2\n      sub\n      dup3\n      mstore\n      0x14\n      dup2\n      mstore\n      0x20\n      add\n      dup1\n      0x73656e646572206973206261636b6c6973746564000000000000000000000000\n      dup2\n      mstore\n      pop\n      0x20\n      add\n      swap2\n      pop\n      pop\n      mload(0x40)\n      dup1\n      swap2\n      sub\n      swap1\n      revert\n    tag_200:\n        /* \"github/bnb-chain/canonical-upgradeable-bep20/contracts/BEP20TokenImplementation.sol\":7686:7694  isPaused */\n      0x06\n      0x16\n      swap1\n      sload\n      swap1\n      0x0100\n      exp\n      swap1\n      div\n      0xff\n      and\n        /* \"github/bnb-chain/canonical-upgradeable-bep20/contracts/BEP20TokenImplementation.sol\":7685:7694  !isPaused */\n      iszero\n        /* \"github/bnb-chain/canonical-upgradeable-bep20/contracts/BEP20TokenImplementation.sol\":7677:7746  require(!isPaused, \"token operations paused due to security reasons\") */\n      tag_201\n      jumpi\n      mload(0x40)\n      0x08c379a000000000000000000000000000000000000000000000000000000000\n      dup2\n      mstore\n      0x04\n      add\n      dup1\n      dup1\n      0x20\n      add\n      dup3\n      dup2\n      sub\n      dup3\n      mstore\n      0x2f\n      dup2\n      mstore\n      0x20\n      add\n      dup1\n      data_28dc9a1d7fb79e3f8d5f513efc3842febbeda11bf422847cf16844ad128530af\n      0x2f\n      swap2\n      codecopy\n      0x40\n      add\n      swap2\n      pop\n      pop\n      mload(0x40)\n      dup1\n      swap2\n      sub\n      swap1\n      revert\n    tag_201:\n        /* \"github/bnb-chain/canonical-upgradeable-bep20/contracts/BEP20TokenImplementation.sol\":7782:7783  0 */\n      0x00\n        /* \"github/bnb-chain/canonical-upgradeable-bep20/contracts/BEP20TokenImplementation.sol\":7764:7784  sender != address(0) */\n      0xffffffffffffffffffffffffffffffffffffffff\n      and\n        /* \"github/bnb-chain/canonical-upgradeable-bep20/contracts/BEP20TokenImplementation.sol\":7764:7770  sender */\n      dup4\n        /* \"github/bnb-chain/canonical-upgradeable-bep20/contracts/BEP20TokenImplementation.sol\":7764:7784  sender != address(0) */\n      0xffffffffffffffffffffffffffffffffffffffff\n      and\n      eq\n      iszero\n        /* \"github/bnb-chain/canonical-upgradeable-bep20/contracts/BEP20TokenImplementation.sol\":7756:7826  require(sender != address(0), \"BEP20: transfer from the zero address\") */\n      tag_202\n      jumpi\n      mload(0x40)\n      0x08c379a000000000000000000000000000000000000000000000000000000000\n      dup2\n      mstore\n      0x04\n      add\n      dup1\n      dup1\n      0x20\n      add\n      dup3\n      dup2\n      sub\n      dup3\n      mstore\n      0x25\n      dup2\n      mstore\n      0x20\n      add\n      dup1\n      data_0d26cf302d50b28de74be656b11d67092b32131e5712d1bcf08c4e976dacda57\n      0x25\n      swap2\n      codecopy\n      0x40\n      add\n      swap2\n      pop\n      pop\n      mload(0x40)\n      dup1\n      swap2\n      sub\n      swap1\n      revert\n    tag_202:\n        /* \"github/bnb-chain/canonical-upgradeable-bep20/contracts/BEP20TokenImplementation.sol\":7865:7866  0 */\n      0x00\n        /* \"github/bnb-chain/canonical-upgradeable-bep20/contracts/BEP20TokenImplementation.sol\":7844:7867  recipient != address(0) */\n      0xffffffffffffffffffffffffffffffffffffffff\n      and\n        /* \"github/bnb-chain/canonical-upgradeable-bep20/contracts/BEP20TokenImplementation.sol\":7844:7853  recipient */\n      dup3\n        /* \"github/bnb-chain/canonical-upgradeable-bep20/contracts/BEP20TokenImplementation.sol\":7844:7867  recipient != address(0) */\n      0xffffffffffffffffffffffffffffffffffffffff\n      and\n      eq\n      iszero\n        /* \"github/bnb-chain/canonical-upgradeable-bep20/contracts/BEP20TokenImplementation.sol\":7836:7907  require(recipient != address(0), \"BEP20: transfer to the zero address\") */\n      tag_203\n      jumpi\n      mload(0x40)\n      0x08c379a000000000000000000000000000000000000000000000000000000000\n      dup2\n      mstore\n      0x04\n      add\n      dup1\n      dup1\n      0x20\n      add\n      dup3\n      dup2\n      sub\n      dup3\n      mstore\n      0x23\n      dup2\n      mstore\n      0x20\n      add\n      dup1\n      data_ade9efcb59e42e439ffe61509b352b1af56d64ccb68d80b039b7b69578f371d2\n      0x23\n      swap2\n      codecopy\n      0x40\n      add\n      swap2\n      pop\n      pop\n      mload(0x40)\n      dup1\n      swap2\n      sub\n      swap1\n      revert\n    tag_203:\n        /* \"github/bnb-chain/canonical-upgradeable-bep20/contracts/BEP20TokenImplementation.sol\":7938:8009  _balances[sender].sub(amount, \"BEP20: transfer amount exceeds balance\") */\n      tag_204\n        /* \"github/bnb-chain/canonical-upgradeable-bep20/contracts/BEP20TokenImplementation.sol\":7960:7966  amount */\n      dup2\n        /* \"github/bnb-chain/canonical-upgradeable-bep20/contracts/BEP20TokenImplementation.sol\":7938:8009  _balances[sender].sub(amount, \"BEP20: transfer amount exceeds balance\") */\n      mload(0x40)\n      dup1\n      0x60\n      add\n      0x40\n      mstore\n      dup1\n      0x26\n      dup2\n      mstore\n      0x20\n      add\n      data_a91efd7a65ef5b4ae4d6568d674798b78a5a89184dd296c100513251c22d3e73\n      0x26\n      swap2\n      codecopy\n        /* \"github/bnb-chain/canonical-upgradeable-bep20/contracts/BEP20TokenImplementation.sol\":7938:7947  _balances */\n      0x01\n        /* \"github/bnb-chain/canonical-upgradeable-bep20/contracts/BEP20TokenImplementation.sol\":7938:7955  _balances[sender] */\n      0x00\n        /* \"github/bnb-chain/canonical-upgradeable-bep20/contracts/BEP20TokenImplementation.sol\":7948:7954  sender */\n      dup8\n        /* \"github/bnb-chain/canonical-upgradeable-bep20/contracts/BEP20TokenImplementation.sol\":7938:7955  _balances[sender] */\n      0xffffffffffffffffffffffffffffffffffffffff\n      and\n      0xffffffffffffffffffffffffffffffffffffffff\n      and\n      dup2\n      mstore\n      0x20\n      add\n      swap1\n      dup2\n      mstore\n      0x20\n      add\n      0x00\n      keccak256\n      sload\n        /* \"github/bnb-chain/canonical-upgradeable-bep20/contracts/BEP20TokenImplementation.sol\":7938:7959  _balances[sender].sub */\n      tag_116\n      swap1\n        /* \"github/bnb-chain/canonical-upgradeable-bep20/contracts/BEP20TokenImplementation.sol\":7938:8009  _balances[sender].sub(amount, \"BEP20: transfer amount exceeds balance\") */\n      swap3\n      swap2\n      swap1\n      0xffffffff\n      and\n      jump\t// in\n    tag_204:\n        /* \"github/bnb-chain/canonical-upgradeable-bep20/contracts/BEP20TokenImplementation.sol\":7918:7927  _balances */\n      0x01\n        /* \"github/bnb-chain/canonical-upgradeable-bep20/contracts/BEP20TokenImplementation.sol\":7918:7935  _balances[sender] */\n      0x00\n        /* \"github/bnb-chain/canonical-upgradeable-bep20/contracts/BEP20TokenImplementation.sol\":7928:7934  sender */\n      dup6\n        /* \"github/bnb-chain/canonical-upgradeable-bep20/contracts/BEP20TokenImplementation.sol\":7918:7935  _balances[sender] */\n      0xffffffffffffffffffffffffffffffffffffffff\n      and\n      0xffffffffffffffffffffffffffffffffffffffff\n      and\n      dup2\n      mstore\n      0x20\n      add\n      swap1\n      dup2\n      mstore\n      0x20\n      add\n      0x00\n      keccak256\n        /* \"github/bnb-chain/canonical-upgradeable-bep20/contracts/BEP20TokenImplementation.sol\":7918:8009  _balances[sender] = _balances[sender].sub(amount, \"BEP20: transfer amount exceeds balance\") */\n      dup2\n      swap1\n      sstore\n      pop\n        /* \"github/bnb-chain/canonical-upgradeable-bep20/contracts/BEP20TokenImplementation.sol\":8042:8074  _balances[recipient].add(amount) */\n      tag_205\n        /* \"github/bnb-chain/canonical-upgradeable-bep20/contracts/BEP20TokenImplementation.sol\":8067:8073  amount */\n      dup2\n        /* \"github/bnb-chain/canonical-upgradeable-bep20/contracts/BEP20TokenImplementation.sol\":8042:8051  _balances */\n      0x01\n        /* \"github/bnb-chain/canonical-upgradeable-bep20/contracts/BEP20TokenImplementation.sol\":8042:8062  _balances[recipient] */\n      0x00\n        /* \"github/bnb-chain/canonical-upgradeable-bep20/contracts/BEP20TokenImplementation.sol\":8052:8061  recipient */\n      dup6\n        /* \"github/bnb-chain/canonical-upgradeable-bep20/contracts/BEP20TokenImplementation.sol\":8042:8062  _balances[recipient] */\n      0xffffffffffffffffffffffffffffffffffffffff\n      and\n      0xffffffffffffffffffffffffffffffffffffffff\n      and\n      dup2\n      mstore\n      0x20\n      add\n      swap1\n      dup2\n      mstore\n      0x20\n      add\n      0x00\n      keccak256\n      sload\n        /* \"github/bnb-chain/canonical-upgradeable-bep20/contracts/BEP20TokenImplementation.sol\":8042:8066  _balances[recipient].add */\n      tag_123\n      swap1\n        /* \"github/bnb-chain/canonical-upgradeable-bep20/contracts/BEP20TokenImplementation.sol\":8042:8074  _balances[recipient].add(amount) */\n      swap2\n      swap1\n      0xffffffff\n      and\n      jump\t// in\n    tag_205:\n        /* \"github/bnb-chain/canonical-upgradeable-bep20/contracts/BEP20TokenImplementation.sol\":8019:8028  _balances */\n      0x01\n        /* \"github/bnb-chain/canonical-upgradeable-bep20/contracts/BEP20TokenImplementation.sol\":8019:8039  _balances[recipient] */\n      0x00\n        /* \"github/bnb-chain/canonical-upgradeable-bep20/contracts/BEP20TokenImplementation.sol\":8029:8038  recipient */\n      dup5\n        /* \"github/bnb-chain/canonical-upgradeable-bep20/contracts/BEP20TokenImplementation.sol\":8019:8039  _balances[recipient] */\n      0xffffffffffffffffffffffffffffffffffffffff\n      and\n      0xffffffffffffffffffffffffffffffffffffffff\n      and\n      dup2\n      mstore\n      0x20\n      add\n      swap1\n      dup2\n      mstore\n      0x20\n      add\n      0x00\n      keccak256\n        /* \"github/bnb-chain/canonical-upgradeable-bep20/contracts/BEP20TokenImplementation.sol\":8019:8074  _balances[recipient] = _balances[recipient].add(amount) */\n      dup2\n      swap1\n      sstore\n      pop\n        /* \"github/bnb-chain/canonical-upgradeable-bep20/contracts/BEP20TokenImplementation.sol\":8106:8115  recipient */\n      dup2\n        /* \"github/bnb-chain/canonical-upgradeable-bep20/contracts/BEP20TokenImplementation.sol\":8089:8124  Transfer(sender, recipient, amount) */\n      0xffffffffffffffffffffffffffffffffffffffff\n      and\n        /* \"github/bnb-chain/canonical-upgradeable-bep20/contracts/BEP20TokenImplementation.sol\":8098:8104  sender */\n      dup4\n        /* \"github/bnb-chain/canonical-upgradeable-bep20/contracts/BEP20TokenImplementation.sol\":8089:8124  Transfer(sender, recipient, amount) */\n      0xffffffffffffffffffffffffffffffffffffffff\n      and\n      0xddf252ad1be2c89b69c2b068fc378daa952ba7f163c4a11628f55a4df523b3ef\n        /* \"github/bnb-chain/canonical-upgradeable-bep20/contracts/BEP20TokenImplementation.sol\":8117:8123  amount */\n      dup4\n        /* \"github/bnb-chain/canonical-upgradeable-bep20/contracts/BEP20TokenImplementation.sol\":8089:8124  Transfer(sender, recipient, amount) */\n      mload(0x40)\n      dup1\n      dup3\n      dup2\n      mstore\n      0x20\n      add\n      swap2\n      pop\n      pop\n      mload(0x40)\n      dup1\n      swap2\n      sub\n      swap1\n      log3\n        /* \"github/bnb-chain/canonical-upgradeable-bep20/contracts/BEP20TokenImplementation.sol\":7452:8131  function _transfer(address sender, address recipient, uint256 amount) internal {... */\n      pop\n      pop\n      pop\n      jump\t// out\n        /* \"openzeppelin-solidity/contracts/math/SafeMath.sol\":5432:5595  function sub(uint256 a, uint256 b, string memory errorMessage) internal pure returns (uint256) {... */\n    tag_116:\n        /* \"openzeppelin-solidity/contracts/math/SafeMath.sol\":5518:5525  uint256 */\n      0x00\n        /* \"openzeppelin-solidity/contracts/math/SafeMath.sol\":5550:5551  a */\n      dup4\n        /* \"openzeppelin-solidity/contracts/math/SafeMath.sol\":5545:5546  b */\n      dup4\n        /* \"openzeppelin-solidity/contracts/math/SafeMath.sol\":5545:5551  b <= a */\n      gt\n      iszero\n        /* \"openzeppelin-solidity/contracts/math/SafeMath.sol\":5553:5565  errorMessage */\n      dup3\n        /* \"openzeppelin-solidity/contracts/math/SafeMath.sol\":5537:5566  require(b <= a, errorMessage) */\n      swap1\n      tag_207\n      jumpi\n      mload(0x40)\n      0x08c379a000000000000000000000000000000000000000000000000000000000\n      dup2\n      mstore\n      0x04\n      add\n      dup1\n      dup1\n      0x20\n      add\n      dup3\n      dup2\n      sub\n      dup3\n      mstore\n      dup4\n      dup2\n      dup2\n      mload\n      dup2\n      mstore\n      0x20\n      add\n      swap2\n      pop\n      dup1\n      mload\n      swap1\n      0x20\n      add\n      swap1\n      dup1\n      dup4\n      dup4\n        /* \"--CODEGEN--\":23:24   */\n      0x00\n        /* \"--CODEGEN--\":8:108   */\n    tag_208:\n        /* \"--CODEGEN--\":33:36   */\n      dup4\n        /* \"--CODEGEN--\":30:31   */\n      dup2\n        /* \"--CODEGEN--\":27:37   */\n      lt\n        /* \"--CODEGEN--\":8:108   */\n      iszero\n      tag_210\n      jumpi\n        /* \"--CODEGEN--\":99:100   */\n      dup1\n        /* \"--CODEGEN--\":94:97   */\n      dup3\n        /* \"--CODEGEN--\":90:101   */\n      add\n        /* \"--CODEGEN--\":84:102   */\n      mload\n        /* \"--CODEGEN--\":80:81   */\n      dup2\n        /* \"--CODEGEN--\":75:78   */\n      dup5\n        /* \"--CODEGEN--\":71:82   */\n      add\n        /* \"--CODEGEN--\":64:103   */\n      mstore\n        /* \"--CODEGEN--\":52:54   */\n      0x20\n        /* \"--CODEGEN--\":49:50   */\n      dup2\n        /* \"--CODEGEN--\":45:55   */\n      add\n        /* \"--CODEGEN--\":40:55   */\n      swap1\n      pop\n        /* \"--CODEGEN--\":8:108   */\n      jump(tag_208)\n    tag_210:\n        /* \"--CODEGEN--\":12:26   */\n      pop\n        /* \"openzeppelin-solidity/contracts/math/SafeMath.sol\":5537:5566  require(b <= a, errorMessage) */\n      pop\n      pop\n      pop\n      swap1\n      pop\n      swap1\n      dup2\n      add\n      swap1\n      0x1f\n      and\n      dup1\n      iszero\n      tag_211\n      jumpi\n      dup1\n      dup3\n      sub\n      dup1\n      mload\n      0x01\n      dup4\n      0x20\n      sub\n      0x0100\n      exp\n      sub\n      not\n      and\n      dup2\n      mstore\n      0x20\n      add\n      swap2\n      pop\n    tag_211:\n      pop\n      swap3\n      pop\n      pop\n      pop\n      mload(0x40)\n      dup1\n      swap2\n      sub\n      swap1\n      revert\n    tag_207:\n      pop\n        /* \"openzeppelin-solidity/contracts/math/SafeMath.sol\":5587:5588  b */\n      dup3\n        /* \"openzeppelin-solidity/contracts/math/SafeMath.sol\":5583:5584  a */\n      dup5\n        /* \"openzeppelin-solidity/contracts/math/SafeMath.sol\":5583:5588  a - b */\n      sub\n        /* \"openzeppelin-solidity/contracts/math/SafeMath.sol\":5576:5588  return a - b */\n      swap1\n      pop\n        /* \"openzeppelin-solidity/contracts/math/SafeMath.sol\":5432:5595  function sub(uint256 a, uint256 b, string memory errorMessage) internal pure returns (uint256) {... */\n      swap4\n      swap3\n      pop\n      pop\n      pop\n      jump\t// out\n        /* \"openzeppelin-solidity/contracts/math/SafeMath.sol\":2690:2865  function add(uint256 a, uint256 b) internal pure returns (uint256) {... */\n    tag_123:\n        /* \"openzeppelin-solidity/contracts/math/SafeMath.sol\":2748:2755  uint256 */\n      0x00\n        /* \"openzeppelin-solidity/contracts/math/SafeMath.sol\":2767:2776  uint256 c */\n      dup1\n        /* \"openzeppelin-solidity/contracts/math/SafeMath.sol\":2783:2784  b */\n      dup3\n        /* \"openzeppelin-solidity/contracts/math/SafeMath.sol\":2779:2780  a */\n      dup5\n        /* \"openzeppelin-solidity/contracts/math/SafeMath.sol\":2779:2784  a + b */\n      add\n        /* \"openzeppelin-solidity/contracts/math/SafeMath.sol\":2767:2784  uint256 c = a + b */\n      swap1\n      pop\n        /* \"openzeppelin-solidity/contracts/math/SafeMath.sol\":2807:2808  a */\n      dup4\n        /* \"openzeppelin-solidity/contracts/math/SafeMath.sol\":2802:2803  c */\n      dup2\n        /* \"openzeppelin-solidity/contracts/math/SafeMath.sol\":2802:2808  c >= a */\n      lt\n      iszero\n        /* \"openzeppelin-solidity/contracts/math/SafeMath.sol\":2794:2840  require(c >= a, \"SafeMath: addition overflow\") */\n      tag_213\n      jumpi\n      mload(0x40)\n      0x08c379a000000000000000000000000000000000000000000000000000000000\n      dup2\n      mstore\n      0x04\n      add\n      dup1\n      dup1\n      0x20\n      add\n      dup3\n      dup2\n      sub\n      dup3\n      mstore\n      0x1b\n      dup2\n      mstore\n      0x20\n      add\n      dup1\n      0x536166654d6174683a206164646974696f6e206f766572666c6f770000000000\n      dup2\n      mstore\n      pop\n      0x20\n      add\n      swap2\n      pop\n      pop\n      mload(0x40)\n      dup1\n      swap2\n      sub\n      swap1\n      revert\n    tag_213:\n        /* \"openzeppelin-solidity/contracts/math/SafeMath.sol\":2857:2858  c */\n      dup1\n        /* \"openzeppelin-solidity/contracts/math/SafeMath.sol\":2850:2858  return c */\n      swap2\n      pop\n      pop\n        /* \"openzeppelin-solidity/contracts/math/SafeMath.sol\":2690:2865  function add(uint256 a, uint256 b) internal pure returns (uint256) {... */\n      swap3\n      swap2\n      pop\n      pop\n      jump\t// out\n        /* \"github/bnb-chain/canonical-upgradeable-bep20/contracts/BEP20TokenImplementation.sol\":9022:9364  function _burn(address account, uint256 amount) internal {... */\n    tag_132:\n        /* \"github/bnb-chain/canonical-upgradeable-bep20/contracts/BEP20TokenImplementation.sol\":9116:9117  0 */\n      0x00\n        /* \"github/bnb-chain/canonical-upgradeable-bep20/contracts/BEP20TokenImplementation.sol\":9097:9118  account != address(0) */\n      0xffffffffffffffffffffffffffffffffffffffff\n      and\n        /* \"github/bnb-chain/canonical-upgradeable-bep20/contracts/BEP20TokenImplementation.sol\":9097:9104  account */\n      dup3\n        /* \"github/bnb-chain/canonical-upgradeable-bep20/contracts/BEP20TokenImplementation.sol\":9097:9118  account != address(0) */\n      0xffffffffffffffffffffffffffffffffffffffff\n      and\n      eq\n      iszero\n        /* \"github/bnb-chain/canonical-upgradeable-bep20/contracts/BEP20TokenImplementation.sol\":9089:9156  require(account != address(0), \"BEP20: burn from the zero address\") */\n      tag_215\n      jumpi\n      mload(0x40)\n      0x08c379a000000000000000000000000000000000000000000000000000000000\n      dup2\n      mstore\n      0x04\n      add\n      dup1\n      dup1\n      0x20\n      add\n      dup3\n      dup2\n      sub\n      dup3\n      mstore\n      0x21\n      dup2\n      mstore\n      0x20\n      add\n      dup1\n      data_b81edbf10508d9b81724f18ff8f3d8bfba9790734ce1f1c54dfe1030b4914855\n      0x21\n      swap2\n      codecopy\n      0x40\n      add\n      swap2\n      pop\n      pop\n      mload(0x40)\n      dup1\n      swap2\n      sub\n      swap1\n      revert\n    tag_215:\n        /* \"github/bnb-chain/canonical-upgradeable-bep20/contracts/BEP20TokenImplementation.sol\":9188:9256  _balances[account].sub(amount, \"BEP20: burn amount exceeds balance\") */\n      tag_216\n        /* \"github/bnb-chain/canonical-upgradeable-bep20/contracts/BEP20TokenImplementation.sol\":9211:9217  amount */\n      dup2\n        /* \"github/bnb-chain/canonical-upgradeable-bep20/contracts/BEP20TokenImplementation.sol\":9188:9256  _balances[account].sub(amount, \"BEP20: burn amount exceeds balance\") */\n      mload(0x40)\n      dup1\n      0x60\n      add\n      0x40\n      mstore\n      dup1\n      0x22\n      dup2\n      mstore\n      0x20\n      add\n      data_deaa84b30175fd0578812c46240362b7914652a35e6707ad7e1556891e4ae032\n      0x22\n      swap2\n      codecopy\n        /* \"github/bnb-chain/canonical-upgradeable-bep20/contracts/BEP20TokenImplementation.sol\":9188:9197  _balances */\n      0x01\n        /* \"github/bnb-chain/canonical-upgradeable-bep20/contracts/BEP20TokenImplementation.sol\":9188:9206  _balances[account] */\n      0x00\n        /* \"github/bnb-chain/canonical-upgradeable-bep20/contracts/BEP20TokenImplementation.sol\":9198:9205  account */\n      dup7\n        /* \"github/bnb-chain/canonical-upgradeable-bep20/contracts/BEP20TokenImplementation.sol\":9188:9206  _balances[account] */\n      0xffffffffffffffffffffffffffffffffffffffff\n      and\n      0xffffffffffffffffffffffffffffffffffffffff\n      and\n      dup2\n      mstore\n      0x20\n      add\n      swap1\n      dup2\n      mstore\n      0x20\n      add\n      0x00\n      keccak256\n      sload\n        /* \"github/bnb-chain/canonical-upgradeable-bep20/contracts/BEP20TokenImplementation.sol\":9188:9210  _balances[account].sub */\n      tag_116\n      swap1\n        /* \"github/bnb-chain/canonical-upgradeable-bep20/contracts/BEP20TokenImplementation.sol\":9188:9256  _balances[account].sub(amount, \"BEP20: burn amount exceeds balance\") */\n      swap3\n      swap2\n      swap1\n      0xffffffff\n      and\n      jump\t// in\n    tag_216:\n        /* \"github/bnb-chain/canonical-upgradeable-bep20/contracts/BEP20TokenImplementation.sol\":9167:9176  _balances */\n      0x01\n        /* \"github/bnb-chain/canonical-upgradeable-bep20/contracts/BEP20TokenImplementation.sol\":9167:9185  _balances[account] */\n      0x00\n        /* \"github/bnb-chain/canonical-upgradeable-bep20/contracts/BEP20TokenImplementation.sol\":9177:9184  account */\n      dup5\n        /* \"github/bnb-chain/canonical-upgradeable-bep20/contracts/BEP20TokenImplementation.sol\":9167:9185  _balances[account] */\n      0xffffffffffffffffffffffffffffffffffffffff\n      and\n      0xffffffffffffffffffffffffffffffffffffffff\n      and\n      dup2\n      mstore\n      0x20\n      add\n      swap1\n      dup2\n      mstore\n      0x20\n      add\n      0x00\n      keccak256\n        /* \"github/bnb-chain/canonical-upgradeable-bep20/contracts/BEP20TokenImplementation.sol\":9167:9256  _balances[account] = _balances[account].sub(amount, \"BEP20: burn amount exceeds balance\") */\n      dup2\n      swap1\n      sstore\n      pop\n        /* \"github/bnb-chain/canonical-upgradeable-bep20/contracts/BEP20TokenImplementation.sol\":9281:9305  _totalSupply.sub(amount) */\n      tag_217\n        /* \"github/bnb-chain/canonical-upgradeable-bep20/contracts/BEP20TokenImplementation.sol\":9298:9304  amount */\n      dup2\n        /* \"github/bnb-chain/canonical-upgradeable-bep20/contracts/BEP20TokenImplementation.sol\":9281:9293  _totalSupply */\n      sload(0x03)\n        /* \"github/bnb-chain/canonical-upgradeable-bep20/contracts/BEP20TokenImplementation.sol\":9281:9297  _totalSupply.sub */\n      tag_218\n      swap1\n        /* \"github/bnb-chain/canonical-upgradeable-bep20/contracts/BEP20TokenImplementation.sol\":9281:9305  _totalSupply.sub(amount) */\n      swap2\n      swap1\n      0xffffffff\n      and\n      jump\t// in\n    tag_217:\n        /* \"github/bnb-chain/canonical-upgradeable-bep20/contracts/BEP20TokenImplementation.sol\":9266:9278  _totalSupply */\n      0x03\n        /* \"github/bnb-chain/canonical-upgradeable-bep20/contracts/BEP20TokenImplementation.sol\":9266:9305  _totalSupply = _totalSupply.sub(amount) */\n      dup2\n      swap1\n      sstore\n      pop\n        /* \"github/bnb-chain/canonical-upgradeable-bep20/contracts/BEP20TokenImplementation.sol\":9346:9347  0 */\n      0x00\n        /* \"github/bnb-chain/canonical-upgradeable-bep20/contracts/BEP20TokenImplementation.sol\":9320:9357  Transfer(account, address(0), amount) */\n      0xffffffffffffffffffffffffffffffffffffffff\n      and\n        /* \"github/bnb-chain/canonical-upgradeable-bep20/contracts/BEP20TokenImplementation.sol\":9329:9336  account */\n      dup3\n        /* \"github/bnb-chain/canonical-upgradeable-bep20/contracts/BEP20TokenImplementation.sol\":9320:9357  Transfer(account, address(0), amount) */\n      0xffffffffffffffffffffffffffffffffffffffff\n      and\n      0xddf252ad1be2c89b69c2b068fc378daa952ba7f163c4a11628f55a4df523b3ef\n        /* \"github/bnb-chain/canonical-upgradeable-bep20/contracts/BEP20TokenImplementation.sol\":9350:9356  amount */\n      dup4\n        /* \"github/bnb-chain/canonical-upgradeable-bep20/contracts/BEP20TokenImplementation.sol\":9320:9357  Transfer(account, address(0), amount) */\n      mload(0x40)\n      dup1\n      dup3\n      dup2\n      mstore\n      0x20\n      add\n      swap2\n      pop\n      pop\n      mload(0x40)\n      dup1\n      swap2\n      sub\n      swap1\n      log3\n        /* \"github/bnb-chain/canonical-upgradeable-bep20/contracts/BEP20TokenImplementation.sol\":9022:9364  function _burn(address account, uint256 amount) internal {... */\n      pop\n      pop\n      jump\t// out\n        /* \"github/bnb-chain/canonical-upgradeable-bep20/contracts/BEP20TokenImplementation.sol\":8401:8703  function _mint(address account, uint256 amount) internal {... */\n    tag_166:\n        /* \"github/bnb-chain/canonical-upgradeable-bep20/contracts/BEP20TokenImplementation.sol\":8495:8496  0 */\n      0x00\n        /* \"github/bnb-chain/canonical-upgradeable-bep20/contracts/BEP20TokenImplementation.sol\":8476:8497  account != address(0) */\n      0xffffffffffffffffffffffffffffffffffffffff\n      and\n        /* \"github/bnb-chain/canonical-upgradeable-bep20/contracts/BEP20TokenImplementation.sol\":8476:8483  account */\n      dup3\n        /* \"github/bnb-chain/canonical-upgradeable-bep20/contracts/BEP20TokenImplementation.sol\":8476:8497  account != address(0) */\n      0xffffffffffffffffffffffffffffffffffffffff\n      and\n      eq\n      iszero\n        /* \"github/bnb-chain/canonical-upgradeable-bep20/contracts/BEP20TokenImplementation.sol\":8468:8533  require(account != address(0), \"BEP20: mint to the zero address\") */\n      tag_220\n      jumpi\n      mload(0x40)\n      0x08c379a000000000000000000000000000000000000000000000000000000000\n      dup2\n      mstore\n      0x04\n      add\n      dup1\n      dup1\n      0x20\n      add\n      dup3\n      dup2\n      sub\n      dup3\n      mstore\n      0x1f\n      dup2\n      mstore\n      0x20\n      add\n      dup1\n      0x42455032303a206d696e7420746f20746865207a65726f206164647265737300\n      dup2\n      mstore\n      pop\n      0x20\n      add\n      swap2\n      pop\n      pop\n      mload(0x40)\n      dup1\n      swap2\n      sub\n      swap1\n      revert\n    tag_220:\n        /* \"github/bnb-chain/canonical-upgradeable-bep20/contracts/BEP20TokenImplementation.sol\":8559:8583  _totalSupply.add(amount) */\n      tag_221\n        /* \"github/bnb-chain/canonical-upgradeable-bep20/contracts/BEP20TokenImplementation.sol\":8576:8582  amount */\n      dup2\n        /* \"github/bnb-chain/canonical-upgradeable-bep20/contracts/BEP20TokenImplementation.sol\":8559:8571  _totalSupply */\n      sload(0x03)\n        /* \"github/bnb-chain/canonical-upgradeable-bep20/contracts/BEP20TokenImplementation.sol\":8559:8575  _totalSupply.add */\n      tag_123\n      swap1\n        /* \"github/bnb-chain/canonical-upgradeable-bep20/contracts/BEP20TokenImplementation.sol\":8559:8583  _totalSupply.add(amount) */\n      swap2\n      swap1\n      0xffffffff\n      and\n      jump\t// in\n    tag_221:\n        /* \"github/bnb-chain/canonical-upgradeable-bep20/contracts/BEP20TokenImplementation.sol\":8544:8556  _totalSupply */\n      0x03\n        /* \"github/bnb-chain/canonical-upgradeable-bep20/contracts/BEP20TokenImplementation.sol\":8544:8583  _totalSupply = _totalSupply.add(amount) */\n      dup2\n      swap1\n      sstore\n      pop\n        /* \"github/bnb-chain/canonical-upgradeable-bep20/contracts/BEP20TokenImplementation.sol\":8614:8644  _balances[account].add(amount) */\n      tag_222\n        /* \"github/bnb-chain/canonical-upgradeable-bep20/contracts/BEP20TokenImplementation.sol\":8637:8643  amount */\n      dup2\n        /* \"github/bnb-chain/canonical-upgradeable-bep20/contracts/BEP20TokenImplementation.sol\":8614:8623  _balances */\n      0x01\n        /* \"github/bnb-chain/canonical-upgradeable-bep20/contracts/BEP20TokenImplementation.sol\":8614:8632  _balances[account] */\n      0x00\n        /* \"github/bnb-chain/canonical-upgradeable-bep20/contracts/BEP20TokenImplementation.sol\":8624:8631  account */\n      dup6\n        /* \"github/bnb-chain/canonical-upgradeable-bep20/contracts/BEP20TokenImplementation.sol\":8614:8632  _balances[account] */\n      0xffffffffffffffffffffffffffffffffffffffff\n      and\n      0xffffffffffffffffffffffffffffffffffffffff\n      and\n      dup2\n      mstore\n      0x20\n      add\n      swap1\n      dup2\n      mstore\n      0x20\n      add\n      0x00\n      keccak256\n      sload\n        /* \"github/bnb-chain/canonical-upgradeable-bep20/contracts/BEP20TokenImplementation.sol\":8614:8636  _balances[account].add */\n      tag_123\n      swap1\n        /* \"github/bnb-chain/canonical-upgradeable-bep20/contracts/BEP20TokenImplementation.sol\":8614:8644  _balances[account].add(amount) */\n      swap2\n      swap1\n      0xffffffff\n      and\n      jump\t// in\n    tag_222:\n        /* \"github/bnb-chain/canonical-upgradeable-bep20/contracts/BEP20TokenImplementation.sol\":8593:8602  _balances */\n      0x01\n        /* \"github/bnb-chain/canonical-upgradeable-bep20/contracts/BEP20TokenImplementation.sol\":8593:8611  _balances[account] */\n      0x00\n        /* \"github/bnb-chain/canonical-upgradeable-bep20/contracts/BEP20TokenImplementation.sol\":8603:8610  account */\n      dup5\n        /* \"github/bnb-chain/canonical-upgradeable-bep20/contracts/BEP20TokenImplementation.sol\":8593:8611  _balances[account] */\n      0xffffffffffffffffffffffffffffffffffffffff\n      and\n      0xffffffffffffffffffffffffffffffffffffffff\n      and\n      dup2\n      mstore\n      0x20\n      add\n      swap1\n      dup2\n      mstore\n      0x20\n      add\n      0x00\n      keccak256\n        /* \"github/bnb-chain/canonical-upgradeable-bep20/contracts/BEP20TokenImplementation.sol\":8593:8644  _balances[account] = _balances[account].add(amount) */\n      dup2\n      swap1\n      sstore\n      pop\n        /* \"github/bnb-chain/canonical-upgradeable-bep20/contracts/BEP20TokenImplementation.sol\":8680:8687  account */\n      dup2\n        /* \"github/bnb-chain/canonical-upgradeable-bep20/contracts/BEP20TokenImplementation.sol\":8659:8696  Transfer(address(0), account, amount) */\n      0xffffffffffffffffffffffffffffffffffffffff\n      and\n        /* \"github/bnb-chain/canonical-upgradeable-bep20/contracts/BEP20TokenImplementation.sol\":8676:8677  0 */\n      0x00\n        /* \"github/bnb-chain/canonical-upgradeable-bep20/contracts/BEP20TokenImplementation.sol\":8659:8696  Transfer(address(0), account, amount) */\n      0xffffffffffffffffffffffffffffffffffffffff\n      and\n      0xddf252ad1be2c89b69c2b068fc378daa952ba7f163c4a11628f55a4df523b3ef\n        /* \"github/bnb-chain/canonical-upgradeable-bep20/contracts/BEP20TokenImplementation.sol\":8689:8695  amount */\n      dup4\n        /* \"github/bnb-chain/canonical-upgradeable-bep20/contracts/BEP20TokenImplementation.sol\":8659:8696  Transfer(address(0), account, amount) */\n      mload(0x40)\n      dup1\n      dup3\n      dup2\n      mstore\n      0x20\n      add\n      swap2\n      pop\n      pop\n      mload(0x40)\n      dup1\n      swap2\n      sub\n      swap1\n      log3\n        /* \"github/bnb-chain/canonical-upgradeable-bep20/contracts/BEP20TokenImplementation.sol\":8401:8703  function _mint(address account, uint256 amount) internal {... */\n      pop\n      pop\n      jump\t// out\n        /* \"openzeppelin-solidity/contracts/proxy/Initializable.sol\":1941:2053  function _isConstructor() private view returns (bool) {... */\n    tag_179:\n        /* \"openzeppelin-solidity/contracts/proxy/Initializable.sol\":1989:1993  bool */\n      0x00\n        /* \"openzeppelin-solidity/contracts/proxy/Initializable.sol\":2013:2046  Address.isContract(address(this)) */\n      tag_224\n        /* \"openzeppelin-solidity/contracts/proxy/Initializable.sol\":2040:2044  this */\n      address\n        /* \"openzeppelin-solidity/contracts/proxy/Initializable.sol\":2013:2031  Address.isContract */\n      tag_225\n        /* \"openzeppelin-solidity/contracts/proxy/Initializable.sol\":2013:2046  Address.isContract(address(this)) */\n      jump\t// in\n    tag_224:\n        /* \"openzeppelin-solidity/contracts/proxy/Initializable.sol\":2012:2046  !Address.isContract(address(this)) */\n      iszero\n        /* \"openzeppelin-solidity/contracts/proxy/Initializable.sol\":2005:2046  return !Address.isContract(address(this)) */\n      swap1\n      pop\n        /* \"openzeppelin-solidity/contracts/proxy/Initializable.sol\":1941:2053  function _isConstructor() private view returns (bool) {... */\n      swap1\n      jump\t// out\n        /* \"openzeppelin-solidity/contracts/math/SafeMath.sol\":3136:3291  function sub(uint256 a, uint256 b) internal pure returns (uint256) {... */\n    tag_218:\n        /* \"openzeppelin-solidity/contracts/math/SafeMath.sol\":3194:3201  uint256 */\n      0x00\n        /* \"openzeppelin-solidity/contracts/math/SafeMath.sol\":3226:3227  a */\n      dup3\n        /* \"openzeppelin-solidity/contracts/math/SafeMath.sol\":3221:3222  b */\n      dup3\n        /* \"openzeppelin-solidity/contracts/math/SafeMath.sol\":3221:3227  b <= a */\n      gt\n      iszero\n        /* \"openzeppelin-solidity/contracts/math/SafeMath.sol\":3213:3262  require(b <= a, \"SafeMath: subtraction overflow\") */\n      tag_227\n      jumpi\n      mload(0x40)\n      0x08c379a000000000000000000000000000000000000000000000000000000000\n      dup2\n      mstore\n      0x04\n      add\n      dup1\n      dup1\n      0x20\n      add\n      dup3\n      dup2\n      sub\n      dup3\n      mstore\n      0x1e\n      dup2\n      mstore\n      0x20\n      add\n      dup1\n      0x536166654d6174683a207375627472616374696f6e206f766572666c6f770000\n      dup2\n      mstore\n      pop\n      0x20\n      add\n      swap2\n      pop\n      pop\n      mload(0x40)\n      dup1\n      swap2\n      sub\n      swap1\n      revert\n    tag_227:\n        /* \"openzeppelin-solidity/contracts/math/SafeMath.sol\":3283:3284  b */\n      dup2\n        /* \"openzeppelin-solidity/contracts/math/SafeMath.sol\":3279:3280  a */\n      dup4\n        /* \"openzeppelin-solidity/contracts/math/SafeMath.sol\":3279:3284  a - b */\n      sub\n        /* \"openzeppelin-solidity/contracts/math/SafeMath.sol\":3272:3284  return a - b */\n      swap1\n      pop\n        /* \"openzeppelin-solidity/contracts/math/SafeMath.sol\":3136:3291  function sub(uint256 a, uint256 b) internal pure returns (uint256) {... */\n      swap3\n      swap2\n      pop\n      pop\n      jump\t// out\n        /* \"openzeppelin-solidity/contracts/utils/Address.sol\":726:1139  function isContract(address account) internal view returns (bool) {... */\n    tag_225:\n        /* \"openzeppelin-solidity/contracts/utils/Address.sol\":786:790  bool */\n      0x00\n        /* \"openzeppelin-solidity/contracts/utils/Address.sol\":989:1001  uint256 size */\n      dup1\n        /* \"openzeppelin-solidity/contracts/utils/Address.sol\":1098:1105  account */\n      dup3\n        /* \"openzeppelin-solidity/contracts/utils/Address.sol\":1086:1106  extcodesize(account) */\n      extcodesize\n        /* \"openzeppelin-solidity/contracts/utils/Address.sol\":1078:1106  size := extcodesize(account) */\n      swap1\n      pop\n        /* \"openzeppelin-solidity/contracts/utils/Address.sol\":1131:1132  0 */\n      0x00\n        /* \"openzeppelin-solidity/contracts/utils/Address.sol\":1124:1128  size */\n      dup2\n        /* \"openzeppelin-solidity/contracts/utils/Address.sol\":1124:1132  size > 0 */\n      gt\n        /* \"openzeppelin-solidity/contracts/utils/Address.sol\":1117:1132  return size > 0 */\n      swap2\n      pop\n      pop\n        /* \"openzeppelin-solidity/contracts/utils/Address.sol\":726:1139  function isContract(address account) internal view returns (bool) {... */\n      swap2\n      swap1\n      pop\n      jump\t// out\n        /* \"github/bnb-chain/canonical-upgradeable-bep20/contracts/BEP20TokenImplementation.sol\":233:11262  contract BEP20TokenImplementation is Context, IBEP20, Initializable {... */\n    tag_185:\n      dup3\n      dup1\n      sload\n      0x01\n      dup2\n      0x01\n      and\n      iszero\n      0x0100\n      mul\n      sub\n      and\n      0x02\n      swap1\n      div\n      swap1\n      0x00\n      mstore\n      keccak256(0x00, 0x20)\n      swap1\n      0x1f\n      add\n      0x20\n      swap1\n      div\n      dup2\n      add\n      swap3\n      dup3\n      0x1f\n      lt\n      tag_230\n      jumpi\n      dup1\n      mload\n      not(0xff)\n      and\n      dup4\n      dup1\n      add\n      or\n      dup6\n      sstore\n      jump(tag_229)\n    tag_230:\n      dup3\n      dup1\n      add\n      0x01\n      add\n      dup6\n      sstore\n      dup3\n      iszero\n      tag_229\n      jumpi\n      swap2\n      dup3\n      add\n    tag_231:\n      dup3\n      dup2\n      gt\n      iszero\n      tag_232\n      jumpi\n      dup3\n      mload\n      dup3\n      sstore\n      swap2\n      0x20\n      add\n      swap2\n      swap1\n      0x01\n      add\n      swap1\n      jump(tag_231)\n    tag_232:\n    tag_229:\n      pop\n      swap1\n      pop\n      tag_233\n      swap2\n      swap1\n      tag_234\n      jump\t// in\n    tag_233:\n      pop\n      swap1\n      jump\t// out\n    tag_234:\n      tag_235\n      swap2\n      swap1\n    tag_236:\n      dup1\n      dup3\n      gt\n      iszero\n      tag_237\n      jumpi\n      0x00\n      dup2\n      0x00\n      swap1\n      sstore\n      pop\n      0x01\n      add\n      jump(tag_236)\n    tag_237:\n      pop\n      swap1\n      jump\n    tag_235:\n      swap1\n      jump\t// out\n    stop\n    data_0d26cf302d50b28de74be656b11d67092b32131e5712d1bcf08c4e976dacda57 42455032303a207472616e736665722066726f6d20746865207a65726f2061646472657373\n    data_1441cfbef485de93bedecc35b3d10fa2992db382c4c9c583a6e423a140abe4a4 42455032303a20617070726f76652066726f6d20746865207a65726f2061646472657373\n    data_245f15ff17f551913a7a18385165551503906a406f905ac1c2437281a7cd0cfe 4f776e61626c653a206e6577206f776e657220697320746865207a65726f2061646472657373\n    data_28dc9a1d7fb79e3f8d5f513efc3842febbeda11bf422847cf16844ad128530af 746f6b656e206f7065726174696f6e73207061757365642064756520746f20736563757269747920726561736f6e73\n    data_4f3506f4ba71c79c3cbd442a3afeb30e9b27af2d84e116a4385b34e267d2287e 42455032303a207472616e7366657220616d6f756e74206578636565647320616c6c6f77616e6365\n    data_7a2a4e26842155ea933fe6eb6e3137eb5a296dcdf55721c552be7b4c3cc23759 496e697469616c697a61626c653a20636f6e747261637420697320616c726561647920696e697469616c697a6564\n    data_a91efd7a65ef5b4ae4d6568d674798b78a5a89184dd296c100513251c22d3e73 42455032303a207472616e7366657220616d6f756e7420657863656564732062616c616e6365\n    data_ade9efcb59e42e439ffe61509b352b1af56d64ccb68d80b039b7b69578f371d2 42455032303a207472616e7366657220746f20746865207a65726f2061646472657373\n    data_b7060b3538dcd3ddc8a941c91636a8115a1aa46914747fd9809d543bbb46cd22 42455032303a2064656372656173656420616c6c6f77616e63652062656c6f77207a65726f\n    data_b81edbf10508d9b81724f18ff8f3d8bfba9790734ce1f1c54dfe1030b4914855 42455032303a206275726e2066726f6d20746865207a65726f2061646472657373\n    data_deaa84b30175fd0578812c46240362b7914652a35e6707ad7e1556891e4ae032 42455032303a206275726e20616d6f756e7420657863656564732062616c616e6365\n    data_f10e7571e18b354270dee950932fb6a745efc79414b2b2556185a4ed6a1af0d5 42455032303a20617070726f766520746f20746865207a65726f2061646472657373\n\n    auxdata: 0xa26469706673582212207775a1ca1aa4702c5e14e2086883f0bd819419e983d770b566fa85b88545308764736f6c63430006030033\n}\n",
				"bytecode": {
					"linkReferences": {},
					"object": "608060405234801561001057600080fd5b50612a0e806100206000396000f3fe608060405234801561001057600080fd5b50600436106101425760003560e01c806370a08231116100b8578063a0712d681161007c578063a0712d6814610591578063a457c2d7146105d7578063a9059cbb1461063d578063dd62ed3e146106a3578063ef3ebcb81461071b578063f2fde38b146108b057610142565b806370a0823114610458578063715018a6146104b05780638456cb59146104ba578063893d20e8146104c457806395d89b411461050e57610142565b8063395093511161010a57806339509351146102f85780633f4ba83a1461035e57806342966c68146103685780634838d165146103ae5780634bf365df146103f2578063537df3b61461041457610142565b806306fdde0314610147578063095ea7b3146101ca57806318160ddd1461023057806323b872dd1461024e578063313ce567146102d4575b600080fd5b61014f6108f4565b6040518080602001828103825283818151815260200191508051906020019080838360005b8381101561018f578082015181840152602081019050610174565b50505050905090810190601f1680156101bc5780820380516001836020036101000a031916815260200191505b509250505060405180910390f35b610216600480360360408110156101e057600080fd5b81019080803573ffffffffffffffffffffffffffffffffffffffff16906020019092919080359060200190929190505050610996565b604051808215151515815260200191505060405180910390f35b6102386109b4565b6040518082815260200191505060405180910390f35b6102ba6004803603606081101561026457600080fd5b81019080803573ffffffffffffffffffffffffffffffffffffffff169060200190929190803573ffffffffffffffffffffffffffffffffffffffff169060200190929190803590602001909291905050506109be565b604051808215151515815260200191505060405180910390f35b6102dc610a97565b604051808260ff1660ff16815260200191505060405180910390f35b6103446004803603604081101561030e57600080fd5b81019080803573ffffffffffffffffffffffffffffffffffffffff16906020019092919080359060200190929190505050610aae565b604051808215151515815260200191505060405180910390f35b610366610b61565b005b6103946004803603602081101561037e57600080fd5b8101908080359060200190929190505050610cca565b604051808215151515815260200191505060405180910390f35b6103f0600480360360208110156103c457600080fd5b81019080803573ffffffffffffffffffffffffffffffffffffffff169060200190929190505050610ce6565b005b6103fa610ecb565b604051808215151515815260200191505060405180910390f35b6104566004803603602081101561042a57600080fd5b81019080803573ffffffffffffffffffffffffffffffffffffffff169060200190929190505050610ee2565b005b61049a6004803603602081101561046e57600080fd5b81019080803573ffffffffffffffffffffffffffffffffffffffff1690602001909291905050506110c6565b6040518082815260200191505060405180910390f35b6104b861110f565b005b6104c261129a565b005b6104cc611404565b604051808273ffffffffffffffffffffffffffffffffffffffff1673ffffffffffffffffffffffffffffffffffffffff16815260200191505060405180910390f35b61051661142e565b6040518080602001828103825283818151815260200191508051906020019080838360005b8381101561055657808201518184015260208101905061053b565b50505050905090810190601f1680156105835780820380516001836020036101000a031916815260200191505b509250505060405180910390f35b6105bd600480360360208110156105a757600080fd5b81019080803590602001909291905050506114d0565b604051808215151515815260200191505060405180910390f35b610623600480360360408110156105ed57600080fd5b81019080803573ffffffffffffffffffffffffffffffffffffffff16906020019092919080359060200190929190505050611638565b604051808215151515815260200191505060405180910390f35b6106896004803603604081101561065357600080fd5b81019080803573ffffffffffffffffffffffffffffffffffffffff16906020019092919080359060200190929190505050611705565b604051808215151515815260200191505060405180910390f35b610705600480360360408110156106b957600080fd5b81019080803573ffffffffffffffffffffffffffffffffffffffff169060200190929190803573ffffffffffffffffffffffffffffffffffffffff169060200190929190505050611723565b6040518082815260200191505060405180910390f35b6108ae600480360360c081101561073157600080fd5b810190808035906020019064010000000081111561074e57600080fd5b82018360208201111561076057600080fd5b8035906020019184600183028401116401000000008311171561078257600080fd5b91908080601f016020809104026020016040519081016040528093929190818152602001838380828437600081840152601f19601f820116905080830192505050505050509192919290803590602001906401000000008111156107e557600080fd5b8201836020820111156107f757600080fd5b8035906020019184600183028401116401000000008311171561081957600080fd5b91908080601f016020809104026020016040519081016040528093929190818152602001838380828437600081840152601f19601f820116905080830192505050505050509192919290803560ff16906020019092919080359060200190929190803515159060200190929190803573ffffffffffffffffffffffffffffffffffffffff1690602001909291905050506117aa565b005b6108f2600480360360208110156108c657600080fd5b81019080803573ffffffffffffffffffffffffffffffffffffffff16906020019092919050505061195d565b005b606060048054600181600116156101000203166002900480601f01602080910402602001604051908101604052809291908181526020018280546001816001161561010002031660029004801561098c5780601f106109615761010080835404028352916020019161098c565b820191906000526020600020905b81548152906001019060200180831161096f57829003601f168201915b5050505050905090565b60006109aa6109a3611b6d565b8484611b75565b6001905092915050565b6000600354905090565b60006109cb848484611d6c565b610a8c846109d7611b6d565b610a87856040518060600160405280602881526020016128b060289139600260008b73ffffffffffffffffffffffffffffffffffffffff1673ffffffffffffffffffffffffffffffffffffffff1681526020019081526020016000206000610a3d611b6d565b73ffffffffffffffffffffffffffffffffffffffff1673ffffffffffffffffffffffffffffffffffffffff1681526020019081526020016000205461220c9092919063ffffffff16565b611b75565b600190509392505050565b6000600660009054906101000a900460ff16905090565b6000610b57610abb611b6d565b84610b528560026000610acc611b6d565b73ffffffffffffffffffffffffffffffffffffffff1673ffffffffffffffffffffffffffffffffffffffff16815260200190815260200160002060008973ffffffffffffffffffffffffffffffffffffffff1673ffffffffffffffffffffffffffffffffffffffff168152602001908152602001600020546122c690919063ffffffff16565b611b75565b6001905092915050565b610b69611b6d565b73ffffffffffffffffffffffffffffffffffffffff16600660019054906101000a900473ffffffffffffffffffffffffffffffffffffffff1673ffffffffffffffffffffffffffffffffffffffff1614610c2b576040517f08c379a00000000000000000000000000000000000000000000000000000000081526004018080602001828103825260208152602001807f4f776e61626c653a2063616c6c6572206973206e6f7420746865206f776e657281525060200191505060405180910390fd5b600660169054906101000a900460ff16610cad576040517f08c379a00000000000000000000000000000000000000000000000000000000081526004018080602001828103825260178152602001807f636f6e747261637420616c72656164792070617573656400000000000000000081525060200191505060405180910390fd5b6000600660166101000a81548160ff021916908315150217905550565b6000610cdd610cd7611b6d565b8361234e565b60019050919050565b610cee611b6d565b73ffffffffffffffffffffffffffffffffffffffff16600660019054906101000a900473ffffffffffffffffffffffffffffffffffffffff1673ffffffffffffffffffffffffffffffffffffffff1614610db0576040517f08c379a00000000000000000000000000000000000000000000000000000000081526004018080602001828103825260208152602001807f4f776e61626c653a2063616c6c6572206973206e6f7420746865206f776e657281525060200191505060405180910390fd5b600760008273ffffffffffffffffffffffffffffffffffffffff1673ffffffffffffffffffffffffffffffffffffffff16815260200190815260200160002060009054906101000a900460ff1615610e70576040517f08c379a00000000000000000000000000000000000000000000000000000000081526004018080602001828103825260188152602001807f7573657220616c726561647920626c61636b6c6973746564000000000000000081525060200191505060405180910390fd5b6001600760008373ffffffffffffffffffffffffffffffffffffffff1673ffffffffffffffffffffffffffffffffffffffff16815260200190815260200160002060006101000a81548160ff02191690831515021790555050565b6000600660159054906101000a900460ff16905090565b610eea611b6d565b73ffffffffffffffffffffffffffffffffffffffff16600660019054906101000a900473ffffffffffffffffffffffffffffffffffffffff1673ffffffffffffffffffffffffffffffffffffffff1614610fac576040517f08c379a00000000000000000000000000000000000000000000000000000000081526004018080602001828103825260208152602001807f4f776e61626c653a2063616c6c6572206973206e6f7420746865206f776e657281525060200191505060405180910390fd5b600760008273ffffffffffffffffffffffffffffffffffffffff1673ffffffffffffffffffffffffffffffffffffffff16815260200190815260200160002060009054906101000a900460ff1661106b576040517f08c379a00000000000000000000000000000000000000000000000000000000081526004018080602001828103825260188152602001807f7573657220616c72656164792077686974656c6973746564000000000000000081525060200191505060405180910390fd5b6000600760008373ffffffffffffffffffffffffffffffffffffffff1673ffffffffffffffffffffffffffffffffffffffff16815260200190815260200160002060006101000a81548160ff02191690831515021790555050565b6000600160008373ffffffffffffffffffffffffffffffffffffffff1673ffffffffffffffffffffffffffffffffffffffff168152602001908152602001600020549050919050565b611117611b6d565b73ffffffffffffffffffffffffffffffffffffffff16600660019054906101000a900473ffffffffffffffffffffffffffffffffffffffff1673ffffffffffffffffffffffffffffffffffffffff16146111d9576040517f08c379a00000000000000000000000000000000000000000000000000000000081526004018080602001828103825260208152602001807f4f776e61626c653a2063616c6c6572206973206e6f7420746865206f776e657281525060200191505060405180910390fd5b600073ffffffffffffffffffffffffffffffffffffffff16600660019054906101000a900473ffffffffffffffffffffffffffffffffffffffff1673ffffffffffffffffffffffffffffffffffffffff167f8be0079c531659141344cd1fd0a4f28419497f9722a3daafe3b4186f6b6457e060405160405180910390a36000600660016101000a81548173ffffffffffffffffffffffffffffffffffffffff021916908373ffffffffffffffffffffffffffffffffffffffff160217905550565b6112a2611b6d565b73ffffffffffffffffffffffffffffffffffffffff16600660019054906101000a900473ffffffffffffffffffffffffffffffffffffffff1673ffffffffffffffffffffffffffffffffffffffff1614611364576040517f08c379a00000000000000000000000000000000000000000000000000000000081526004018080602001828103825260208152602001807f4f776e61626c653a2063616c6c6572206973206e6f7420746865206f776e657281525060200191505060405180910390fd5b600660169054906101000a900460ff16156113e7576040517f08c379a00000000000000000000000000000000000000000000000000000000081526004018080602001828103825260178152602001807f636f6e747261637420616c72656164792070617573656400000000000000000081525060200191505060405180910390fd5b6001600660166101000a81548160ff021916908315150217905550565b6000600660019054906101000a900473ffffffffffffffffffffffffffffffffffffffff16905090565b606060058054600181600116156101000203166002900480601f0160208091040260200160405190810160405280929190818152602001828054600181600116156101000203166002900480156114c65780601f1061149b576101008083540402835291602001916114c6565b820191906000526020600020905b8154815290600101906020018083116114a957829003601f168201915b5050505050905090565b60006114da611b6d565b73ffffffffffffffffffffffffffffffffffffffff16600660019054906101000a900473ffffffffffffffffffffffffffffffffffffffff1673ffffffffffffffffffffffffffffffffffffffff161461159c576040517f08c379a00000000000000000000000000000000000000000000000000000000081526004018080602001828103825260208152602001807f4f776e61626c653a2063616c6c6572206973206e6f7420746865206f776e657281525060200191505060405180910390fd5b600660159054906101000a900460ff1661161e576040517f08c379a000000000000000000000000000000000000000000000000000000000815260040180806020018281038252601a8152602001807f7468697320746f6b656e206973206e6f74206d696e7461626c6500000000000081525060200191505060405180910390fd5b61162f611629611b6d565b83612508565b60019050919050565b60006116fb611645611b6d565b846116f68560405180606001604052806025815260200161294f602591396002600061166f611b6d565b73ffffffffffffffffffffffffffffffffffffffff1673ffffffffffffffffffffffffffffffffffffffff16815260200190815260200160002060008a73ffffffffffffffffffffffffffffffffffffffff1673ffffffffffffffffffffffffffffffffffffffff1681526020019081526020016000205461220c9092919063ffffffff16565b611b75565b6001905092915050565b6000611719611712611b6d565b8484611d6c565b6001905092915050565b6000600260008473ffffffffffffffffffffffffffffffffffffffff1673ffffffffffffffffffffffffffffffffffffffff16815260200190815260200160002060008373ffffffffffffffffffffffffffffffffffffffff1673ffffffffffffffffffffffffffffffffffffffff16815260200190815260200160002054905092915050565b600060019054906101000a900460ff16806117c957506117c86126c5565b5b806117e057506000809054906101000a900460ff16155b611835576040517f08c379a000000000000000000000000000000000000000000000000000000000815260040180806020018281038252602e8152602001806128d8602e913960400191505060405180910390fd5b60008060019054906101000a900460ff161590508015611885576001600060016101000a81548160ff02191690831515021790555060016000806101000a81548160ff0219169083151502179055505b81600660016101000a81548173ffffffffffffffffffffffffffffffffffffffff021916908373ffffffffffffffffffffffffffffffffffffffff16021790555086600490805190602001906118dc92919061276c565b5085600590805190602001906118f392919061276c565b5084600660006101000a81548160ff021916908360ff16021790555082600660156101000a81548160ff0219169083151502179055506119338285612508565b80156119545760008060016101000a81548160ff0219169083151502179055505b50505050505050565b611965611b6d565b73ffffffffffffffffffffffffffffffffffffffff16600660019054906101000a900473ffffffffffffffffffffffffffffffffffffffff1673ffffffffffffffffffffffffffffffffffffffff1614611a27576040517f08c379a00000000000000000000000000000000000000000000000000000000081526004018080602001828103825260208152602001807f4f776e61626c653a2063616c6c6572206973206e6f7420746865206f776e657281525060200191505060405180910390fd5b600073ffffffffffffffffffffffffffffffffffffffff168173ffffffffffffffffffffffffffffffffffffffff161415611aad576040517f08c379a000000000000000000000000000000000000000000000000000000000815260040180806020018281038252602681526020018061285b6026913960400191505060405180910390fd5b8073ffffffffffffffffffffffffffffffffffffffff16600660019054906101000a900473ffffffffffffffffffffffffffffffffffffffff1673ffffffffffffffffffffffffffffffffffffffff167f8be0079c531659141344cd1fd0a4f28419497f9722a3daafe3b4186f6b6457e060405160405180910390a380600660016101000a81548173ffffffffffffffffffffffffffffffffffffffff021916908373ffffffffffffffffffffffffffffffffffffffff16021790555050565b600033905090565b600073ffffffffffffffffffffffffffffffffffffffff168373ffffffffffffffffffffffffffffffffffffffff161415611bfb576040517f08c379a00000000000000000000000000000000000000000000000000000000081526004018080602001828103825260248152602001806128376024913960400191505060405180910390fd5b600073ffffffffffffffffffffffffffffffffffffffff168273ffffffffffffffffffffffffffffffffffffffff161415611c81576040517f08c379a00000000000000000000000000000000000000000000000000000000081526004018080602001828103825260228152602001806129b76022913960400191505060405180910390fd5b80600260008573ffffffffffffffffffffffffffffffffffffffff1673ffffffffffffffffffffffffffffffffffffffff16815260200190815260200160002060008473ffffffffffffffffffffffffffffffffffffffff1673ffffffffffffffffffffffffffffffffffffffff168152602001908152602001600020819055508173ffffffffffffffffffffffffffffffffffffffff168373ffffffffffffffffffffffffffffffffffffffff167f8c5be1e5ebec7d5bd14f71427d1e84f3dd0314c0f7b2291e5b200ac8c7c3b925836040518082815260200191505060405180910390a3505050565b600760008373ffffffffffffffffffffffffffffffffffffffff1673ffffffffffffffffffffffffffffffffffffffff16815260200190815260200160002060009054906101000a900460ff1615611e2c576040517f08c379a00000000000000000000000000000000000000000000000000000000081526004018080602001828103825260178152602001807f726563697069656e74206973206261636b6c697374656400000000000000000081525060200191505060405180910390fd5b600760008473ffffffffffffffffffffffffffffffffffffffff1673ffffffffffffffffffffffffffffffffffffffff16815260200190815260200160002060009054906101000a900460ff1615611eec576040517f08c379a00000000000000000000000000000000000000000000000000000000081526004018080602001828103825260148152602001807f73656e646572206973206261636b6c697374656400000000000000000000000081525060200191505060405180910390fd5b600660169054906101000a900460ff1615611f52576040517f08c379a000000000000000000000000000000000000000000000000000000000815260040180806020018281038252602f815260200180612881602f913960400191505060405180910390fd5b600073ffffffffffffffffffffffffffffffffffffffff168373ffffffffffffffffffffffffffffffffffffffff161415611fd8576040517f08c379a00000000000000000000000000000000000000000000000000000000081526004018080602001828103825260258152602001806128126025913960400191505060405180910390fd5b600073ffffffffffffffffffffffffffffffffffffffff168273ffffffffffffffffffffffffffffffffffffffff16141561205e576040517f08c379a000000000000000000000000000000000000000000000000000000000815260040180806020018281038252602381526020018061292c6023913960400191505060405180910390fd5b6120ca8160405180606001604052806026815260200161290660269139600160008773ffffffffffffffffffffffffffffffffffffffff1673ffffffffffffffffffffffffffffffffffffffff1681526020019081526020016000205461220c9092919063ffffffff16565b600160008573ffffffffffffffffffffffffffffffffffffffff1673ffffffffffffffffffffffffffffffffffffffff1681526020019081526020016000208190555061215f81600160008573ffffffffffffffffffffffffffffffffffffffff1673ffffffffffffffffffffffffffffffffffffffff168152602001908152602001600020546122c690919063ffffffff16565b600160008473ffffffffffffffffffffffffffffffffffffffff1673ffffffffffffffffffffffffffffffffffffffff168152602001908152602001600020819055508173ffffffffffffffffffffffffffffffffffffffff168373ffffffffffffffffffffffffffffffffffffffff167fddf252ad1be2c89b69c2b068fc378daa952ba7f163c4a11628f55a4df523b3ef836040518082815260200191505060405180910390a3505050565b60008383111582906122b9576040517f08c379a00000000000000000000000000000000000000000000000000000000081526004018080602001828103825283818151815260200191508051906020019080838360005b8381101561227e578082015181840152602081019050612263565b50505050905090810190601f1680156122ab5780820380516001836020036101000a031916815260200191505b509250505060405180910390fd5b5082840390509392505050565b600080828401905083811015612344576040517f08c379a000000000000000000000000000000000000000000000000000000000815260040180806020018281038252601b8152602001807f536166654d6174683a206164646974696f6e206f766572666c6f77000000000081525060200191505060405180910390fd5b8091505092915050565b600073ffffffffffffffffffffffffffffffffffffffff168273ffffffffffffffffffffffffffffffffffffffff1614156123d4576040517f08c379a00000000000000000000000000000000000000000000000000000000081526004018080602001828103825260218152602001806129746021913960400191505060405180910390fd5b6124408160405180606001604052806022815260200161299560229139600160008673ffffffffffffffffffffffffffffffffffffffff1673ffffffffffffffffffffffffffffffffffffffff1681526020019081526020016000205461220c9092919063ffffffff16565b600160008473ffffffffffffffffffffffffffffffffffffffff1673ffffffffffffffffffffffffffffffffffffffff16815260200190815260200160002081905550612498816003546126d690919063ffffffff16565b600381905550600073ffffffffffffffffffffffffffffffffffffffff168273ffffffffffffffffffffffffffffffffffffffff167fddf252ad1be2c89b69c2b068fc378daa952ba7f163c4a11628f55a4df523b3ef836040518082815260200191505060405180910390a35050565b600073ffffffffffffffffffffffffffffffffffffffff168273ffffffffffffffffffffffffffffffffffffffff1614156125ab576040517f08c379a000000000000000000000000000000000000000000000000000000000815260040180806020018281038252601f8152602001807f42455032303a206d696e7420746f20746865207a65726f20616464726573730081525060200191505060405180910390fd5b6125c0816003546122c690919063ffffffff16565b60038190555061261881600160008573ffffffffffffffffffffffffffffffffffffffff1673ffffffffffffffffffffffffffffffffffffffff168152602001908152602001600020546122c690919063ffffffff16565b600160008473ffffffffffffffffffffffffffffffffffffffff1673ffffffffffffffffffffffffffffffffffffffff168152602001908152602001600020819055508173ffffffffffffffffffffffffffffffffffffffff16600073ffffffffffffffffffffffffffffffffffffffff167fddf252ad1be2c89b69c2b068fc378daa952ba7f163c4a11628f55a4df523b3ef836040518082815260200191505060405180910390a35050565b60006126d030612759565b15905090565b60008282111561274e576040517f08c379a000000000000000000000000000000000000000000000000000000000815260040180806020018281038252601e8152602001807f536166654d6174683a207375627472616374696f6e206f766572666c6f77000081525060200191505060405180910390fd5b818303905092915050565b600080823b905060008111915050919050565b828054600181600116156101000203166002900490600052602060002090601f016020900481019282601f106127ad57805160ff19168380011785556127db565b828001600101855582156127db579182015b828111156127da5782518255916020019190600101906127bf565b5b5090506127e891906127ec565b5090565b61280e91905b8082111561280a5760008160009055506001016127f2565b5090565b9056fe42455032303a207472616e736665722066726f6d20746865207a65726f206164647265737342455032303a20617070726f76652066726f6d20746865207a65726f20616464726573734f776e61626c653a206e6577206f776e657220697320746865207a65726f2061646472657373746f6b656e206f7065726174696f6e73207061757365642064756520746f20736563757269747920726561736f6e7342455032303a207472616e7366657220616d6f756e74206578636565647320616c6c6f77616e6365496e697469616c697a61626c653a20636f6e747261637420697320616c726561647920696e697469616c697a656442455032303a207472616e7366657220616d6f756e7420657863656564732062616c616e636542455032303a207472616e7366657220746f20746865207a65726f206164647265737342455032303a2064656372656173656420616c6c6f77616e63652062656c6f77207a65726f42455032303a206275726e2066726f6d20746865207a65726f206164647265737342455032303a206275726e20616d6f756e7420657863656564732062616c616e636542455032303a20617070726f766520746f20746865207a65726f2061646472657373a26469706673582212207775a1ca1aa4702c5e14e2086883f0bd819419e983d770b566fa85b88545308764736f6c63430006030033",
					"opcodes": "PUSH1 0x80 PUSH1 0x40 MSTORE CALLVALUE DUP1 ISZERO PUSH2 0x10 JUMPI PUSH1 0x0 DUP1 REVERT JUMPDEST POP PUSH2 0x2A0E DUP1 PUSH2 0x20 PUSH1 0x0 CODECOPY PUSH1 0x0 RETURN INVALID PUSH1 0x80 PUSH1 0x40 MSTORE CALLVALUE DUP1 ISZERO PUSH2 0x10 JUMPI PUSH1 0x0 DUP1 REVERT JUMPDEST POP PUSH1 0x4 CALLDATASIZE LT PUSH2 0x142 JUMPI PUSH1 0x0 CALLDATALOAD PUSH1 0xE0 SHR DUP1 PUSH4 0x70A08231 GT PUSH2 0xB8 JUMPI DUP1 PUSH4 0xA0712D68 GT PUSH2 0x7C JUMPI DUP1 PUSH4 0xA0712D68 EQ PUSH2 0x591 JUMPI DUP1 PUSH4 0xA457C2D7 EQ PUSH2 0x5D7 JUMPI DUP1 PUSH4 0xA9059CBB EQ PUSH2 0x63D JUMPI DUP1 PUSH4 0xDD62ED3E EQ PUSH2 0x6A3 JUMPI DUP1 PUSH4 0xEF3EBCB8 EQ PUSH2 0x71B JUMPI DUP1 PUSH4 0xF2FDE38B EQ PUSH2 0x8B0 JUMPI PUSH2 0x142 JUMP JUMPDEST DUP1 PUSH4 0x70A08231 EQ PUSH2 0x458 JUMPI DUP1 PUSH4 0x715018A6 EQ PUSH2 0x4B0 JUMPI DUP1 PUSH4 0x8456CB59 EQ PUSH2 0x4BA JUMPI DUP1 PUSH4 0x893D20E8 EQ PUSH2 0x4C4 JUMPI DUP1 PUSH4 0x95D89B41 EQ PUSH2 0x50E JUMPI PUSH2 0x142 JUMP JUMPDEST DUP1 PUSH4 0x39509351 GT PUSH2 0x10A JUMPI DUP1 PUSH4 0x39509351 EQ PUSH2 0x2F8 JUMPI DUP1 PUSH4 0x3F4BA83A EQ PUSH2 0x35E JUMPI DUP1 PUSH4 0x42966C68 EQ PUSH2 0x368 JUMPI DUP1 PUSH4 0x4838D165 EQ PUSH2 0x3AE JUMPI DUP1 PUSH4 0x4BF365DF EQ PUSH2 0x3F2 JUMPI DUP1 PUSH4 0x537DF3B6 EQ PUSH2 0x414 JUMPI PUSH2 0x142 JUMP JUMPDEST DUP1 PUSH4 0x6FDDE03 EQ PUSH2 0x147 JUMPI DUP1 PUSH4 0x95EA7B3 EQ PUSH2 0x1CA JUMPI DUP1 PUSH4 0x18160DDD EQ PUSH2 0x230 JUMPI DUP1 PUSH4 0x23B872DD EQ PUSH2 0x24E JUMPI DUP1 PUSH4 0x313CE567 EQ PUSH2 0x2D4 JUMPI JUMPDEST PUSH1 0x0 DUP1 REVERT JUMPDEST PUSH2 0x14F PUSH2 0x8F4 JUMP JUMPDEST PUSH1 0x40 MLOAD DUP1 DUP1 PUSH1 0x20 ADD DUP3 DUP2 SUB DUP3 MSTORE DUP4 DUP2 DUP2 MLOAD DUP2 MSTORE PUSH1 0x20 ADD SWAP2 POP DUP1 MLOAD SWAP1 PUSH1 0x20 ADD SWAP1 DUP1 DUP4 DUP4 PUSH1 0x0 JUMPDEST DUP4 DUP2 LT ISZERO PUSH2 0x18F JUMPI DUP1 DUP3 ADD MLOAD DUP2 DUP5 ADD MSTORE PUSH1 0x20 DUP2 ADD SWAP1 POP PUSH2 0x174 JUMP JUMPDEST POP POP POP POP SWAP1 POP SWAP1 DUP2 ADD SWAP1 PUSH1 0x1F AND DUP1 ISZERO PUSH2 0x1BC JUMPI DUP1 DUP3 SUB DUP1 MLOAD PUSH1 0x1 DUP4 PUSH1 0x20 SUB PUSH2 0x100 EXP SUB NOT AND DUP2 MSTORE PUSH1 0x20 ADD SWAP2 POP JUMPDEST POP SWAP3 POP POP POP PUSH1 0x40 MLOAD DUP1 SWAP2 SUB SWAP1 RETURN JUMPDEST PUSH2 0x216 PUSH1 0x4 DUP1 CALLDATASIZE SUB PUSH1 0x40 DUP2 LT ISZERO PUSH2 0x1E0 JUMPI PUSH1 0x0 DUP1 REVERT JUMPDEST DUP2 ADD SWAP1 DUP1 DUP1 CALLDATALOAD PUSH20 0xFFFFFFFFFFFFFFFFFFFFFFFFFFFFFFFFFFFFFFFF AND SWAP1 PUSH1 0x20 ADD SWAP1 SWAP3 SWAP2 SWAP1 DUP1 CALLDATALOAD SWAP1 PUSH1 0x20 ADD SWAP1 SWAP3 SWAP2 SWAP1 POP POP POP PUSH2 0x996 JUMP JUMPDEST PUSH1 0x40 MLOAD DUP1 DUP3 ISZERO ISZERO ISZERO ISZERO DUP2 MSTORE PUSH1 0x20 ADD SWAP2 POP POP PUSH1 0x40 MLOAD DUP1 SWAP2 SUB SWAP1 RETURN JUMPDEST PUSH2 0x238 PUSH2 0x9B4 JUMP JUMPDEST PUSH1 0x40 MLOAD DUP1 DUP3 DUP2 MSTORE PUSH1 0x20 ADD SWAP2 POP POP PUSH1 0x40 MLOAD DUP1 SWAP2 SUB SWAP1 RETURN JUMPDEST PUSH2 0x2BA PUSH1 0x4 DUP1 CALLDATASIZE SUB PUSH1 0x60 DUP2 LT ISZERO PUSH2 0x264 JUMPI PUSH1 0x0 DUP1 REVERT JUMPDEST DUP2 ADD SWAP1 DUP1 DUP1 CALLDATALOAD PUSH20 0xFFFFFFFFFFFFFFFFFFFFFFFFFFFFFFFFFFFFFFFF AND SWAP1 PUSH1 0x20 ADD SWAP1 SWAP3 SWAP2 SWAP1 DUP1 CALLDATALOAD PUSH20 0xFFFFFFFFFFFFFFFFFFFFFFFFFFFFFFFFFFFFFFFF AND SWAP1 PUSH1 0x20 ADD SWAP1 SWAP3 SWAP2 SWAP1 DUP1 CALLDATALOAD SWAP1 PUSH1 0x20 ADD SWAP1 SWAP3 SWAP2 SWAP1 POP POP POP PUSH2 0x9BE JUMP JUMPDEST PUSH1 0x40 MLOAD DUP1 DUP3 ISZERO ISZERO ISZERO ISZERO DUP2 MSTORE PUSH1 0x20 ADD SWAP2 POP POP PUSH1 0x40 MLOAD DUP1 SWAP2 SUB SWAP1 RETURN JUMPDEST PUSH2 0x2DC PUSH2 0xA97 JUMP JUMPDEST PUSH1 0x40 MLOAD DUP1 DUP3 PUSH1 0xFF AND PUSH1 0xFF AND DUP2 MSTORE PUSH1 0x20 ADD SWAP2 POP POP PUSH1 0x40 MLOAD DUP1 SWAP2 SUB SWAP1 RETURN JUMPDEST PUSH2 0x344 PUSH1 0x4 DUP1 CALLDATASIZE SUB PUSH1 0x40 DUP2 LT ISZERO PUSH2 0x30E JUMPI PUSH1 0x0 DUP1 REVERT JUMPDEST DUP2 ADD SWAP1 DUP1 DUP1 CALLDATALOAD PUSH20 0xFFFFFFFFFFFFFFFFFFFFFFFFFFFFFFFFFFFFFFFF AND SWAP1 PUSH1 0x20 ADD SWAP1 SWAP3 SWAP2 SWAP1 DUP1 CALLDATALOAD SWAP1 PUSH1 0x20 ADD SWAP1 SWAP3 SWAP2 SWAP1 POP POP POP PUSH2 0xAAE JUMP JUMPDEST PUSH1 0x40 MLOAD DUP1 DUP3 ISZERO ISZERO ISZERO ISZERO DUP2 MSTORE PUSH1 0x20 ADD SWAP2 POP POP PUSH1 0x40 MLOAD DUP1 SWAP2 SUB SWAP1 RETURN JUMPDEST PUSH2 0x366 PUSH2 0xB61 JUMP JUMPDEST STOP JUMPDEST PUSH2 0x394 PUSH1 0x4 DUP1 CALLDATASIZE SUB PUSH1 0x20 DUP2 LT ISZERO PUSH2 0x37E JUMPI PUSH1 0x0 DUP1 REVERT JUMPDEST DUP2 ADD SWAP1 DUP1 DUP1 CALLDATALOAD SWAP1 PUSH1 0x20 ADD SWAP1 SWAP3 SWAP2 SWAP1 POP POP POP PUSH2 0xCCA JUMP JUMPDEST PUSH1 0x40 MLOAD DUP1 DUP3 ISZERO ISZERO ISZERO ISZERO DUP2 MSTORE PUSH1 0x20 ADD SWAP2 POP POP PUSH1 0x40 MLOAD DUP1 SWAP2 SUB SWAP1 RETURN JUMPDEST PUSH2 0x3F0 PUSH1 0x4 DUP1 CALLDATASIZE SUB PUSH1 0x20 DUP2 LT ISZERO PUSH2 0x3C4 JUMPI PUSH1 0x0 DUP1 REVERT JUMPDEST DUP2 ADD SWAP1 DUP1 DUP1 CALLDATALOAD PUSH20 0xFFFFFFFFFFFFFFFFFFFFFFFFFFFFFFFFFFFFFFFF AND SWAP1 PUSH1 0x20 ADD SWAP1 SWAP3 SWAP2 SWAP1 POP POP POP PUSH2 0xCE6 JUMP JUMPDEST STOP JUMPDEST PUSH2 0x3FA PUSH2 0xECB JUMP JUMPDEST PUSH1 0x40 MLOAD DUP1 DUP3 ISZERO ISZERO ISZERO ISZERO DUP2 MSTORE PUSH1 0x20 ADD SWAP2 POP POP PUSH1 0x40 MLOAD DUP1 SWAP2 SUB SWAP1 RETURN JUMPDEST PUSH2 0x456 PUSH1 0x4 DUP1 CALLDATASIZE SUB PUSH1 0x20 DUP2 LT ISZERO PUSH2 0x42A JUMPI PUSH1 0x0 DUP1 REVERT JUMPDEST DUP2 ADD SWAP1 DUP1 DUP1 CALLDATALOAD PUSH20 0xFFFFFFFFFFFFFFFFFFFFFFFFFFFFFFFFFFFFFFFF AND SWAP1 PUSH1 0x20 ADD SWAP1 SWAP3 SWAP2 SWAP1 POP POP POP PUSH2 0xEE2 JUMP JUMPDEST STOP JUMPDEST PUSH2 0x49A PUSH1 0x4 DUP1 CALLDATASIZE SUB PUSH1 0x20 DUP2 LT ISZERO PUSH2 0x46E JUMPI PUSH1 0x0 DUP1 REVERT JUMPDEST DUP2 ADD SWAP1 DUP1 DUP1 CALLDATALOAD PUSH20 0xFFFFFFFFFFFFFFFFFFFFFFFFFFFFFFFFFFFFFFFF AND SWAP1 PUSH1 0x20 ADD SWAP1 SWAP3 SWAP2 SWAP1 POP POP POP PUSH2 0x10C6 JUMP JUMPDEST PUSH1 0x40 MLOAD DUP1 DUP3 DUP2 MSTORE PUSH1 0x20 ADD SWAP2 POP POP PUSH1 0x40 MLOAD DUP1 SWAP2 SUB SWAP1 RETURN JUMPDEST PUSH2 0x4B8 PUSH2 0x110F JUMP JUMPDEST STOP JUMPDEST PUSH2 0x4C2 PUSH2 0x129A JUMP JUMPDEST STOP JUMPDEST PUSH2 0x4CC PUSH2 0x1404 JUMP JUMPDEST PUSH1 0x40 MLOAD DUP1 DUP3 PUSH20 0xFFFFFFFFFFFFFFFFFFFFFFFFFFFFFFFFFFFFFFFF AND PUSH20 0xFFFFFFFFFFFFFFFFFFFFFFFFFFFFFFFFFFFFFFFF AND DUP2 MSTORE PUSH1 0x20 ADD SWAP2 POP POP PUSH1 0x40 MLOAD DUP1 SWAP2 SUB SWAP1 RETURN JUMPDEST PUSH2 0x516 PUSH2 0x142E JUMP JUMPDEST PUSH1 0x40 MLOAD DUP1 DUP1 PUSH1 0x20 ADD DUP3 DUP2 SUB DUP3 MSTORE DUP4 DUP2 DUP2 MLOAD DUP2 MSTORE PUSH1 0x20 ADD SWAP2 POP DUP1 MLOAD SWAP1 PUSH1 0x20 ADD SWAP1 DUP1 DUP4 DUP4 PUSH1 0x0 JUMPDEST DUP4 DUP2 LT ISZERO PUSH2 0x556 JUMPI DUP1 DUP3 ADD MLOAD DUP2 DUP5 ADD MSTORE PUSH1 0x20 DUP2 ADD SWAP1 POP PUSH2 0x53B JUMP JUMPDEST POP POP POP POP SWAP1 POP SWAP1 DUP2 ADD SWAP1 PUSH1 0x1F AND DUP1 ISZERO PUSH2 0x583 JUMPI DUP1 DUP3 SUB DUP1 MLOAD PUSH1 0x1 DUP4 PUSH1 0x20 SUB PUSH2 0x100 EXP SUB NOT AND DUP2 MSTORE PUSH1 0x20 ADD SWAP2 POP JUMPDEST POP SWAP3 POP POP POP PUSH1 0x40 MLOAD DUP1 SWAP2 SUB SWAP1 RETURN JUMPDEST PUSH2 0x5BD PUSH1 0x4 DUP1 CALLDATASIZE SUB PUSH1 0x20 DUP2 LT ISZERO PUSH2 0x5A7 JUMPI PUSH1 0x0 DUP1 REVERT JUMPDEST DUP2 ADD SWAP1 DUP1 DUP1 CALLDATALOAD SWAP1 PUSH1 0x20 ADD SWAP1 SWAP3 SWAP2 SWAP1 POP POP POP PUSH2 0x14D0 JUMP JUMPDEST PUSH1 0x40 MLOAD DUP1 DUP3 ISZERO ISZERO ISZERO ISZERO DUP2 MSTORE PUSH1 0x20 ADD SWAP2 POP POP PUSH1 0x40 MLOAD DUP1 SWAP2 SUB SWAP1 RETURN JUMPDEST PUSH2 0x623 PUSH1 0x4 DUP1 CALLDATASIZE SUB PUSH1 0x40 DUP2 LT ISZERO PUSH2 0x5ED JUMPI PUSH1 0x0 DUP1 REVERT JUMPDEST DUP2 ADD SWAP1 DUP1 DUP1 CALLDATALOAD PUSH20 0xFFFFFFFFFFFFFFFFFFFFFFFFFFFFFFFFFFFFFFFF AND SWAP1 PUSH1 0x20 ADD SWAP1 SWAP3 SWAP2 SWAP1 DUP1 CALLDATALOAD SWAP1 PUSH1 0x20 ADD SWAP1 SWAP3 SWAP2 SWAP1 POP POP POP PUSH2 0x1638 JUMP JUMPDEST PUSH1 0x40 MLOAD DUP1 DUP3 ISZERO ISZERO ISZERO ISZERO DUP2 MSTORE PUSH1 0x20 ADD SWAP2 POP POP PUSH1 0x40 MLOAD DUP1 SWAP2 SUB SWAP1 RETURN JUMPDEST PUSH2 0x689 PUSH1 0x4 DUP1 CALLDATASIZE SUB PUSH1 0x40 DUP2 LT ISZERO PUSH2 0x653 JUMPI PUSH1 0x0 DUP1 REVERT JUMPDEST DUP2 ADD SWAP1 DUP1 DUP1 CALLDATALOAD PUSH20 0xFFFFFFFFFFFFFFFFFFFFFFFFFFFFFFFFFFFFFFFF AND SWAP1 PUSH1 0x20 ADD SWAP1 SWAP3 SWAP2 SWAP1 DUP1 CALLDATALOAD SWAP1 PUSH1 0x20 ADD SWAP1 SWAP3 SWAP2 SWAP1 POP POP POP PUSH2 0x1705 JUMP JUMPDEST PUSH1 0x40 MLOAD DUP1 DUP3 ISZERO ISZERO ISZERO ISZERO DUP2 MSTORE PUSH1 0x20 ADD SWAP2 POP POP PUSH1 0x40 MLOAD DUP1 SWAP2 SUB SWAP1 RETURN JUMPDEST PUSH2 0x705 PUSH1 0x4 DUP1 CALLDATASIZE SUB PUSH1 0x40 DUP2 LT ISZERO PUSH2 0x6B9 JUMPI PUSH1 0x0 DUP1 REVERT JUMPDEST DUP2 ADD SWAP1 DUP1 DUP1 CALLDATALOAD PUSH20 0xFFFFFFFFFFFFFFFFFFFFFFFFFFFFFFFFFFFFFFFF AND SWAP1 PUSH1 0x20 ADD SWAP1 SWAP3 SWAP2 SWAP1 DUP1 CALLDATALOAD PUSH20 0xFFFFFFFFFFFFFFFFFFFFFFFFFFFFFFFFFFFFFFFF AND SWAP1 PUSH1 0x20 ADD SWAP1 SWAP3 SWAP2 SWAP1 POP POP POP PUSH2 0x1723 JUMP JUMPDEST PUSH1 0x40 MLOAD DUP1 DUP3 DUP2 MSTORE PUSH1 0x20 ADD SWAP2 POP POP PUSH1 0x40 MLOAD DUP1 SWAP2 SUB SWAP1 RETURN JUMPDEST PUSH2 0x8AE PUSH1 0x4 DUP1 CALLDATASIZE SUB PUSH1 0xC0 DUP2 LT ISZERO PUSH2 0x731 JUMPI PUSH1 0x0 DUP1 REVERT JUMPDEST DUP2 ADD SWAP1 DUP1 DUP1 CALLDATALOAD SWAP1 PUSH1 0x20 ADD SWAP1 PUSH5 0x100000000 DUP2 GT ISZERO PUSH2 0x74E JUMPI PUSH1 0x0 DUP1 REVERT JUMPDEST DUP3 ADD DUP4 PUSH1 0x20 DUP3 ADD GT ISZERO PUSH2 0x760 JUMPI PUSH1 0x0 DUP1 REVERT JUMPDEST DUP1 CALLDATALOAD SWAP1 PUSH1 0x20 ADD SWAP2 DUP5 PUSH1 0x1 DUP4 MUL DUP5 ADD GT PUSH5 0x100000000 DUP4 GT OR ISZERO PUSH2 0x782 JUMPI PUSH1 0x0 DUP1 REVERT JUMPDEST SWAP2 SWAP1 DUP1 DUP1 PUSH1 0x1F ADD PUSH1 0x20 DUP1 SWAP2 DIV MUL PUSH1 0x20 ADD PUSH1 0x40 MLOAD SWAP1 DUP2 ADD PUSH1 0x40 MSTORE DUP1 SWAP4 SWAP3 SWAP2 SWAP1 DUP2 DUP2 MSTORE PUSH1 0x20 ADD DUP4 DUP4 DUP1 DUP3 DUP5 CALLDATACOPY PUSH1 0x0 DUP2 DUP5 ADD MSTORE PUSH1 0x1F NOT PUSH1 0x1F DUP3 ADD AND SWAP1 POP DUP1 DUP4 ADD SWAP3 POP POP POP POP POP POP POP SWAP2 SWAP3 SWAP2 SWAP3 SWAP1 DUP1 CALLDATALOAD SWAP1 PUSH1 0x20 ADD SWAP1 PUSH5 0x100000000 DUP2 GT ISZERO PUSH2 0x7E5 JUMPI PUSH1 0x0 DUP1 REVERT JUMPDEST DUP3 ADD DUP4 PUSH1 0x20 DUP3 ADD GT ISZERO PUSH2 0x7F7 JUMPI PUSH1 0x0 DUP1 REVERT JUMPDEST DUP1 CALLDATALOAD SWAP1 PUSH1 0x20 ADD SWAP2 DUP5 PUSH1 0x1 DUP4 MUL DUP5 ADD GT PUSH5 0x100000000 DUP4 GT OR ISZERO PUSH2 0x819 JUMPI PUSH1 0x0 DUP1 REVERT JUMPDEST SWAP2 SWAP1 DUP1 DUP1 PUSH1 0x1F ADD PUSH1 0x20 DUP1 SWAP2 DIV MUL PUSH1 0x20 ADD PUSH1 0x40 MLOAD SWAP1 DUP2 ADD PUSH1 0x40 MSTORE DUP1 SWAP4 SWAP3 SWAP2 SWAP1 DUP2 DUP2 MSTORE PUSH1 0x20 ADD DUP4 DUP4 DUP1 DUP3 DUP5 CALLDATACOPY PUSH1 0x0 DUP2 DUP5 ADD MSTORE PUSH1 0x1F NOT PUSH1 0x1F DUP3 ADD AND SWAP1 POP DUP1 DUP4 ADD SWAP3 POP POP POP POP POP POP POP SWAP2 SWAP3 SWAP2 SWAP3 SWAP1 DUP1 CALLDATALOAD PUSH1 0xFF AND SWAP1 PUSH1 0x20 ADD SWAP1 SWAP3 SWAP2 SWAP1 DUP1 CALLDATALOAD SWAP1 PUSH1 0x20 ADD SWAP1 SWAP3 SWAP2 SWAP1 DUP1 CALLDATALOAD ISZERO ISZERO SWAP1 PUSH1 0x20 ADD SWAP1 SWAP3 SWAP2 SWAP1 DUP1 CALLDATALOAD PUSH20 0xFFFFFFFFFFFFFFFFFFFFFFFFFFFFFFFFFFFFFFFF AND SWAP1 PUSH1 0x20 ADD SWAP1 SWAP3 SWAP2 SWAP1 POP POP POP PUSH2 0x17AA JUMP JUMPDEST STOP JUMPDEST PUSH2 0x8F2 PUSH1 0x4 DUP1 CALLDATASIZE SUB PUSH1 0x20 DUP2 LT ISZERO PUSH2 0x8C6 JUMPI PUSH1 0x0 DUP1 REVERT JUMPDEST DUP2 ADD SWAP1 DUP1 DUP1 CALLDATALOAD PUSH20 0xFFFFFFFFFFFFFFFFFFFFFFFFFFFFFFFFFFFFFFFF AND SWAP1 PUSH1 0x20 ADD SWAP1 SWAP3 SWAP2 SWAP1 POP POP POP PUSH2 0x195D JUMP JUMPDEST STOP JUMPDEST PUSH1 0x60 PUSH1 0x4 DUP1 SLOAD PUSH1 0x1 DUP2 PUSH1 0x1 AND ISZERO PUSH2 0x100 MUL SUB AND PUSH1 0x2 SWAP1 DIV DUP1 PUSH1 0x1F ADD PUSH1 0x20 DUP1 SWAP2 DIV MUL PUSH1 0x20 ADD PUSH1 0x40 MLOAD SWAP1 DUP2 ADD PUSH1 0x40 MSTORE DUP1 SWAP3 SWAP2 SWAP1 DUP2 DUP2 MSTORE PUSH1 0x20 ADD DUP3 DUP1 SLOAD PUSH1 0x1 DUP2 PUSH1 0x1 AND ISZERO PUSH2 0x100 MUL SUB AND PUSH1 0x2 SWAP1 DIV DUP1 ISZERO PUSH2 0x98C JUMPI DUP1 PUSH1 0x1F LT PUSH2 0x961 JUMPI PUSH2 0x100 DUP1 DUP4 SLOAD DIV MUL DUP4 MSTORE SWAP2 PUSH1 0x20 ADD SWAP2 PUSH2 0x98C JUMP JUMPDEST DUP3 ADD SWAP2 SWAP1 PUSH1 0x0 MSTORE PUSH1 0x20 PUSH1 0x0 KECCAK256 SWAP1 JUMPDEST DUP2 SLOAD DUP2 MSTORE SWAP1 PUSH1 0x1 ADD SWAP1 PUSH1 0x20 ADD DUP1 DUP4 GT PUSH2 0x96F JUMPI DUP3 SWAP1 SUB PUSH1 0x1F AND DUP3 ADD SWAP2 JUMPDEST POP POP POP POP POP SWAP1 POP SWAP1 JUMP JUMPDEST PUSH1 0x0 PUSH2 0x9AA PUSH2 0x9A3 PUSH2 0x1B6D JUMP JUMPDEST DUP5 DUP5 PUSH2 0x1B75 JUMP JUMPDEST PUSH1 0x1 SWAP1 POP SWAP3 SWAP2 POP POP JUMP JUMPDEST PUSH1 0x0 PUSH1 0x3 SLOAD SWAP1 POP SWAP1 JUMP JUMPDEST PUSH1 0x0 PUSH2 0x9CB DUP5 DUP5 DUP5 PUSH2 0x1D6C JUMP JUMPDEST PUSH2 0xA8C DUP5 PUSH2 0x9D7 PUSH2 0x1B6D JUMP JUMPDEST PUSH2 0xA87 DUP6 PUSH1 0x40 MLOAD DUP1 PUSH1 0x60 ADD PUSH1 0x40 MSTORE DUP1 PUSH1 0x28 DUP2 MSTORE PUSH1 0x20 ADD PUSH2 0x28B0 PUSH1 0x28 SWAP2 CODECOPY PUSH1 0x2 PUSH1 0x0 DUP12 PUSH20 0xFFFFFFFFFFFFFFFFFFFFFFFFFFFFFFFFFFFFFFFF AND PUSH20 0xFFFFFFFFFFFFFFFFFFFFFFFFFFFFFFFFFFFFFFFF AND DUP2 MSTORE PUSH1 0x20 ADD SWAP1 DUP2 MSTORE PUSH1 0x20 ADD PUSH1 0x0 KECCAK256 PUSH1 0x0 PUSH2 0xA3D PUSH2 0x1B6D JUMP JUMPDEST PUSH20 0xFFFFFFFFFFFFFFFFFFFFFFFFFFFFFFFFFFFFFFFF AND PUSH20 0xFFFFFFFFFFFFFFFFFFFFFFFFFFFFFFFFFFFFFFFF AND DUP2 MSTORE PUSH1 0x20 ADD SWAP1 DUP2 MSTORE PUSH1 0x20 ADD PUSH1 0x0 KECCAK256 SLOAD PUSH2 0x220C SWAP1 SWAP3 SWAP2 SWAP1 PUSH4 0xFFFFFFFF AND JUMP JUMPDEST PUSH2 0x1B75 JUMP JUMPDEST PUSH1 0x1 SWAP1 POP SWAP4 SWAP3 POP POP POP JUMP JUMPDEST PUSH1 0x0 PUSH1 0x6 PUSH1 0x0 SWAP1 SLOAD SWAP1 PUSH2 0x100 EXP SWAP1 DIV PUSH1 0xFF AND SWAP1 POP SWAP1 JUMP JUMPDEST PUSH1 0x0 PUSH2 0xB57 PUSH2 0xABB PUSH2 0x1B6D JUMP JUMPDEST DUP5 PUSH2 0xB52 DUP6 PUSH1 0x2 PUSH1 0x0 PUSH2 0xACC PUSH2 0x1B6D JUMP JUMPDEST PUSH20 0xFFFFFFFFFFFFFFFFFFFFFFFFFFFFFFFFFFFFFFFF AND PUSH20 0xFFFFFFFFFFFFFFFFFFFFFFFFFFFFFFFFFFFFFFFF AND DUP2 MSTORE PUSH1 0x20 ADD SWAP1 DUP2 MSTORE PUSH1 0x20 ADD PUSH1 0x0 KECCAK256 PUSH1 0x0 DUP10 PUSH20 0xFFFFFFFFFFFFFFFFFFFFFFFFFFFFFFFFFFFFFFFF AND PUSH20 0xFFFFFFFFFFFFFFFFFFFFFFFFFFFFFFFFFFFFFFFF AND DUP2 MSTORE PUSH1 0x20 ADD SWAP1 DUP2 MSTORE PUSH1 0x20 ADD PUSH1 0x0 KECCAK256 SLOAD PUSH2 0x22C6 SWAP1 SWAP2 SWAP1 PUSH4 0xFFFFFFFF AND JUMP JUMPDEST PUSH2 0x1B75 JUMP JUMPDEST PUSH1 0x1 SWAP1 POP SWAP3 SWAP2 POP POP JUMP JUMPDEST PUSH2 0xB69 PUSH2 0x1B6D JUMP JUMPDEST PUSH20 0xFFFFFFFFFFFFFFFFFFFFFFFFFFFFFFFFFFFFFFFF AND PUSH1 0x6 PUSH1 0x1 SWAP1 SLOAD SWAP1 PUSH2 0x100 EXP SWAP1 DIV PUSH20 0xFFFFFFFFFFFFFFFFFFFFFFFFFFFFFFFFFFFFFFFF AND PUSH20 0xFFFFFFFFFFFFFFFFFFFFFFFFFFFFFFFFFFFFFFFF AND EQ PUSH2 0xC2B JUMPI PUSH1 0x40 MLOAD PUSH32 0x8C379A000000000000000000000000000000000000000000000000000000000 DUP2 MSTORE PUSH1 0x4 ADD DUP1 DUP1 PUSH1 0x20 ADD DUP3 DUP2 SUB DUP3 MSTORE PUSH1 0x20 DUP2 MSTORE PUSH1 0x20 ADD DUP1 PUSH32 0x4F776E61626C653A2063616C6C6572206973206E6F7420746865206F776E6572 DUP2 MSTORE POP PUSH1 0x20 ADD SWAP2 POP POP PUSH1 0x40 MLOAD DUP1 SWAP2 SUB SWAP1 REVERT JUMPDEST PUSH1 0x6 PUSH1 0x16 SWAP1 SLOAD SWAP1 PUSH2 0x100 EXP SWAP1 DIV PUSH1 0xFF AND PUSH2 0xCAD JUMPI PUSH1 0x40 MLOAD PUSH32 0x8C379A000000000000000000000000000000000000000000000000000000000 DUP2 MSTORE PUSH1 0x4 ADD DUP1 DUP1 PUSH1 0x20 ADD DUP3 DUP2 SUB DUP3 MSTORE PUSH1 0x17 DUP2 MSTORE PUSH1 0x20 ADD DUP1 PUSH32 0x636F6E747261637420616C726561647920706175736564000000000000000000 DUP2 MSTORE POP PUSH1 0x20 ADD SWAP2 POP POP PUSH1 0x40 MLOAD DUP1 SWAP2 SUB SWAP1 REVERT JUMPDEST PUSH1 0x0 PUSH1 0x6 PUSH1 0x16 PUSH2 0x100 EXP DUP2 SLOAD DUP2 PUSH1 0xFF MUL NOT AND SWAP1 DUP4 ISZERO ISZERO MUL OR SWAP1 SSTORE POP JUMP JUMPDEST PUSH1 0x0 PUSH2 0xCDD PUSH2 0xCD7 PUSH2 0x1B6D JUMP JUMPDEST DUP4 PUSH2 0x234E JUMP JUMPDEST PUSH1 0x1 SWAP1 POP SWAP2 SWAP1 POP JUMP JUMPDEST PUSH2 0xCEE PUSH2 0x1B6D JUMP JUMPDEST PUSH20 0xFFFFFFFFFFFFFFFFFFFFFFFFFFFFFFFFFFFFFFFF AND PUSH1 0x6 PUSH1 0x1 SWAP1 SLOAD SWAP1 PUSH2 0x100 EXP SWAP1 DIV PUSH20 0xFFFFFFFFFFFFFFFFFFFFFFFFFFFFFFFFFFFFFFFF AND PUSH20 0xFFFFFFFFFFFFFFFFFFFFFFFFFFFFFFFFFFFFFFFF AND EQ PUSH2 0xDB0 JUMPI PUSH1 0x40 MLOAD PUSH32 0x8C379A000000000000000000000000000000000000000000000000000000000 DUP2 MSTORE PUSH1 0x4 ADD DUP1 DUP1 PUSH1 0x20 ADD DUP3 DUP2 SUB DUP3 MSTORE PUSH1 0x20 DUP2 MSTORE PUSH1 0x20 ADD DUP1 PUSH32 0x4F776E61626C653A2063616C6C6572206973206E6F7420746865206F776E6572 DUP2 MSTORE POP PUSH1 0x20 ADD SWAP2 POP POP PUSH1 0x40 MLOAD DUP1 SWAP2 SUB SWAP1 REVERT JUMPDEST PUSH1 0x7 PUSH1 0x0 DUP3 PUSH20 0xFFFFFFFFFFFFFFFFFFFFFFFFFFFFFFFFFFFFFFFF AND PUSH20 0xFFFFFFFFFFFFFFFFFFFFFFFFFFFFFFFFFFFFFFFF AND DUP2 MSTORE PUSH1 0x20 ADD SWAP1 DUP2 MSTORE PUSH1 0x20 ADD PUSH1 0x0 KECCAK256 PUSH1 0x0 SWAP1 SLOAD SWAP1 PUSH2 0x100 EXP SWAP1 DIV PUSH1 0xFF AND ISZERO PUSH2 0xE70 JUMPI PUSH1 0x40 MLOAD PUSH32 0x8C379A000000000000000000000000000000000000000000000000000000000 DUP2 MSTORE PUSH1 0x4 ADD DUP1 DUP1 PUSH1 0x20 ADD DUP3 DUP2 SUB DUP3 MSTORE PUSH1 0x18 DUP2 MSTORE PUSH1 0x20 ADD DUP1 PUSH32 0x7573657220616C726561647920626C61636B6C69737465640000000000000000 DUP2 MSTORE POP PUSH1 0x20 ADD SWAP2 POP POP PUSH1 0x40 MLOAD DUP1 SWAP2 SUB SWAP1 REVERT JUMPDEST PUSH1 0x1 PUSH1 0x7 PUSH1 0x0 DUP4 PUSH20 0xFFFFFFFFFFFFFFFFFFFFFFFFFFFFFFFFFFFFFFFF AND PUSH20 0xFFFFFFFFFFFFFFFFFFFFFFFFFFFFFFFFFFFFFFFF AND DUP2 MSTORE PUSH1 0x20 ADD SWAP1 DUP2 MSTORE PUSH1 0x20 ADD PUSH1 0x0 KECCAK256 PUSH1 0x0 PUSH2 0x100 EXP DUP2 SLOAD DUP2 PUSH1 0xFF MUL NOT AND SWAP1 DUP4 ISZERO ISZERO MUL OR SWAP1 SSTORE POP POP JUMP JUMPDEST PUSH1 0x0 PUSH1 0x6 PUSH1 0x15 SWAP1 SLOAD SWAP1 PUSH2 0x100 EXP SWAP1 DIV PUSH1 0xFF AND SWAP1 POP SWAP1 JUMP JUMPDEST PUSH2 0xEEA PUSH2 0x1B6D JUMP JUMPDEST PUSH20 0xFFFFFFFFFFFFFFFFFFFFFFFFFFFFFFFFFFFFFFFF AND PUSH1 0x6 PUSH1 0x1 SWAP1 SLOAD SWAP1 PUSH2 0x100 EXP SWAP1 DIV PUSH20 0xFFFFFFFFFFFFFFFFFFFFFFFFFFFFFFFFFFFFFFFF AND PUSH20 0xFFFFFFFFFFFFFFFFFFFFFFFFFFFFFFFFFFFFFFFF AND EQ PUSH2 0xFAC JUMPI PUSH1 0x40 MLOAD PUSH32 0x8C379A000000000000000000000000000000000000000000000000000000000 DUP2 MSTORE PUSH1 0x4 ADD DUP1 DUP1 PUSH1 0x20 ADD DUP3 DUP2 SUB DUP3 MSTORE PUSH1 0x20 DUP2 MSTORE PUSH1 0x20 ADD DUP1 PUSH32 0x4F776E61626C653A2063616C6C6572206973206E6F7420746865206F776E6572 DUP2 MSTORE POP PUSH1 0x20 ADD SWAP2 POP POP PUSH1 0x40 MLOAD DUP1 SWAP2 SUB SWAP1 REVERT JUMPDEST PUSH1 0x7 PUSH1 0x0 DUP3 PUSH20 0xFFFFFFFFFFFFFFFFFFFFFFFFFFFFFFFFFFFFFFFF AND PUSH20 0xFFFFFFFFFFFFFFFFFFFFFFFFFFFFFFFFFFFFFFFF AND DUP2 MSTORE PUSH1 0x20 ADD SWAP1 DUP2 MSTORE PUSH1 0x20 ADD PUSH1 0x0 KECCAK256 PUSH1 0x0 SWAP1 SLOAD SWAP1 PUSH2 0x100 EXP SWAP1 DIV PUSH1 0xFF AND PUSH2 0x106B JUMPI PUSH1 0x40 MLOAD PUSH32 0x8C379A000000000000000000000000000000000000000000000000000000000 DUP2 MSTORE PUSH1 0x4 ADD DUP1 DUP1 PUSH1 0x20 ADD DUP3 DUP2 SUB DUP3 MSTORE PUSH1 0x18 DUP2 MSTORE PUSH1 0x20 ADD DUP1 PUSH32 0x7573657220616C72656164792077686974656C69737465640000000000000000 DUP2 MSTORE POP PUSH1 0x20 ADD SWAP2 POP POP PUSH1 0x40 MLOAD DUP1 SWAP2 SUB SWAP1 REVERT JUMPDEST PUSH1 0x0 PUSH1 0x7 PUSH1 0x0 DUP4 PUSH20 0xFFFFFFFFFFFFFFFFFFFFFFFFFFFFFFFFFFFFFFFF AND PUSH20 0xFFFFFFFFFFFFFFFFFFFFFFFFFFFFFFFFFFFFFFFF AND DUP2 MSTORE PUSH1 0x20 ADD SWAP1 DUP2 MSTORE PUSH1 0x20 ADD PUSH1 0x0 KECCAK256 PUSH1 0x0 PUSH2 0x100 EXP DUP2 SLOAD DUP2 PUSH1 0xFF MUL NOT AND SWAP1 DUP4 ISZERO ISZERO MUL OR SWAP1 SSTORE POP POP JUMP JUMPDEST PUSH1 0x0 PUSH1 0x1 PUSH1 0x0 DUP4 PUSH20 0xFFFFFFFFFFFFFFFFFFFFFFFFFFFFFFFFFFFFFFFF AND PUSH20 0xFFFFFFFFFFFFFFFFFFFFFFFFFFFFFFFFFFFFFFFF AND DUP2 MSTORE PUSH1 0x20 ADD SWAP1 DUP2 MSTORE PUSH1 0x20 ADD PUSH1 0x0 KECCAK256 SLOAD SWAP1 POP SWAP2 SWAP1 POP JUMP JUMPDEST PUSH2 0x1117 PUSH2 0x1B6D JUMP JUMPDEST PUSH20 0xFFFFFFFFFFFFFFFFFFFFFFFFFFFFFFFFFFFFFFFF AND PUSH1 0x6 PUSH1 0x1 SWAP1 SLOAD SWAP1 PUSH2 0x100 EXP SWAP1 DIV PUSH20 0xFFFFFFFFFFFFFFFFFFFFFFFFFFFFFFFFFFFFFFFF AND PUSH20 0xFFFFFFFFFFFFFFFFFFFFFFFFFFFFFFFFFFFFFFFF AND EQ PUSH2 0x11D9 JUMPI PUSH1 0x40 MLOAD PUSH32 0x8C379A000000000000000000000000000000000000000000000000000000000 DUP2 MSTORE PUSH1 0x4 ADD DUP1 DUP1 PUSH1 0x20 ADD DUP3 DUP2 SUB DUP3 MSTORE PUSH1 0x20 DUP2 MSTORE PUSH1 0x20 ADD DUP1 PUSH32 0x4F776E61626C653A2063616C6C6572206973206E6F7420746865206F776E6572 DUP2 MSTORE POP PUSH1 0x20 ADD SWAP2 POP POP PUSH1 0x40 MLOAD DUP1 SWAP2 SUB SWAP1 REVERT JUMPDEST PUSH1 0x0 PUSH20 0xFFFFFFFFFFFFFFFFFFFFFFFFFFFFFFFFFFFFFFFF AND PUSH1 0x6 PUSH1 0x1 SWAP1 SLOAD SWAP1 PUSH2 0x100 EXP SWAP1 DIV PUSH20 0xFFFFFFFFFFFFFFFFFFFFFFFFFFFFFFFFFFFFFFFF AND PUSH20 0xFFFFFFFFFFFFFFFFFFFFFFFFFFFFFFFFFFFFFFFF AND PUSH32 0x8BE0079C531659141344CD1FD0A4F28419497F9722A3DAAFE3B4186F6B6457E0 PUSH1 0x40 MLOAD PUSH1 0x40 MLOAD DUP1 SWAP2 SUB SWAP1 LOG3 PUSH1 0x0 PUSH1 0x6 PUSH1 0x1 PUSH2 0x100 EXP DUP2 SLOAD DUP2 PUSH20 0xFFFFFFFFFFFFFFFFFFFFFFFFFFFFFFFFFFFFFFFF MUL NOT AND SWAP1 DUP4 PUSH20 0xFFFFFFFFFFFFFFFFFFFFFFFFFFFFFFFFFFFFFFFF AND MUL OR SWAP1 SSTORE POP JUMP JUMPDEST PUSH2 0x12A2 PUSH2 0x1B6D JUMP JUMPDEST PUSH20 0xFFFFFFFFFFFFFFFFFFFFFFFFFFFFFFFFFFFFFFFF AND PUSH1 0x6 PUSH1 0x1 SWAP1 SLOAD SWAP1 PUSH2 0x100 EXP SWAP1 DIV PUSH20 0xFFFFFFFFFFFFFFFFFFFFFFFFFFFFFFFFFFFFFFFF AND PUSH20 0xFFFFFFFFFFFFFFFFFFFFFFFFFFFFFFFFFFFFFFFF AND EQ PUSH2 0x1364 JUMPI PUSH1 0x40 MLOAD PUSH32 0x8C379A000000000000000000000000000000000000000000000000000000000 DUP2 MSTORE PUSH1 0x4 ADD DUP1 DUP1 PUSH1 0x20 ADD DUP3 DUP2 SUB DUP3 MSTORE PUSH1 0x20 DUP2 MSTORE PUSH1 0x20 ADD DUP1 PUSH32 0x4F776E61626C653A2063616C6C6572206973206E6F7420746865206F776E6572 DUP2 MSTORE POP PUSH1 0x20 ADD SWAP2 POP POP PUSH1 0x40 MLOAD DUP1 SWAP2 SUB SWAP1 REVERT JUMPDEST PUSH1 0x6 PUSH1 0x16 SWAP1 SLOAD SWAP1 PUSH2 0x100 EXP SWAP1 DIV PUSH1 0xFF AND ISZERO PUSH2 0x13E7 JUMPI PUSH1 0x40 MLOAD PUSH32 0x8C379A000000000000000000000000000000000000000000000000000000000 DUP2 MSTORE PUSH1 0x4 ADD DUP1 DUP1 PUSH1 0x20 ADD DUP3 DUP2 SUB DUP3 MSTORE PUSH1 0x17 DUP2 MSTORE PUSH1 0x20 ADD DUP1 PUSH32 0x636F6E747261637420616C726561647920706175736564000000000000000000 DUP2 MSTORE POP PUSH1 0x20 ADD SWAP2 POP POP PUSH1 0x40 MLOAD DUP1 SWAP2 SUB SWAP1 REVERT JUMPDEST PUSH1 0x1 PUSH1 0x6 PUSH1 0x16 PUSH2 0x100 EXP DUP2 SLOAD DUP2 PUSH1 0xFF MUL NOT AND SWAP1 DUP4 ISZERO ISZERO MUL OR SWAP1 SSTORE POP JUMP JUMPDEST PUSH1 0x0 PUSH1 0x6 PUSH1 0x1 SWAP1 SLOAD SWAP1 PUSH2 0x100 EXP SWAP1 DIV PUSH20 0xFFFFFFFFFFFFFFFFFFFFFFFFFFFFFFFFFFFFFFFF AND SWAP1 POP SWAP1 JUMP JUMPDEST PUSH1 0x60 PUSH1 0x5 DUP1 SLOAD PUSH1 0x1 DUP2 PUSH1 0x1 AND ISZERO PUSH2 0x100 MUL SUB AND PUSH1 0x2 SWAP1 DIV DUP1 PUSH1 0x1F ADD PUSH1 0x20 DUP1 SWAP2 DIV MUL PUSH1 0x20 ADD PUSH1 0x40 MLOAD SWAP1 DUP2 ADD PUSH1 0x40 MSTORE DUP1 SWAP3 SWAP2 SWAP1 DUP2 DUP2 MSTORE PUSH1 0x20 ADD DUP3 DUP1 SLOAD PUSH1 0x1 DUP2 PUSH1 0x1 AND ISZERO PUSH2 0x100 MUL SUB AND PUSH1 0x2 SWAP1 DIV DUP1 ISZERO PUSH2 0x14C6 JUMPI DUP1 PUSH1 0x1F LT PUSH2 0x149B JUMPI PUSH2 0x100 DUP1 DUP4 SLOAD DIV MUL DUP4 MSTORE SWAP2 PUSH1 0x20 ADD SWAP2 PUSH2 0x14C6 JUMP JUMPDEST DUP3 ADD SWAP2 SWAP1 PUSH1 0x0 MSTORE PUSH1 0x20 PUSH1 0x0 KECCAK256 SWAP1 JUMPDEST DUP2 SLOAD DUP2 MSTORE SWAP1 PUSH1 0x1 ADD SWAP1 PUSH1 0x20 ADD DUP1 DUP4 GT PUSH2 0x14A9 JUMPI DUP3 SWAP1 SUB PUSH1 0x1F AND DUP3 ADD SWAP2 JUMPDEST POP POP POP POP POP SWAP1 POP SWAP1 JUMP JUMPDEST PUSH1 0x0 PUSH2 0x14DA PUSH2 0x1B6D JUMP JUMPDEST PUSH20 0xFFFFFFFFFFFFFFFFFFFFFFFFFFFFFFFFFFFFFFFF AND PUSH1 0x6 PUSH1 0x1 SWAP1 SLOAD SWAP1 PUSH2 0x100 EXP SWAP1 DIV PUSH20 0xFFFFFFFFFFFFFFFFFFFFFFFFFFFFFFFFFFFFFFFF AND PUSH20 0xFFFFFFFFFFFFFFFFFFFFFFFFFFFFFFFFFFFFFFFF AND EQ PUSH2 0x159C JUMPI PUSH1 0x40 MLOAD PUSH32 0x8C379A000000000000000000000000000000000000000000000000000000000 DUP2 MSTORE PUSH1 0x4 ADD DUP1 DUP1 PUSH1 0x20 ADD DUP3 DUP2 SUB DUP3 MSTORE PUSH1 0x20 DUP2 MSTORE PUSH1 0x20 ADD DUP1 PUSH32 0x4F776E61626C653A2063616C6C6572206973206E6F7420746865206F776E6572 DUP2 MSTORE POP PUSH1 0x20 ADD SWAP2 POP POP PUSH1 0x40 MLOAD DUP1 SWAP2 SUB SWAP1 REVERT JUMPDEST PUSH1 0x6 PUSH1 0x15 SWAP1 SLOAD SWAP1 PUSH2 0x100 EXP SWAP1 DIV PUSH1 0xFF AND PUSH2 0x161E JUMPI PUSH1 0x40 MLOAD PUSH32 0x8C379A000000000000000000000000000000000000000000000000000000000 DUP2 MSTORE PUSH1 0x4 ADD DUP1 DUP1 PUSH1 0x20 ADD DUP3 DUP2 SUB DUP3 MSTORE PUSH1 0x1A DUP2 MSTORE PUSH1 0x20 ADD DUP1 PUSH32 0x7468697320746F6B656E206973206E6F74206D696E7461626C65000000000000 DUP2 MSTORE POP PUSH1 0x20 ADD SWAP2 POP POP PUSH1 0x40 MLOAD DUP1 SWAP2 SUB SWAP1 REVERT JUMPDEST PUSH2 0x162F PUSH2 0x1629 PUSH2 0x1B6D JUMP JUMPDEST DUP4 PUSH2 0x2508 JUMP JUMPDEST PUSH1 0x1 SWAP1 POP SWAP2 SWAP1 POP JUMP JUMPDEST PUSH1 0x0 PUSH2 0x16FB PUSH2 0x1645 PUSH2 0x1B6D JUMP JUMPDEST DUP5 PUSH2 0x16F6 DUP6 PUSH1 0x40 MLOAD DUP1 PUSH1 0x60 ADD PUSH1 0x40 MSTORE DUP1 PUSH1 0x25 DUP2 MSTORE PUSH1 0x20 ADD PUSH2 0x294F PUSH1 0x25 SWAP2 CODECOPY PUSH1 0x2 PUSH1 0x0 PUSH2 0x166F PUSH2 0x1B6D JUMP JUMPDEST PUSH20 0xFFFFFFFFFFFFFFFFFFFFFFFFFFFFFFFFFFFFFFFF AND PUSH20 0xFFFFFFFFFFFFFFFFFFFFFFFFFFFFFFFFFFFFFFFF AND DUP2 MSTORE PUSH1 0x20 ADD SWAP1 DUP2 MSTORE PUSH1 0x20 ADD PUSH1 0x0 KECCAK256 PUSH1 0x0 DUP11 PUSH20 0xFFFFFFFFFFFFFFFFFFFFFFFFFFFFFFFFFFFFFFFF AND PUSH20 0xFFFFFFFFFFFFFFFFFFFFFFFFFFFFFFFFFFFFFFFF AND DUP2 MSTORE PUSH1 0x20 ADD SWAP1 DUP2 MSTORE PUSH1 0x20 ADD PUSH1 0x0 KECCAK256 SLOAD PUSH2 0x220C SWAP1 SWAP3 SWAP2 SWAP1 PUSH4 0xFFFFFFFF AND JUMP JUMPDEST PUSH2 0x1B75 JUMP JUMPDEST PUSH1 0x1 SWAP1 POP SWAP3 SWAP2 POP POP JUMP JUMPDEST PUSH1 0x0 PUSH2 0x1719 PUSH2 0x1712 PUSH2 0x1B6D JUMP JUMPDEST DUP5 DUP5 PUSH2 0x1D6C JUMP JUMPDEST PUSH1 0x1 SWAP1 POP SWAP3 SWAP2 POP POP JUMP JUMPDEST PUSH1 0x0 PUSH1 0x2 PUSH1 0x0 DUP5 PUSH20 0xFFFFFFFFFFFFFFFFFFFFFFFFFFFFFFFFFFFFFFFF AND PUSH20 0xFFFFFFFFFFFFFFFFFFFFFFFFFFFFFFFFFFFFFFFF AND DUP2 MSTORE PUSH1 0x20 ADD SWAP1 DUP2 MSTORE PUSH1 0x20 ADD PUSH1 0x0 KECCAK256 PUSH1 0x0 DUP4 PUSH20 0xFFFFFFFFFFFFFFFFFFFFFFFFFFFFFFFFFFFFFFFF AND PUSH20 0xFFFFFFFFFFFFFFFFFFFFFFFFFFFFFFFFFFFFFFFF AND DUP2 MSTORE PUSH1 0x20 ADD SWAP1 DUP2 MSTORE PUSH1 0x20 ADD PUSH1 0x0 KECCAK256 SLOAD SWAP1 POP SWAP3 SWAP2 POP POP JUMP JUMPDEST PUSH1 0x0 PUSH1 0x1 SWAP1 SLOAD SWAP1 PUSH2 0x100 EXP SWAP1 DIV PUSH1 0xFF AND DUP1 PUSH2 0x17C9 JUMPI POP PUSH2 0x17C8 PUSH2 0x26C5 JUMP JUMPDEST JUMPDEST DUP1 PUSH2 0x17E0 JUMPI POP PUSH1 0x0 DUP1 SWAP1 SLOAD SWAP1 PUSH2 0x100 EXP SWAP1 DIV PUSH1 0xFF AND ISZERO JUMPDEST PUSH2 0x1835 JUMPI PUSH1 0x40 MLOAD PUSH32 0x8C379A000000000000000000000000000000000000000000000000000000000 DUP2 MSTORE PUSH1 0x4 ADD DUP1 DUP1 PUSH1 0x20 ADD DUP3 DUP2 SUB DUP3 MSTORE PUSH1 0x2E DUP2 MSTORE PUSH1 0x20 ADD DUP1 PUSH2 0x28D8 PUSH1 0x2E SWAP2 CODECOPY PUSH1 0x40 ADD SWAP2 POP POP PUSH1 0x40 MLOAD DUP1 SWAP2 SUB SWAP1 REVERT JUMPDEST PUSH1 0x0 DUP1 PUSH1 0x1 SWAP1 SLOAD SWAP1 PUSH2 0x100 EXP SWAP1 DIV PUSH1 0xFF AND ISZERO SWAP1 POP DUP1 ISZERO PUSH2 0x1885 JUMPI PUSH1 0x1 PUSH1 0x0 PUSH1 0x1 PUSH2 0x100 EXP DUP2 SLOAD DUP2 PUSH1 0xFF MUL NOT AND SWAP1 DUP4 ISZERO ISZERO MUL OR SWAP1 SSTORE POP PUSH1 0x1 PUSH1 0x0 DUP1 PUSH2 0x100 EXP DUP2 SLOAD DUP2 PUSH1 0xFF MUL NOT AND SWAP1 DUP4 ISZERO ISZERO MUL OR SWAP1 SSTORE POP JUMPDEST DUP2 PUSH1 0x6 PUSH1 0x1 PUSH2 0x100 EXP DUP2 SLOAD DUP2 PUSH20 0xFFFFFFFFFFFFFFFFFFFFFFFFFFFFFFFFFFFFFFFF MUL NOT AND SWAP1 DUP4 PUSH20 0xFFFFFFFFFFFFFFFFFFFFFFFFFFFFFFFFFFFFFFFF AND MUL OR SWAP1 SSTORE POP DUP7 PUSH1 0x4 SWAP1 DUP1 MLOAD SWAP1 PUSH1 0x20 ADD SWAP1 PUSH2 0x18DC SWAP3 SWAP2 SWAP1 PUSH2 0x276C JUMP JUMPDEST POP DUP6 PUSH1 0x5 SWAP1 DUP1 MLOAD SWAP1 PUSH1 0x20 ADD SWAP1 PUSH2 0x18F3 SWAP3 SWAP2 SWAP1 PUSH2 0x276C JUMP JUMPDEST POP DUP5 PUSH1 0x6 PUSH1 0x0 PUSH2 0x100 EXP DUP2 SLOAD DUP2 PUSH1 0xFF MUL NOT AND SWAP1 DUP4 PUSH1 0xFF AND MUL OR SWAP1 SSTORE POP DUP3 PUSH1 0x6 PUSH1 0x15 PUSH2 0x100 EXP DUP2 SLOAD DUP2 PUSH1 0xFF MUL NOT AND SWAP1 DUP4 ISZERO ISZERO MUL OR SWAP1 SSTORE POP PUSH2 0x1933 DUP3 DUP6 PUSH2 0x2508 JUMP JUMPDEST DUP1 ISZERO PUSH2 0x1954 JUMPI PUSH1 0x0 DUP1 PUSH1 0x1 PUSH2 0x100 EXP DUP2 SLOAD DUP2 PUSH1 0xFF MUL NOT AND SWAP1 DUP4 ISZERO ISZERO MUL OR SWAP1 SSTORE POP JUMPDEST POP POP POP POP POP POP POP JUMP JUMPDEST PUSH2 0x1965 PUSH2 0x1B6D JUMP JUMPDEST PUSH20 0xFFFFFFFFFFFFFFFFFFFFFFFFFFFFFFFFFFFFFFFF AND PUSH1 0x6 PUSH1 0x1 SWAP1 SLOAD SWAP1 PUSH2 0x100 EXP SWAP1 DIV PUSH20 0xFFFFFFFFFFFFFFFFFFFFFFFFFFFFFFFFFFFFFFFF AND PUSH20 0xFFFFFFFFFFFFFFFFFFFFFFFFFFFFFFFFFFFFFFFF AND EQ PUSH2 0x1A27 JUMPI PUSH1 0x40 MLOAD PUSH32 0x8C379A000000000000000000000000000000000000000000000000000000000 DUP2 MSTORE PUSH1 0x4 ADD DUP1 DUP1 PUSH1 0x20 ADD DUP3 DUP2 SUB DUP3 MSTORE PUSH1 0x20 DUP2 MSTORE PUSH1 0x20 ADD DUP1 PUSH32 0x4F776E61626C653A2063616C6C6572206973206E6F7420746865206F776E6572 DUP2 MSTORE POP PUSH1 0x20 ADD SWAP2 POP POP PUSH1 0x40 MLOAD DUP1 SWAP2 SUB SWAP1 REVERT JUMPDEST PUSH1 0x0 PUSH20 0xFFFFFFFFFFFFFFFFFFFFFFFFFFFFFFFFFFFFFFFF AND DUP2 PUSH20 0xFFFFFFFFFFFFFFFFFFFFFFFFFFFFFFFFFFFFFFFF AND EQ ISZERO PUSH2 0x1AAD JUMPI PUSH1 0x40 MLOAD PUSH32 0x8C379A000000000000000000000000000000000000000000000000000000000 DUP2 MSTORE PUSH1 0x4 ADD DUP1 DUP1 PUSH1 0x20 ADD DUP3 DUP2 SUB DUP3 MSTORE PUSH1 0x26 DUP2 MSTORE PUSH1 0x20 ADD DUP1 PUSH2 0x285B PUSH1 0x26 SWAP2 CODECOPY PUSH1 0x40 ADD SWAP2 POP POP PUSH1 0x40 MLOAD DUP1 SWAP2 SUB SWAP1 REVERT JUMPDEST DUP1 PUSH20 0xFFFFFFFFFFFFFFFFFFFFFFFFFFFFFFFFFFFFFFFF AND PUSH1 0x6 PUSH1 0x1 SWAP1 SLOAD SWAP1 PUSH2 0x100 EXP SWAP1 DIV PUSH20 0xFFFFFFFFFFFFFFFFFFFFFFFFFFFFFFFFFFFFFFFF AND PUSH20 0xFFFFFFFFFFFFFFFFFFFFFFFFFFFFFFFFFFFFFFFF AND PUSH32 0x8BE0079C531659141344CD1FD0A4F28419497F9722A3DAAFE3B4186F6B6457E0 PUSH1 0x40 MLOAD PUSH1 0x40 MLOAD DUP1 SWAP2 SUB SWAP1 LOG3 DUP1 PUSH1 0x6 PUSH1 0x1 PUSH2 0x100 EXP DUP2 SLOAD DUP2 PUSH20 0xFFFFFFFFFFFFFFFFFFFFFFFFFFFFFFFFFFFFFFFF MUL NOT AND SWAP1 DUP4 PUSH20 0xFFFFFFFFFFFFFFFFFFFFFFFFFFFFFFFFFFFFFFFF AND MUL OR SWAP1 SSTORE POP POP JUMP JUMPDEST PUSH1 0x0 CALLER SWAP1 POP SWAP1 JUMP JUMPDEST PUSH1 0x0 PUSH20 0xFFFFFFFFFFFFFFFFFFFFFFFFFFFFFFFFFFFFFFFF AND DUP4 PUSH20 0xFFFFFFFFFFFFFFFFFFFFFFFFFFFFFFFFFFFFFFFF AND EQ ISZERO PUSH2 0x1BFB JUMPI PUSH1 0x40 MLOAD PUSH32 0x8C379A000000000000000000000000000000000000000000000000000000000 DUP2 MSTORE PUSH1 0x4 ADD DUP1 DUP1 PUSH1 0x20 ADD DUP3 DUP2 SUB DUP3 MSTORE PUSH1 0x24 DUP2 MSTORE PUSH1 0x20 ADD DUP1 PUSH2 0x2837 PUSH1 0x24 SWAP2 CODECOPY PUSH1 0x40 ADD SWAP2 POP POP PUSH1 0x40 MLOAD DUP1 SWAP2 SUB SWAP1 REVERT JUMPDEST PUSH1 0x0 PUSH20 0xFFFFFFFFFFFFFFFFFFFFFFFFFFFFFFFFFFFFFFFF AND DUP3 PUSH20 0xFFFFFFFFFFFFFFFFFFFFFFFFFFFFFFFFFFFFFFFF AND EQ ISZERO PUSH2 0x1C81 JUMPI PUSH1 0x40 MLOAD PUSH32 0x8C379A000000000000000000000000000000000000000000000000000000000 DUP2 MSTORE PUSH1 0x4 ADD DUP1 DUP1 PUSH1 0x20 ADD DUP3 DUP2 SUB DUP3 MSTORE PUSH1 0x22 DUP2 MSTORE PUSH1 0x20 ADD DUP1 PUSH2 0x29B7 PUSH1 0x22 SWAP2 CODECOPY PUSH1 0x40 ADD SWAP2 POP POP PUSH1 0x40 MLOAD DUP1 SWAP2 SUB SWAP1 REVERT JUMPDEST DUP1 PUSH1 0x2 PUSH1 0x0 DUP6 PUSH20 0xFFFFFFFFFFFFFFFFFFFFFFFFFFFFFFFFFFFFFFFF AND PUSH20 0xFFFFFFFFFFFFFFFFFFFFFFFFFFFFFFFFFFFFFFFF AND DUP2 MSTORE PUSH1 0x20 ADD SWAP1 DUP2 MSTORE PUSH1 0x20 ADD PUSH1 0x0 KECCAK256 PUSH1 0x0 DUP5 PUSH20 0xFFFFFFFFFFFFFFFFFFFFFFFFFFFFFFFFFFFFFFFF AND PUSH20 0xFFFFFFFFFFFFFFFFFFFFFFFFFFFFFFFFFFFFFFFF AND DUP2 MSTORE PUSH1 0x20 ADD SWAP1 DUP2 MSTORE PUSH1 0x20 ADD PUSH1 0x0 KECCAK256 DUP2 SWAP1 SSTORE POP DUP2 PUSH20 0xFFFFFFFFFFFFFFFFFFFFFFFFFFFFFFFFFFFFFFFF AND DUP4 PUSH20 0xFFFFFFFFFFFFFFFFFFFFFFFFFFFFFFFFFFFFFFFF AND PUSH32 0x8C5BE1E5EBEC7D5BD14F71427D1E84F3DD0314C0F7B2291E5B200AC8C7C3B925 DUP4 PUSH1 0x40 MLOAD DUP1 DUP3 DUP2 MSTORE PUSH1 0x20 ADD SWAP2 POP POP PUSH1 0x40 MLOAD DUP1 SWAP2 SUB SWAP1 LOG3 POP POP POP JUMP JUMPDEST PUSH1 0x7 PUSH1 0x0 DUP4 PUSH20 0xFFFFFFFFFFFFFFFFFFFFFFFFFFFFFFFFFFFFFFFF AND PUSH20 0xFFFFFFFFFFFFFFFFFFFFFFFFFFFFFFFFFFFFFFFF AND DUP2 MSTORE PUSH1 0x20 ADD SWAP1 DUP2 MSTORE PUSH1 0x20 ADD PUSH1 0x0 KECCAK256 PUSH1 0x0 SWAP1 SLOAD SWAP1 PUSH2 0x100 EXP SWAP1 DIV PUSH1 0xFF AND ISZERO PUSH2 0x1E2C JUMPI PUSH1 0x40 MLOAD PUSH32 0x8C379A000000000000000000000000000000000000000000000000000000000 DUP2 MSTORE PUSH1 0x4 ADD DUP1 DUP1 PUSH1 0x20 ADD DUP3 DUP2 SUB DUP3 MSTORE PUSH1 0x17 DUP2 MSTORE PUSH1 0x20 ADD DUP1 PUSH32 0x726563697069656E74206973206261636B6C6973746564000000000000000000 DUP2 MSTORE POP PUSH1 0x20 ADD SWAP2 POP POP PUSH1 0x40 MLOAD DUP1 SWAP2 SUB SWAP1 REVERT JUMPDEST PUSH1 0x7 PUSH1 0x0 DUP5 PUSH20 0xFFFFFFFFFFFFFFFFFFFFFFFFFFFFFFFFFFFFFFFF AND PUSH20 0xFFFFFFFFFFFFFFFFFFFFFFFFFFFFFFFFFFFFFFFF AND DUP2 MSTORE PUSH1 0x20 ADD SWAP1 DUP2 MSTORE PUSH1 0x20 ADD PUSH1 0x0 KECCAK256 PUSH1 0x0 SWAP1 SLOAD SWAP1 PUSH2 0x100 EXP SWAP1 DIV PUSH1 0xFF AND ISZERO PUSH2 0x1EEC JUMPI PUSH1 0x40 MLOAD PUSH32 0x8C379A000000000000000000000000000000000000000000000000000000000 DUP2 MSTORE PUSH1 0x4 ADD DUP1 DUP1 PUSH1 0x20 ADD DUP3 DUP2 SUB DUP3 MSTORE PUSH1 0x14 DUP2 MSTORE PUSH1 0x20 ADD DUP1 PUSH32 0x73656E646572206973206261636B6C6973746564000000000000000000000000 DUP2 MSTORE POP PUSH1 0x20 ADD SWAP2 POP POP PUSH1 0x40 MLOAD DUP1 SWAP2 SUB SWAP1 REVERT JUMPDEST PUSH1 0x6 PUSH1 0x16 SWAP1 SLOAD SWAP1 PUSH2 0x100 EXP SWAP1 DIV PUSH1 0xFF AND ISZERO PUSH2 0x1F52 JUMPI PUSH1 0x40 MLOAD PUSH32 0x8C379A000000000000000000000000000000000000000000000000000000000 DUP2 MSTORE PUSH1 0x4 ADD DUP1 DUP1 PUSH1 0x20 ADD DUP3 DUP2 SUB DUP3 MSTORE PUSH1 0x2F DUP2 MSTORE PUSH1 0x20 ADD DUP1 PUSH2 0x2881 PUSH1 0x2F SWAP2 CODECOPY PUSH1 0x40 ADD SWAP2 POP POP PUSH1 0x40 MLOAD DUP1 SWAP2 SUB SWAP1 REVERT JUMPDEST PUSH1 0x0 PUSH20 0xFFFFFFFFFFFFFFFFFFFFFFFFFFFFFFFFFFFFFFFF AND DUP4 PUSH20 0xFFFFFFFFFFFFFFFFFFFFFFFFFFFFFFFFFFFFFFFF AND EQ ISZERO PUSH2 0x1FD8 JUMPI PUSH1 0x40 MLOAD PUSH32 0x8C379A000000000000000000000000000000000000000000000000000000000 DUP2 MSTORE PUSH1 0x4 ADD DUP1 DUP1 PUSH1 0x20 ADD DUP3 DUP2 SUB DUP3 MSTORE PUSH1 0x25 DUP2 MSTORE PUSH1 0x20 ADD DUP1 PUSH2 0x2812 PUSH1 0x25 SWAP2 CODECOPY PUSH1 0x40 ADD SWAP2 POP POP PUSH1 0x40 MLOAD DUP1 SWAP2 SUB SWAP1 REVERT JUMPDEST PUSH1 0x0 PUSH20 0xFFFFFFFFFFFFFFFFFFFFFFFFFFFFFFFFFFFFFFFF AND DUP3 PUSH20 0xFFFFFFFFFFFFFFFFFFFFFFFFFFFFFFFFFFFFFFFF AND EQ ISZERO PUSH2 0x205E JUMPI PUSH1 0x40 MLOAD PUSH32 0x8C379A000000000000000000000000000000000000000000000000000000000 DUP2 MSTORE PUSH1 0x4 ADD DUP1 DUP1 PUSH1 0x20 ADD DUP3 DUP2 SUB DUP3 MSTORE PUSH1 0x23 DUP2 MSTORE PUSH1 0x20 ADD DUP1 PUSH2 0x292C PUSH1 0x23 SWAP2 CODECOPY PUSH1 0x40 ADD SWAP2 POP POP PUSH1 0x40 MLOAD DUP1 SWAP2 SUB SWAP1 REVERT JUMPDEST PUSH2 0x20CA DUP2 PUSH1 0x40 MLOAD DUP1 PUSH1 0x60 ADD PUSH1 0x40 MSTORE DUP1 PUSH1 0x26 DUP2 MSTORE PUSH1 0x20 ADD PUSH2 0x2906 PUSH1 0x26 SWAP2 CODECOPY PUSH1 0x1 PUSH1 0x0 DUP8 PUSH20 0xFFFFFFFFFFFFFFFFFFFFFFFFFFFFFFFFFFFFFFFF AND PUSH20 0xFFFFFFFFFFFFFFFFFFFFFFFFFFFFFFFFFFFFFFFF AND DUP2 MSTORE PUSH1 0x20 ADD SWAP1 DUP2 MSTORE PUSH1 0x20 ADD PUSH1 0x0 KECCAK256 SLOAD PUSH2 0x220C SWAP1 SWAP3 SWAP2 SWAP1 PUSH4 0xFFFFFFFF AND JUMP JUMPDEST PUSH1 0x1 PUSH1 0x0 DUP6 PUSH20 0xFFFFFFFFFFFFFFFFFFFFFFFFFFFFFFFFFFFFFFFF AND PUSH20 0xFFFFFFFFFFFFFFFFFFFFFFFFFFFFFFFFFFFFFFFF AND DUP2 MSTORE PUSH1 0x20 ADD SWAP1 DUP2 MSTORE PUSH1 0x20 ADD PUSH1 0x0 KECCAK256 DUP2 SWAP1 SSTORE POP PUSH2 0x215F DUP2 PUSH1 0x1 PUSH1 0x0 DUP6 PUSH20 0xFFFFFFFFFFFFFFFFFFFFFFFFFFFFFFFFFFFFFFFF AND PUSH20 0xFFFFFFFFFFFFFFFFFFFFFFFFFFFFFFFFFFFFFFFF AND DUP2 MSTORE PUSH1 0x20 ADD SWAP1 DUP2 MSTORE PUSH1 0x20 ADD PUSH1 0x0 KECCAK256 SLOAD PUSH2 0x22C6 SWAP1 SWAP2 SWAP1 PUSH4 0xFFFFFFFF AND JUMP JUMPDEST PUSH1 0x1 PUSH1 0x0 DUP5 PUSH20 0xFFFFFFFFFFFFFFFFFFFFFFFFFFFFFFFFFFFFFFFF AND PUSH20 0xFFFFFFFFFFFFFFFFFFFFFFFFFFFFFFFFFFFFFFFF AND DUP2 MSTORE PUSH1 0x20 ADD SWAP1 DUP2 MSTORE PUSH1 0x20 ADD PUSH1 0x0 KECCAK256 DUP2 SWAP1 SSTORE POP DUP2 PUSH20 0xFFFFFFFFFFFFFFFFFFFFFFFFFFFFFFFFFFFFFFFF AND DUP4 PUSH20 0xFFFFFFFFFFFFFFFFFFFFFFFFFFFFFFFFFFFFFFFF AND PUSH32 0xDDF252AD1BE2C89B69C2B068FC378DAA952BA7F163C4A11628F55A4DF523B3EF DUP4 PUSH1 0x40 MLOAD DUP1 DUP3 DUP2 MSTORE PUSH1 0x20 ADD SWAP2 POP POP PUSH1 0x40 MLOAD DUP1 SWAP2 SUB SWAP1 LOG3 POP POP POP JUMP JUMPDEST PUSH1 0x0 DUP4 DUP4 GT ISZERO DUP3 SWAP1 PUSH2 0x22B9 JUMPI PUSH1 0x40 MLOAD PUSH32 0x8C379A000000000000000000000000000000000000000000000000000000000 DUP2 MSTORE PUSH1 0x4 ADD DUP1 DUP1 PUSH1 0x20 ADD DUP3 DUP2 SUB DUP3 MSTORE DUP4 DUP2 DUP2 MLOAD DUP2 MSTORE PUSH1 0x20 ADD SWAP2 POP DUP1 MLOAD SWAP1 PUSH1 0x20 ADD SWAP1 DUP1 DUP4 DUP4 PUSH1 0x0 JUMPDEST DUP4 DUP2 LT ISZERO PUSH2 0x227E JUMPI DUP1 DUP3 ADD MLOAD DUP2 DUP5 ADD MSTORE PUSH1 0x20 DUP2 ADD SWAP1 POP PUSH2 0x2263 JUMP JUMPDEST POP POP POP POP SWAP1 POP SWAP1 DUP2 ADD SWAP1 PUSH1 0x1F AND DUP1 ISZERO PUSH2 0x22AB JUMPI DUP1 DUP3 SUB DUP1 MLOAD PUSH1 0x1 DUP4 PUSH1 0x20 SUB PUSH2 0x100 EXP SUB NOT AND DUP2 MSTORE PUSH1 0x20 ADD SWAP2 POP JUMPDEST POP SWAP3 POP POP POP PUSH1 0x40 MLOAD DUP1 SWAP2 SUB SWAP1 REVERT JUMPDEST POP DUP3 DUP5 SUB SWAP1 POP SWAP4 SWAP3 POP POP POP JUMP JUMPDEST PUSH1 0x0 DUP1 DUP3 DUP5 ADD SWAP1 POP DUP4 DUP2 LT ISZERO PUSH2 0x2344 JUMPI PUSH1 0x40 MLOAD PUSH32 0x8C379A000000000000000000000000000000000000000000000000000000000 DUP2 MSTORE PUSH1 0x4 ADD DUP1 DUP1 PUSH1 0x20 ADD DUP3 DUP2 SUB DUP3 MSTORE PUSH1 0x1B DUP2 MSTORE PUSH1 0x20 ADD DUP1 PUSH32 0x536166654D6174683A206164646974696F6E206F766572666C6F770000000000 DUP2 MSTORE POP PUSH1 0x20 ADD SWAP2 POP POP PUSH1 0x40 MLOAD DUP1 SWAP2 SUB SWAP1 REVERT JUMPDEST DUP1 SWAP2 POP POP SWAP3 SWAP2 POP POP JUMP JUMPDEST PUSH1 0x0 PUSH20 0xFFFFFFFFFFFFFFFFFFFFFFFFFFFFFFFFFFFFFFFF AND DUP3 PUSH20 0xFFFFFFFFFFFFFFFFFFFFFFFFFFFFFFFFFFFFFFFF AND EQ ISZERO PUSH2 0x23D4 JUMPI PUSH1 0x40 MLOAD PUSH32 0x8C379A000000000000000000000000000000000000000000000000000000000 DUP2 MSTORE PUSH1 0x4 ADD DUP1 DUP1 PUSH1 0x20 ADD DUP3 DUP2 SUB DUP3 MSTORE PUSH1 0x21 DUP2 MSTORE PUSH1 0x20 ADD DUP1 PUSH2 0x2974 PUSH1 0x21 SWAP2 CODECOPY PUSH1 0x40 ADD SWAP2 POP POP PUSH1 0x40 MLOAD DUP1 SWAP2 SUB SWAP1 REVERT JUMPDEST PUSH2 0x2440 DUP2 PUSH1 0x40 MLOAD DUP1 PUSH1 0x60 ADD PUSH1 0x40 MSTORE DUP1 PUSH1 0x22 DUP2 MSTORE PUSH1 0x20 ADD PUSH2 0x2995 PUSH1 0x22 SWAP2 CODECOPY PUSH1 0x1 PUSH1 0x0 DUP7 PUSH20 0xFFFFFFFFFFFFFFFFFFFFFFFFFFFFFFFFFFFFFFFF AND PUSH20 0xFFFFFFFFFFFFFFFFFFFFFFFFFFFFFFFFFFFFFFFF AND DUP2 MSTORE PUSH1 0x20 ADD SWAP1 DUP2 MSTORE PUSH1 0x20 ADD PUSH1 0x0 KECCAK256 SLOAD PUSH2 0x220C SWAP1 SWAP3 SWAP2 SWAP1 PUSH4 0xFFFFFFFF AND JUMP JUMPDEST PUSH1 0x1 PUSH1 0x0 DUP5 PUSH20 0xFFFFFFFFFFFFFFFFFFFFFFFFFFFFFFFFFFFFFFFF AND PUSH20 0xFFFFFFFFFFFFFFFFFFFFFFFFFFFFFFFFFFFFFFFF AND DUP2 MSTORE PUSH1 0x20 ADD SWAP1 DUP2 MSTORE PUSH1 0x20 ADD PUSH1 0x0 KECCAK256 DUP2 SWAP1 SSTORE POP PUSH2 0x2498 DUP2 PUSH1 0x3 SLOAD PUSH2 0x26D6 SWAP1 SWAP2 SWAP1 PUSH4 0xFFFFFFFF AND JUMP JUMPDEST PUSH1 0x3 DUP2 SWAP1 SSTORE POP PUSH1 0x0 PUSH20 0xFFFFFFFFFFFFFFFFFFFFFFFFFFFFFFFFFFFFFFFF AND DUP3 PUSH20 0xFFFFFFFFFFFFFFFFFFFFFFFFFFFFFFFFFFFFFFFF AND PUSH32 0xDDF252AD1BE2C89B69C2B068FC378DAA952BA7F163C4A11628F55A4DF523B3EF DUP4 PUSH1 0x40 MLOAD DUP1 DUP3 DUP2 MSTORE PUSH1 0x20 ADD SWAP2 POP POP PUSH1 0x40 MLOAD DUP1 SWAP2 SUB SWAP1 LOG3 POP POP JUMP JUMPDEST PUSH1 0x0 PUSH20 0xFFFFFFFFFFFFFFFFFFFFFFFFFFFFFFFFFFFFFFFF AND DUP3 PUSH20 0xFFFFFFFFFFFFFFFFFFFFFFFFFFFFFFFFFFFFFFFF AND EQ ISZERO PUSH2 0x25AB JUMPI PUSH1 0x40 MLOAD PUSH32 0x8C379A000000000000000000000000000000000000000000000000000000000 DUP2 MSTORE PUSH1 0x4 ADD DUP1 DUP1 PUSH1 0x20 ADD DUP3 DUP2 SUB DUP3 MSTORE PUSH1 0x1F DUP2 MSTORE PUSH1 0x20 ADD DUP1 PUSH32 0x42455032303A206D696E7420746F20746865207A65726F206164647265737300 DUP2 MSTORE POP PUSH1 0x20 ADD SWAP2 POP POP PUSH1 0x40 MLOAD DUP1 SWAP2 SUB SWAP1 REVERT JUMPDEST PUSH2 0x25C0 DUP2 PUSH1 0x3 SLOAD PUSH2 0x22C6 SWAP1 SWAP2 SWAP1 PUSH4 0xFFFFFFFF AND JUMP JUMPDEST PUSH1 0x3 DUP2 SWAP1 SSTORE POP PUSH2 0x2618 DUP2 PUSH1 0x1 PUSH1 0x0 DUP6 PUSH20 0xFFFFFFFFFFFFFFFFFFFFFFFFFFFFFFFFFFFFFFFF AND PUSH20 0xFFFFFFFFFFFFFFFFFFFFFFFFFFFFFFFFFFFFFFFF AND DUP2 MSTORE PUSH1 0x20 ADD SWAP1 DUP2 MSTORE PUSH1 0x20 ADD PUSH1 0x0 KECCAK256 SLOAD PUSH2 0x22C6 SWAP1 SWAP2 SWAP1 PUSH4 0xFFFFFFFF AND JUMP JUMPDEST PUSH1 0x1 PUSH1 0x0 DUP5 PUSH20 0xFFFFFFFFFFFFFFFFFFFFFFFFFFFFFFFFFFFFFFFF AND PUSH20 0xFFFFFFFFFFFFFFFFFFFFFFFFFFFFFFFFFFFFFFFF AND DUP2 MSTORE PUSH1 0x20 ADD SWAP1 DUP2 MSTORE PUSH1 0x20 ADD PUSH1 0x0 KECCAK256 DUP2 SWAP1 SSTORE POP DUP2 PUSH20 0xFFFFFFFFFFFFFFFFFFFFFFFFFFFFFFFFFFFFFFFF AND PUSH1 0x0 PUSH20 0xFFFFFFFFFFFFFFFFFFFFFFFFFFFFFFFFFFFFFFFF AND PUSH32 0xDDF252AD1BE2C89B69C2B068FC378DAA952BA7F163C4A11628F55A4DF523B3EF DUP4 PUSH1 0x40 MLOAD DUP1 DUP3 DUP2 MSTORE PUSH1 0x20 ADD SWAP2 POP POP PUSH1 0x40 MLOAD DUP1 SWAP2 SUB SWAP1 LOG3 POP POP JUMP JUMPDEST PUSH1 0x0 PUSH2 0x26D0 ADDRESS PUSH2 0x2759 JUMP JUMPDEST ISZERO SWAP1 POP SWAP1 JUMP JUMPDEST PUSH1 0x0 DUP3 DUP3 GT ISZERO PUSH2 0x274E JUMPI PUSH1 0x40 MLOAD PUSH32 0x8C379A000000000000000000000000000000000000000000000000000000000 DUP2 MSTORE PUSH1 0x4 ADD DUP1 DUP1 PUSH1 0x20 ADD DUP3 DUP2 SUB DUP3 MSTORE PUSH1 0x1E DUP2 MSTORE PUSH1 0x20 ADD DUP1 PUSH32 0x536166654D6174683A207375627472616374696F6E206F766572666C6F770000 DUP2 MSTORE POP PUSH1 0x20 ADD SWAP2 POP POP PUSH1 0x40 MLOAD DUP1 SWAP2 SUB SWAP1 REVERT JUMPDEST DUP2 DUP4 SUB SWAP1 POP SWAP3 SWAP2 POP POP JUMP JUMPDEST PUSH1 0x0 DUP1 DUP3 EXTCODESIZE SWAP1 POP PUSH1 0x0 DUP2 GT SWAP2 POP POP SWAP2 SWAP1 POP JUMP JUMPDEST DUP3 DUP1 SLOAD PUSH1 0x1 DUP2 PUSH1 0x1 AND ISZERO PUSH2 0x100 MUL SUB AND PUSH1 0x2 SWAP1 DIV SWAP1 PUSH1 0x0 MSTORE PUSH1 0x20 PUSH1 0x0 KECCAK256 SWAP1 PUSH1 0x1F ADD PUSH1 0x20 SWAP1 DIV DUP2 ADD SWAP3 DUP3 PUSH1 0x1F LT PUSH2 0x27AD JUMPI DUP1 MLOAD PUSH1 0xFF NOT AND DUP4 DUP1 ADD OR DUP6 SSTORE PUSH2 0x27DB JUMP JUMPDEST DUP3 DUP1 ADD PUSH1 0x1 ADD DUP6 SSTORE DUP3 ISZERO PUSH2 0x27DB JUMPI SWAP2 DUP3 ADD JUMPDEST DUP3 DUP2 GT ISZERO PUSH2 0x27DA JUMPI DUP3 MLOAD DUP3 SSTORE SWAP2 PUSH1 0x20 ADD SWAP2 SWAP1 PUSH1 0x1 ADD SWAP1 PUSH2 0x27BF JUMP JUMPDEST JUMPDEST POP SWAP1 POP PUSH2 0x27E8 SWAP2 SWAP1 PUSH2 0x27EC JUMP JUMPDEST POP SWAP1 JUMP JUMPDEST PUSH2 0x280E SWAP2 SWAP1 JUMPDEST DUP1 DUP3 GT ISZERO PUSH2 0x280A JUMPI PUSH1 0x0 DUP2 PUSH1 0x0 SWAP1 SSTORE POP PUSH1 0x1 ADD PUSH2 0x27F2 JUMP JUMPDEST POP SWAP1 JUMP JUMPDEST SWAP1 JUMP INVALID TIMESTAMP GASLIMIT POP ORIGIN ADDRESS GASPRICE KECCAK256 PUSH21 0x72616E736665722066726F6D20746865207A65726F KECCAK256 PUSH2 0x6464 PUSH19 0x65737342455032303A20617070726F76652066 PUSH19 0x6F6D20746865207A65726F2061646472657373 0x4F PUSH24 0x6E61626C653A206E6577206F776E65722069732074686520 PUSH27 0x65726F2061646472657373746F6B656E206F7065726174696F6E73 KECCAK256 PUSH17 0x61757365642064756520746F2073656375 PUSH19 0x69747920726561736F6E7342455032303A2074 PUSH19 0x616E7366657220616D6F756E74206578636565 PUSH5 0x7320616C6C PUSH16 0x77616E6365496E697469616C697A6162 PUSH13 0x653A20636F6E74726163742069 PUSH20 0x20616C726561647920696E697469616C697A6564 TIMESTAMP GASLIMIT POP ORIGIN ADDRESS GASPRICE KECCAK256 PUSH21 0x72616E7366657220616D6F756E7420657863656564 PUSH20 0x2062616C616E636542455032303A207472616E73 PUSH7 0x657220746F2074 PUSH9 0x65207A65726F206164 PUSH5 0x7265737342 GASLIMIT POP ORIGIN ADDRESS GASPRICE KECCAK256 PUSH5 0x6563726561 PUSH20 0x656420616C6C6F77616E63652062656C6F77207A PUSH6 0x726F42455032 ADDRESS GASPRICE KECCAK256 PUSH3 0x75726E KECCAK256 PUSH7 0x726F6D20746865 KECCAK256 PUSH27 0x65726F206164647265737342455032303A206275726E20616D6F75 PUSH15 0x7420657863656564732062616C616E PUSH4 0x65424550 ORIGIN ADDRESS GASPRICE KECCAK256 PUSH2 0x7070 PUSH19 0x6F766520746F20746865207A65726F20616464 PUSH19 0x657373A26469706673582212207775A1CA1AA4 PUSH17 0x2C5E14E2086883F0BD819419E983D770B5 PUSH7 0xFA85B885453087 PUSH5 0x736F6C6343 STOP MOD SUB STOP CALLER "
				},
				"gasEstimates": {
					"creation": {
						"codeDepositCost": "2153200",
						"executionCost": "2294",
						"totalCost": "2155494"
					},
					"external": {
						"allowance(address,address)": "1409",
						"approve(address,uint256)": "infinite",
						"balanceOf(address)": "1219",
						"blackList(address)": "23181",
						"burn(uint256)": "infinite",
						"decimals()": "1173",
						"decreaseAllowance(address,uint256)": "infinite",
						"getOwner()": "1200",
						"increaseAllowance(address,uint256)": "infinite",
						"initialize(string,string,uint8,uint256,bool,address)": "infinite",
						"mint(uint256)": "infinite",
						"mintable()": "1222",
						"name()": "infinite",
						"pause()": "22989",
						"removeFromBlacklist(address)": "23222",
						"renounceOwnership()": "24492",
						"symbol()": "infinite",
						"totalSupply()": "1081",
						"transfer(address,uint256)": "infinite",
						"transferFrom(address,address,uint256)": "infinite",
						"transferOwnership(address)": "infinite",
						"unpause()": "22964"
					},
					"internal": {
						"_approve(address,address,uint256)": "infinite",
						"_burn(address,uint256)": "infinite",
						"_burnFrom(address,uint256)": "infinite",
						"_mint(address,uint256)": "infinite",
						"_transfer(address,address,uint256)": "infinite"
					}
				},
				"methodIdentifiers": {
					"allowance(address,address)": "dd62ed3e",
					"approve(address,uint256)": "095ea7b3",
					"balanceOf(address)": "70a08231",
					"blackList(address)": "4838d165",
					"burn(uint256)": "42966c68",
					"decimals()": "313ce567",
					"decreaseAllowance(address,uint256)": "a457c2d7",
					"getOwner()": "893d20e8",
					"increaseAllowance(address,uint256)": "39509351",
					"initialize(string,string,uint8,uint256,bool,address)": "ef3ebcb8",
					"mint(uint256)": "a0712d68",
					"mintable()": "4bf365df",
					"name()": "06fdde03",
					"pause()": "8456cb59",
					"removeFromBlacklist(address)": "537df3b6",
					"renounceOwnership()": "715018a6",
					"symbol()": "95d89b41",
					"totalSupply()": "18160ddd",
					"transfer(address,uint256)": "a9059cbb",
					"transferFrom(address,address,uint256)": "23b872dd",
					"transferOwnership(address)": "f2fde38b",
					"unpause()": "3f4ba83a"
				}
			},
			"storageLayout": {
				"storage": [
					{
						"astId": 1218,
						"contract": "github/bnb-chain/canonical-upgradeable-bep20/contracts/BEP20TokenImplementation.sol:BEP20TokenImplementation",
						"label": "_initialized",
						"offset": 0,
						"slot": "0",
						"type": "t_bool"
					},
					{
						"astId": 1220,
						"contract": "github/bnb-chain/canonical-upgradeable-bep20/contracts/BEP20TokenImplementation.sol:BEP20TokenImplementation",
						"label": "_initializing",
						"offset": 1,
						"slot": "0",
						"type": "t_bool"
					},
					{
						"astId": 18,
						"contract": "github/bnb-chain/canonical-upgradeable-bep20/contracts/BEP20TokenImplementation.sol:BEP20TokenImplementation",
						"label": "_balances",
						"offset": 0,
						"slot": "1",
						"type": "t_mapping(t_address,t_uint256)"
					},
					{
						"astId": 24,
						"contract": "github/bnb-chain/canonical-upgradeable-bep20/contracts/BEP20TokenImplementation.sol:BEP20TokenImplementation",
						"label": "_allowances",
						"offset": 0,
						"slot": "2",
						"type": "t_mapping(t_address,t_mapping(t_address,t_uint256))"
					},
					{
						"astId": 26,
						"contract": "github/bnb-chain/canonical-upgradeable-bep20/contracts/BEP20TokenImplementation.sol:BEP20TokenImplementation",
						"label": "_totalSupply",
						"offset": 0,
						"slot": "3",
						"type": "t_uint256"
					},
					{
						"astId": 28,
						"contract": "github/bnb-chain/canonical-upgradeable-bep20/contracts/BEP20TokenImplementation.sol:BEP20TokenImplementation",
						"label": "_name",
						"offset": 0,
						"slot": "4",
						"type": "t_string_storage"
					},
					{
						"astId": 30,
						"contract": "github/bnb-chain/canonical-upgradeable-bep20/contracts/BEP20TokenImplementation.sol:BEP20TokenImplementation",
						"label": "_symbol",
						"offset": 0,
						"slot": "5",
						"type": "t_string_storage"
					},
					{
						"astId": 32,
						"contract": "github/bnb-chain/canonical-upgradeable-bep20/contracts/BEP20TokenImplementation.sol:BEP20TokenImplementation",
						"label": "_decimals",
						"offset": 0,
						"slot": "6",
						"type": "t_uint8"
					},
					{
						"astId": 34,
						"contract": "github/bnb-chain/canonical-upgradeable-bep20/contracts/BEP20TokenImplementation.sol:BEP20TokenImplementation",
						"label": "_owner",
						"offset": 1,
						"slot": "6",
						"type": "t_address"
					},
					{
						"astId": 42,
						"contract": "github/bnb-chain/canonical-upgradeable-bep20/contracts/BEP20TokenImplementation.sol:BEP20TokenImplementation",
						"label": "_mintable",
						"offset": 21,
						"slot": "6",
						"type": "t_bool"
					},
					{
						"astId": 44,
						"contract": "github/bnb-chain/canonical-upgradeable-bep20/contracts/BEP20TokenImplementation.sol:BEP20TokenImplementation",
						"label": "isPaused",
						"offset": 22,
						"slot": "6",
						"type": "t_bool"
					},
					{
						"astId": 52,
						"contract": "github/bnb-chain/canonical-upgradeable-bep20/contracts/BEP20TokenImplementation.sol:BEP20TokenImplementation",
						"label": "isBlacklisted",
						"offset": 0,
						"slot": "7",
						"type": "t_mapping(t_address,t_bool)"
					}
				],
				"types": {
					"t_address": {
						"encoding": "inplace",
						"label": "address",
						"numberOfBytes": "20"
					},
					"t_bool": {
						"encoding": "inplace",
						"label": "bool",
						"numberOfBytes": "1"
					},
					"t_mapping(t_address,t_bool)": {
						"encoding": "mapping",
						"key": "t_address",
						"label": "mapping(address => bool)",
						"numberOfBytes": "32",
						"value": "t_bool"
					},
					"t_mapping(t_address,t_mapping(t_address,t_uint256))": {
						"encoding": "mapping",
						"key": "t_address",
						"label": "mapping(address => mapping(address => uint256))",
						"numberOfBytes": "32",
						"value": "t_mapping(t_address,t_uint256)"
					},
					"t_mapping(t_address,t_uint256)": {
						"encoding": "mapping",
						"key": "t_address",
						"label": "mapping(address => uint256)",
						"numberOfBytes": "32",
						"value": "t_uint256"
					},
					"t_string_storage": {
						"encoding": "bytes",
						"label": "string",
						"numberOfBytes": "32"
					},
					"t_uint256": {
						"encoding": "inplace",
						"label": "uint256",
						"numberOfBytes": "32"
					},
					"t_uint8": {
						"encoding": "inplace",
						"label": "uint8",
						"numberOfBytes": "1"
					}
				}
			},
			"userdoc": {
				"methods": {}
			}
		}
	}
}